{
	"data": {
		"bytecode": {
			"linkReferences": {},
			"object": "60806040526010600155600154600a6200001a9190620003ca565b6002556201518060035534801562000030575f80fd5b50620000786040518060400160405280601b81526020017f4f776e657220636f6e7472616374206465706c6f7965642062793a0000000000815250336200013660201b60201c565b335f806101000a81548173ffffffffffffffffffffffffffffffffffffffff021916908373ffffffffffffffffffffffffffffffffffffffff1602179055505f8054906101000a900473ffffffffffffffffffffffffffffffffffffffff1673ffffffffffffffffffffffffffffffffffffffff165f73ffffffffffffffffffffffffffffffffffffffff167f342827c97908e5e2f71151c08502a66d44b6f758e3ac2f1de95f02eb95f0a73560405160405180910390a362000550565b620001d882826040516024016200014f929190620004f1565b6040516020818303038152906040527f319af333000000000000000000000000000000000000000000000000000000007bffffffffffffffffffffffffffffffffffffffffffffffffffffffff19166020820180517bffffffffffffffffffffffffffffffffffffffffffffffffffffffff8381831617835250505050620001dc60201b60201c565b5050565b6200020281620001fd6200020560201b6200040d176200022460201b60201c565b60201c565b50565b5f6a636f6e736f6c652e6c6f6790505f80835160208501845afa505050565b6200023860201b6200063517819050919050565b6200024262000523565b565b7f4e487b71000000000000000000000000000000000000000000000000000000005f52601160045260245ffd5b5f8160011c9050919050565b5f808291508390505b6001851115620002ce57808604811115620002a657620002a562000244565b5b6001851615620002b65780820291505b8081029050620002c68562000271565b945062000286565b94509492505050565b5f82620002e85760019050620003ba565b81620002f7575f9050620003ba565b81600181146200031057600281146200031b5762000351565b6001915050620003ba565b60ff84111562000330576200032f62000244565b5b8360020a9150848211156200034a576200034962000244565b5b50620003ba565b5060208310610133831016604e8410600b84101617156200038b5782820a90508381111562000385576200038462000244565b5b620003ba565b6200039a84848460016200027d565b92509050818404811115620003b457620003b362000244565b5b81810290505b9392505050565b5f819050919050565b5f620003d682620003c1565b9150620003e383620003c1565b9250620004127fffffffffffffffffffffffffffffffffffffffffffffffffffffffffffffffff8484620002d7565b905092915050565b5f81519050919050565b5f82825260208201905092915050565b5f5b838110156200045357808201518184015260208101905062000436565b5f8484015250505050565b5f601f19601f8301169050919050565b5f6200047a826200041a565b62000486818562000424565b93506200049881856020860162000434565b620004a3816200045e565b840191505092915050565b5f73ffffffffffffffffffffffffffffffffffffffff82169050919050565b5f620004d982620004ae565b9050919050565b620004eb81620004cd565b82525050565b5f6040820190508181035f8301526200050b81856200046e565b90506200051c6020830184620004e0565b9392505050565b7f4e487b71000000000000000000000000000000000000000000000000000000005f52605160045260245ffd5b610f26806200055e5f395ff3fe608060405234801561000f575f80fd5b5060043610610055575f3560e01c80631ebe0a511461005957806331b1b97814610089578063893d20e8146100bc578063a6f9dae1146100da578063c9e3203d146100f6575b5f80fd5b610073600480360381019061006e9190610683565b610112565b60405161008091906106ed565b60405180910390f35b6100a3600480360381019061009e9190610683565b610142565b6040516100b394939291906107bd565b60405180910390f35b6100c4610222565b6040516100d191906106ed565b60405180910390f35b6100f460048036038101906100ef9190610831565b610249565b005b610110600480360381019061010b9190610988565b610391565b005b6005602052805f5260405f205f915054906101000a900473ffffffffffffffffffffffffffffffffffffffff1681565b60048181548110610151575f80fd5b905f5260205f2090600302015f91509050805f018054610170906109fc565b80601f016020809104026020016040519081016040528092919081815260200182805461019c906109fc565b80156101e75780601f106101be576101008083540402835291602001916101e7565b820191905f5260205f20905b8154815290600101906020018083116101ca57829003601f168201915b505050505090806001015490806002015f9054906101000a900463ffffffff16908060020160049054906101000a900463ffffffff16905084565b5f805f9054906101000a900473ffffffffffffffffffffffffffffffffffffffff16905090565b5f8054906101000a900473ffffffffffffffffffffffffffffffffffffffff1673ffffffffffffffffffffffffffffffffffffffff163373ffffffffffffffffffffffffffffffffffffffff16146102d6576040517f08c379a00000000000000000000000000000000000000000000000000000000081526004016102cd90610a76565b60405180910390fd5b8073ffffffffffffffffffffffffffffffffffffffff165f8054906101000a900473ffffffffffffffffffffffffffffffffffffffff1673ffffffffffffffffffffffffffffffffffffffff167f342827c97908e5e2f71151c08502a66d44b6f758e3ac2f1de95f02eb95f0a73560405160405180910390a3805f806101000a81548173ffffffffffffffffffffffffffffffffffffffff021916908373ffffffffffffffffffffffffffffffffffffffff16021790555050565b5f60065f3373ffffffffffffffffffffffffffffffffffffffff1673ffffffffffffffffffffffffffffffffffffffff1681526020019081526020015f2054146103d9575f80fd5b5f6103e38261042c565b90506064816103f29190610ac1565b816103fd9190610b1e565b9050610409828261046f565b5050565b5f6a636f6e736f6c652e6c6f6790505f80835160208501845afa505050565b5f808260405160200161043f9190610b8b565b604051602081830303815290604052805190602001205f1c9050600254816104679190610ac1565b915050919050565b60046040518060800160405280848152602001838152602001600163ffffffff168152602001600354426104a39190610ba1565b63ffffffff16815250908060018154018082558091505060019003905f5260205f2090600302015f909190919091505f820151815f0190816104e59190610d71565b50602082015181600101556040820151816002015f6101000a81548163ffffffff021916908363ffffffff16021790555060608201518160020160046101000a81548163ffffffff021916908363ffffffff16021790555050505f60016004805490506105529190610b1e565b90503360055f8381526020019081526020015f205f6101000a81548173ffffffffffffffffffffffffffffffffffffffff021916908373ffffffffffffffffffffffffffffffffffffffff16021790555060065f3373ffffffffffffffffffffffffffffffffffffffff1673ffffffffffffffffffffffffffffffffffffffff1681526020019081526020015f205f8154809291906105f090610e40565b91905055507f65f2ddd4e3569295c9524ee05f933e861d64d7d0a245ce2e4b55aeab7011e2bd81848460405161062893929190610e87565b60405180910390a1505050565b61063d610ec3565b565b5f604051905090565b5f80fd5b5f80fd5b5f819050919050565b61066281610650565b811461066c575f80fd5b50565b5f8135905061067d81610659565b92915050565b5f6020828403121561069857610697610648565b5b5f6106a58482850161066f565b91505092915050565b5f73ffffffffffffffffffffffffffffffffffffffff82169050919050565b5f6106d7826106ae565b9050919050565b6106e7816106cd565b82525050565b5f6020820190506107005f8301846106de565b92915050565b5f81519050919050565b5f82825260208201905092915050565b5f5b8381101561073d578082015181840152602081019050610722565b5f8484015250505050565b5f601f19601f8301169050919050565b5f61076282610706565b61076c8185610710565b935061077c818560208601610720565b61078581610748565b840191505092915050565b61079981610650565b82525050565b5f63ffffffff82169050919050565b6107b78161079f565b82525050565b5f6080820190508181035f8301526107d58187610758565b90506107e46020830186610790565b6107f160408301856107ae565b6107fe60608301846107ae565b95945050505050565b610810816106cd565b811461081a575f80fd5b50565b5f8135905061082b81610807565b92915050565b5f6020828403121561084657610845610648565b5b5f6108538482850161081d565b91505092915050565b5f80fd5b5f80fd5b7f4e487b71000000000000000000000000000000000000000000000000000000005f52604160045260245ffd5b61089a82610748565b810181811067ffffffffffffffff821117156108b9576108b8610864565b5b80604052505050565b5f6108cb61063f565b90506108d78282610891565b919050565b5f67ffffffffffffffff8211156108f6576108f5610864565b5b6108ff82610748565b9050602081019050919050565b828183375f83830152505050565b5f61092c610927846108dc565b6108c2565b90508281526020810184848401111561094857610947610860565b5b61095384828561090c565b509392505050565b5f82601f83011261096f5761096e61085c565b5b813561097f84826020860161091a565b91505092915050565b5f6020828403121561099d5761099c610648565b5b5f82013567ffffffffffffffff8111156109ba576109b961064c565b5b6109c68482850161095b565b91505092915050565b7f4e487b71000000000000000000000000000000000000000000000000000000005f52602260045260245ffd5b5f6002820490506001821680610a1357607f821691505b602082108103610a2657610a256109cf565b5b50919050565b7f43616c6c6572206973206e6f74206f776e6572000000000000000000000000005f82015250565b5f610a60601383610710565b9150610a6b82610a2c565b602082019050919050565b5f6020820190508181035f830152610a8d81610a54565b9050919050565b7f4e487b71000000000000000000000000000000000000000000000000000000005f52601260045260245ffd5b5f610acb82610650565b9150610ad683610650565b925082610ae657610ae5610a94565b5b828206905092915050565b7f4e487b71000000000000000000000000000000000000000000000000000000005f52601160045260245ffd5b5f610b2882610650565b9150610b3383610650565b9250828203905081811115610b4b57610b4a610af1565b5b92915050565b5f81905092915050565b5f610b6582610706565b610b6f8185610b51565b9350610b7f818560208601610720565b80840191505092915050565b5f610b968284610b5b565b915081905092915050565b5f610bab82610650565b9150610bb683610650565b9250828201905080821115610bce57610bcd610af1565b5b92915050565b5f819050815f5260205f209050919050565b5f6020601f8301049050919050565b5f82821b905092915050565b5f60088302610c307fffffffffffffffffffffffffffffffffffffffffffffffffffffffffffffffff82610bf5565b610c3a8683610bf5565b95508019841693508086168417925050509392505050565b5f819050919050565b5f610c75610c70610c6b84610650565b610c52565b610650565b9050919050565b5f819050919050565b610c8e83610c5b565b610ca2610c9a82610c7c565b848454610c01565b825550505050565b5f90565b610cb6610caa565b610cc1818484610c85565b505050565b5b81811015610ce457610cd95f82610cae565b600181019050610cc7565b5050565b601f821115610d2957610cfa81610bd4565b610d0384610be6565b81016020851015610d12578190505b610d26610d1e85610be6565b830182610cc6565b50505b505050565b5f82821c905092915050565b5f610d495f1984600802610d2e565b1980831691505092915050565b5f610d618383610d3a565b9150826002028217905092915050565b610d7a82610706565b67ffffffffffffffff811115610d9357610d92610864565b5b610d9d82546109fc565b610da8828285610ce8565b5f60209050601f831160018114610dd9575f8415610dc7578287015190505b610dd18582610d56565b865550610e38565b601f198416610de786610bd4565b5f5b82811015610e0e57848901518255600182019150602085019450602081019050610de9565b86831015610e2b5784890151610e27601f891682610d3a565b8355505b6001600288020188555050505b505050505050565b5f610e4a82610650565b91507fffffffffffffffffffffffffffffffffffffffffffffffffffffffffffffffff8203610e7c57610e7b610af1565b5b600182019050919050565b5f606082019050610e9a5f830186610790565b8181036020830152610eac8185610758565b9050610ebb6040830184610790565b949350505050565b7f4e487b71000000000000000000000000000000000000000000000000000000005f52605160045260245ffdfea26469706673582212200418390f93cc2dbf3064d4fc33323249055c7f5469e42737d6550ee9223b4d7b64736f6c63430008160033",
			"opcodes": "PUSH1 0x80 PUSH1 0x40 MSTORE PUSH1 0x10 PUSH1 0x1 SSTORE PUSH1 0x1 SLOAD PUSH1 0xA PUSH3 0x1A SWAP2 SWAP1 PUSH3 0x3CA JUMP JUMPDEST PUSH1 0x2 SSTORE PUSH3 0x15180 PUSH1 0x3 SSTORE CALLVALUE DUP1 ISZERO PUSH3 0x30 JUMPI PUSH0 DUP1 REVERT JUMPDEST POP PUSH3 0x78 PUSH1 0x40 MLOAD DUP1 PUSH1 0x40 ADD PUSH1 0x40 MSTORE DUP1 PUSH1 0x1B DUP2 MSTORE PUSH1 0x20 ADD PUSH32 0x4F776E657220636F6E7472616374206465706C6F7965642062793A0000000000 DUP2 MSTORE POP CALLER PUSH3 0x136 PUSH1 0x20 SHL PUSH1 0x20 SHR JUMP JUMPDEST CALLER PUSH0 DUP1 PUSH2 0x100 EXP DUP2 SLOAD DUP2 PUSH20 0xFFFFFFFFFFFFFFFFFFFFFFFFFFFFFFFFFFFFFFFF MUL NOT AND SWAP1 DUP4 PUSH20 0xFFFFFFFFFFFFFFFFFFFFFFFFFFFFFFFFFFFFFFFF AND MUL OR SWAP1 SSTORE POP PUSH0 DUP1 SLOAD SWAP1 PUSH2 0x100 EXP SWAP1 DIV PUSH20 0xFFFFFFFFFFFFFFFFFFFFFFFFFFFFFFFFFFFFFFFF AND PUSH20 0xFFFFFFFFFFFFFFFFFFFFFFFFFFFFFFFFFFFFFFFF AND PUSH0 PUSH20 0xFFFFFFFFFFFFFFFFFFFFFFFFFFFFFFFFFFFFFFFF AND PUSH32 0x342827C97908E5E2F71151C08502A66D44B6F758E3AC2F1DE95F02EB95F0A735 PUSH1 0x40 MLOAD PUSH1 0x40 MLOAD DUP1 SWAP2 SUB SWAP1 LOG3 PUSH3 0x550 JUMP JUMPDEST PUSH3 0x1D8 DUP3 DUP3 PUSH1 0x40 MLOAD PUSH1 0x24 ADD PUSH3 0x14F SWAP3 SWAP2 SWAP1 PUSH3 0x4F1 JUMP JUMPDEST PUSH1 0x40 MLOAD PUSH1 0x20 DUP2 DUP4 SUB SUB DUP2 MSTORE SWAP1 PUSH1 0x40 MSTORE PUSH32 0x319AF33300000000000000000000000000000000000000000000000000000000 PUSH28 0xFFFFFFFFFFFFFFFFFFFFFFFFFFFFFFFFFFFFFFFFFFFFFFFFFFFFFFFF NOT AND PUSH1 0x20 DUP3 ADD DUP1 MLOAD PUSH28 0xFFFFFFFFFFFFFFFFFFFFFFFFFFFFFFFFFFFFFFFFFFFFFFFFFFFFFFFF DUP4 DUP2 DUP4 AND OR DUP4 MSTORE POP POP POP POP PUSH3 0x1DC PUSH1 0x20 SHL PUSH1 0x20 SHR JUMP JUMPDEST POP POP JUMP JUMPDEST PUSH3 0x202 DUP2 PUSH3 0x1FD PUSH3 0x205 PUSH1 0x20 SHL PUSH3 0x40D OR PUSH3 0x224 PUSH1 0x20 SHL PUSH1 0x20 SHR JUMP JUMPDEST PUSH1 0x20 SHR JUMP JUMPDEST POP JUMP JUMPDEST PUSH0 PUSH11 0x636F6E736F6C652E6C6F67 SWAP1 POP PUSH0 DUP1 DUP4 MLOAD PUSH1 0x20 DUP6 ADD DUP5 GAS STATICCALL POP POP POP JUMP JUMPDEST PUSH3 0x238 PUSH1 0x20 SHL PUSH3 0x635 OR DUP2 SWAP1 POP SWAP2 SWAP1 POP JUMP JUMPDEST PUSH3 0x242 PUSH3 0x523 JUMP JUMPDEST JUMP JUMPDEST PUSH32 0x4E487B7100000000000000000000000000000000000000000000000000000000 PUSH0 MSTORE PUSH1 0x11 PUSH1 0x4 MSTORE PUSH1 0x24 PUSH0 REVERT JUMPDEST PUSH0 DUP2 PUSH1 0x1 SHR SWAP1 POP SWAP2 SWAP1 POP JUMP JUMPDEST PUSH0 DUP1 DUP3 SWAP2 POP DUP4 SWAP1 POP JUMPDEST PUSH1 0x1 DUP6 GT ISZERO PUSH3 0x2CE JUMPI DUP1 DUP7 DIV DUP2 GT ISZERO PUSH3 0x2A6 JUMPI PUSH3 0x2A5 PUSH3 0x244 JUMP JUMPDEST JUMPDEST PUSH1 0x1 DUP6 AND ISZERO PUSH3 0x2B6 JUMPI DUP1 DUP3 MUL SWAP2 POP JUMPDEST DUP1 DUP2 MUL SWAP1 POP PUSH3 0x2C6 DUP6 PUSH3 0x271 JUMP JUMPDEST SWAP5 POP PUSH3 0x286 JUMP JUMPDEST SWAP5 POP SWAP5 SWAP3 POP POP POP JUMP JUMPDEST PUSH0 DUP3 PUSH3 0x2E8 JUMPI PUSH1 0x1 SWAP1 POP PUSH3 0x3BA JUMP JUMPDEST DUP2 PUSH3 0x2F7 JUMPI PUSH0 SWAP1 POP PUSH3 0x3BA JUMP JUMPDEST DUP2 PUSH1 0x1 DUP2 EQ PUSH3 0x310 JUMPI PUSH1 0x2 DUP2 EQ PUSH3 0x31B JUMPI PUSH3 0x351 JUMP JUMPDEST PUSH1 0x1 SWAP2 POP POP PUSH3 0x3BA JUMP JUMPDEST PUSH1 0xFF DUP5 GT ISZERO PUSH3 0x330 JUMPI PUSH3 0x32F PUSH3 0x244 JUMP JUMPDEST JUMPDEST DUP4 PUSH1 0x2 EXP SWAP2 POP DUP5 DUP3 GT ISZERO PUSH3 0x34A JUMPI PUSH3 0x349 PUSH3 0x244 JUMP JUMPDEST JUMPDEST POP PUSH3 0x3BA JUMP JUMPDEST POP PUSH1 0x20 DUP4 LT PUSH2 0x133 DUP4 LT AND PUSH1 0x4E DUP5 LT PUSH1 0xB DUP5 LT AND OR ISZERO PUSH3 0x38B JUMPI DUP3 DUP3 EXP SWAP1 POP DUP4 DUP2 GT ISZERO PUSH3 0x385 JUMPI PUSH3 0x384 PUSH3 0x244 JUMP JUMPDEST JUMPDEST PUSH3 0x3BA JUMP JUMPDEST PUSH3 0x39A DUP5 DUP5 DUP5 PUSH1 0x1 PUSH3 0x27D JUMP JUMPDEST SWAP3 POP SWAP1 POP DUP2 DUP5 DIV DUP2 GT ISZERO PUSH3 0x3B4 JUMPI PUSH3 0x3B3 PUSH3 0x244 JUMP JUMPDEST JUMPDEST DUP2 DUP2 MUL SWAP1 POP JUMPDEST SWAP4 SWAP3 POP POP POP JUMP JUMPDEST PUSH0 DUP2 SWAP1 POP SWAP2 SWAP1 POP JUMP JUMPDEST PUSH0 PUSH3 0x3D6 DUP3 PUSH3 0x3C1 JUMP JUMPDEST SWAP2 POP PUSH3 0x3E3 DUP4 PUSH3 0x3C1 JUMP JUMPDEST SWAP3 POP PUSH3 0x412 PUSH32 0xFFFFFFFFFFFFFFFFFFFFFFFFFFFFFFFFFFFFFFFFFFFFFFFFFFFFFFFFFFFFFFFF DUP5 DUP5 PUSH3 0x2D7 JUMP JUMPDEST SWAP1 POP SWAP3 SWAP2 POP POP JUMP JUMPDEST PUSH0 DUP2 MLOAD SWAP1 POP SWAP2 SWAP1 POP JUMP JUMPDEST PUSH0 DUP3 DUP3 MSTORE PUSH1 0x20 DUP3 ADD SWAP1 POP SWAP3 SWAP2 POP POP JUMP JUMPDEST PUSH0 JUMPDEST DUP4 DUP2 LT ISZERO PUSH3 0x453 JUMPI DUP1 DUP3 ADD MLOAD DUP2 DUP5 ADD MSTORE PUSH1 0x20 DUP2 ADD SWAP1 POP PUSH3 0x436 JUMP JUMPDEST PUSH0 DUP5 DUP5 ADD MSTORE POP POP POP POP JUMP JUMPDEST PUSH0 PUSH1 0x1F NOT PUSH1 0x1F DUP4 ADD AND SWAP1 POP SWAP2 SWAP1 POP JUMP JUMPDEST PUSH0 PUSH3 0x47A DUP3 PUSH3 0x41A JUMP JUMPDEST PUSH3 0x486 DUP2 DUP6 PUSH3 0x424 JUMP JUMPDEST SWAP4 POP PUSH3 0x498 DUP2 DUP6 PUSH1 0x20 DUP7 ADD PUSH3 0x434 JUMP JUMPDEST PUSH3 0x4A3 DUP2 PUSH3 0x45E JUMP JUMPDEST DUP5 ADD SWAP2 POP POP SWAP3 SWAP2 POP POP JUMP JUMPDEST PUSH0 PUSH20 0xFFFFFFFFFFFFFFFFFFFFFFFFFFFFFFFFFFFFFFFF DUP3 AND SWAP1 POP SWAP2 SWAP1 POP JUMP JUMPDEST PUSH0 PUSH3 0x4D9 DUP3 PUSH3 0x4AE JUMP JUMPDEST SWAP1 POP SWAP2 SWAP1 POP JUMP JUMPDEST PUSH3 0x4EB DUP2 PUSH3 0x4CD JUMP JUMPDEST DUP3 MSTORE POP POP JUMP JUMPDEST PUSH0 PUSH1 0x40 DUP3 ADD SWAP1 POP DUP2 DUP2 SUB PUSH0 DUP4 ADD MSTORE PUSH3 0x50B DUP2 DUP6 PUSH3 0x46E JUMP JUMPDEST SWAP1 POP PUSH3 0x51C PUSH1 0x20 DUP4 ADD DUP5 PUSH3 0x4E0 JUMP JUMPDEST SWAP4 SWAP3 POP POP POP JUMP JUMPDEST PUSH32 0x4E487B7100000000000000000000000000000000000000000000000000000000 PUSH0 MSTORE PUSH1 0x51 PUSH1 0x4 MSTORE PUSH1 0x24 PUSH0 REVERT JUMPDEST PUSH2 0xF26 DUP1 PUSH3 0x55E PUSH0 CODECOPY PUSH0 RETURN INVALID PUSH1 0x80 PUSH1 0x40 MSTORE CALLVALUE DUP1 ISZERO PUSH2 0xF JUMPI PUSH0 DUP1 REVERT JUMPDEST POP PUSH1 0x4 CALLDATASIZE LT PUSH2 0x55 JUMPI PUSH0 CALLDATALOAD PUSH1 0xE0 SHR DUP1 PUSH4 0x1EBE0A51 EQ PUSH2 0x59 JUMPI DUP1 PUSH4 0x31B1B978 EQ PUSH2 0x89 JUMPI DUP1 PUSH4 0x893D20E8 EQ PUSH2 0xBC JUMPI DUP1 PUSH4 0xA6F9DAE1 EQ PUSH2 0xDA JUMPI DUP1 PUSH4 0xC9E3203D EQ PUSH2 0xF6 JUMPI JUMPDEST PUSH0 DUP1 REVERT JUMPDEST PUSH2 0x73 PUSH1 0x4 DUP1 CALLDATASIZE SUB DUP2 ADD SWAP1 PUSH2 0x6E SWAP2 SWAP1 PUSH2 0x683 JUMP JUMPDEST PUSH2 0x112 JUMP JUMPDEST PUSH1 0x40 MLOAD PUSH2 0x80 SWAP2 SWAP1 PUSH2 0x6ED JUMP JUMPDEST PUSH1 0x40 MLOAD DUP1 SWAP2 SUB SWAP1 RETURN JUMPDEST PUSH2 0xA3 PUSH1 0x4 DUP1 CALLDATASIZE SUB DUP2 ADD SWAP1 PUSH2 0x9E SWAP2 SWAP1 PUSH2 0x683 JUMP JUMPDEST PUSH2 0x142 JUMP JUMPDEST PUSH1 0x40 MLOAD PUSH2 0xB3 SWAP5 SWAP4 SWAP3 SWAP2 SWAP1 PUSH2 0x7BD JUMP JUMPDEST PUSH1 0x40 MLOAD DUP1 SWAP2 SUB SWAP1 RETURN JUMPDEST PUSH2 0xC4 PUSH2 0x222 JUMP JUMPDEST PUSH1 0x40 MLOAD PUSH2 0xD1 SWAP2 SWAP1 PUSH2 0x6ED JUMP JUMPDEST PUSH1 0x40 MLOAD DUP1 SWAP2 SUB SWAP1 RETURN JUMPDEST PUSH2 0xF4 PUSH1 0x4 DUP1 CALLDATASIZE SUB DUP2 ADD SWAP1 PUSH2 0xEF SWAP2 SWAP1 PUSH2 0x831 JUMP JUMPDEST PUSH2 0x249 JUMP JUMPDEST STOP JUMPDEST PUSH2 0x110 PUSH1 0x4 DUP1 CALLDATASIZE SUB DUP2 ADD SWAP1 PUSH2 0x10B SWAP2 SWAP1 PUSH2 0x988 JUMP JUMPDEST PUSH2 0x391 JUMP JUMPDEST STOP JUMPDEST PUSH1 0x5 PUSH1 0x20 MSTORE DUP1 PUSH0 MSTORE PUSH1 0x40 PUSH0 KECCAK256 PUSH0 SWAP2 POP SLOAD SWAP1 PUSH2 0x100 EXP SWAP1 DIV PUSH20 0xFFFFFFFFFFFFFFFFFFFFFFFFFFFFFFFFFFFFFFFF AND DUP2 JUMP JUMPDEST PUSH1 0x4 DUP2 DUP2 SLOAD DUP2 LT PUSH2 0x151 JUMPI PUSH0 DUP1 REVERT JUMPDEST SWAP1 PUSH0 MSTORE PUSH1 0x20 PUSH0 KECCAK256 SWAP1 PUSH1 0x3 MUL ADD PUSH0 SWAP2 POP SWAP1 POP DUP1 PUSH0 ADD DUP1 SLOAD PUSH2 0x170 SWAP1 PUSH2 0x9FC JUMP JUMPDEST DUP1 PUSH1 0x1F ADD PUSH1 0x20 DUP1 SWAP2 DIV MUL PUSH1 0x20 ADD PUSH1 0x40 MLOAD SWAP1 DUP2 ADD PUSH1 0x40 MSTORE DUP1 SWAP3 SWAP2 SWAP1 DUP2 DUP2 MSTORE PUSH1 0x20 ADD DUP3 DUP1 SLOAD PUSH2 0x19C SWAP1 PUSH2 0x9FC JUMP JUMPDEST DUP1 ISZERO PUSH2 0x1E7 JUMPI DUP1 PUSH1 0x1F LT PUSH2 0x1BE JUMPI PUSH2 0x100 DUP1 DUP4 SLOAD DIV MUL DUP4 MSTORE SWAP2 PUSH1 0x20 ADD SWAP2 PUSH2 0x1E7 JUMP JUMPDEST DUP3 ADD SWAP2 SWAP1 PUSH0 MSTORE PUSH1 0x20 PUSH0 KECCAK256 SWAP1 JUMPDEST DUP2 SLOAD DUP2 MSTORE SWAP1 PUSH1 0x1 ADD SWAP1 PUSH1 0x20 ADD DUP1 DUP4 GT PUSH2 0x1CA JUMPI DUP3 SWAP1 SUB PUSH1 0x1F AND DUP3 ADD SWAP2 JUMPDEST POP POP POP POP POP SWAP1 DUP1 PUSH1 0x1 ADD SLOAD SWAP1 DUP1 PUSH1 0x2 ADD PUSH0 SWAP1 SLOAD SWAP1 PUSH2 0x100 EXP SWAP1 DIV PUSH4 0xFFFFFFFF AND SWAP1 DUP1 PUSH1 0x2 ADD PUSH1 0x4 SWAP1 SLOAD SWAP1 PUSH2 0x100 EXP SWAP1 DIV PUSH4 0xFFFFFFFF AND SWAP1 POP DUP5 JUMP JUMPDEST PUSH0 DUP1 PUSH0 SWAP1 SLOAD SWAP1 PUSH2 0x100 EXP SWAP1 DIV PUSH20 0xFFFFFFFFFFFFFFFFFFFFFFFFFFFFFFFFFFFFFFFF AND SWAP1 POP SWAP1 JUMP JUMPDEST PUSH0 DUP1 SLOAD SWAP1 PUSH2 0x100 EXP SWAP1 DIV PUSH20 0xFFFFFFFFFFFFFFFFFFFFFFFFFFFFFFFFFFFFFFFF AND PUSH20 0xFFFFFFFFFFFFFFFFFFFFFFFFFFFFFFFFFFFFFFFF AND CALLER PUSH20 0xFFFFFFFFFFFFFFFFFFFFFFFFFFFFFFFFFFFFFFFF AND EQ PUSH2 0x2D6 JUMPI PUSH1 0x40 MLOAD PUSH32 0x8C379A000000000000000000000000000000000000000000000000000000000 DUP2 MSTORE PUSH1 0x4 ADD PUSH2 0x2CD SWAP1 PUSH2 0xA76 JUMP JUMPDEST PUSH1 0x40 MLOAD DUP1 SWAP2 SUB SWAP1 REVERT JUMPDEST DUP1 PUSH20 0xFFFFFFFFFFFFFFFFFFFFFFFFFFFFFFFFFFFFFFFF AND PUSH0 DUP1 SLOAD SWAP1 PUSH2 0x100 EXP SWAP1 DIV PUSH20 0xFFFFFFFFFFFFFFFFFFFFFFFFFFFFFFFFFFFFFFFF AND PUSH20 0xFFFFFFFFFFFFFFFFFFFFFFFFFFFFFFFFFFFFFFFF AND PUSH32 0x342827C97908E5E2F71151C08502A66D44B6F758E3AC2F1DE95F02EB95F0A735 PUSH1 0x40 MLOAD PUSH1 0x40 MLOAD DUP1 SWAP2 SUB SWAP1 LOG3 DUP1 PUSH0 DUP1 PUSH2 0x100 EXP DUP2 SLOAD DUP2 PUSH20 0xFFFFFFFFFFFFFFFFFFFFFFFFFFFFFFFFFFFFFFFF MUL NOT AND SWAP1 DUP4 PUSH20 0xFFFFFFFFFFFFFFFFFFFFFFFFFFFFFFFFFFFFFFFF AND MUL OR SWAP1 SSTORE POP POP JUMP JUMPDEST PUSH0 PUSH1 0x6 PUSH0 CALLER PUSH20 0xFFFFFFFFFFFFFFFFFFFFFFFFFFFFFFFFFFFFFFFF AND PUSH20 0xFFFFFFFFFFFFFFFFFFFFFFFFFFFFFFFFFFFFFFFF AND DUP2 MSTORE PUSH1 0x20 ADD SWAP1 DUP2 MSTORE PUSH1 0x20 ADD PUSH0 KECCAK256 SLOAD EQ PUSH2 0x3D9 JUMPI PUSH0 DUP1 REVERT JUMPDEST PUSH0 PUSH2 0x3E3 DUP3 PUSH2 0x42C JUMP JUMPDEST SWAP1 POP PUSH1 0x64 DUP2 PUSH2 0x3F2 SWAP2 SWAP1 PUSH2 0xAC1 JUMP JUMPDEST DUP2 PUSH2 0x3FD SWAP2 SWAP1 PUSH2 0xB1E JUMP JUMPDEST SWAP1 POP PUSH2 0x409 DUP3 DUP3 PUSH2 0x46F JUMP JUMPDEST POP POP JUMP JUMPDEST PUSH0 PUSH11 0x636F6E736F6C652E6C6F67 SWAP1 POP PUSH0 DUP1 DUP4 MLOAD PUSH1 0x20 DUP6 ADD DUP5 GAS STATICCALL POP POP POP JUMP JUMPDEST PUSH0 DUP1 DUP3 PUSH1 0x40 MLOAD PUSH1 0x20 ADD PUSH2 0x43F SWAP2 SWAP1 PUSH2 0xB8B JUMP JUMPDEST PUSH1 0x40 MLOAD PUSH1 0x20 DUP2 DUP4 SUB SUB DUP2 MSTORE SWAP1 PUSH1 0x40 MSTORE DUP1 MLOAD SWAP1 PUSH1 0x20 ADD KECCAK256 PUSH0 SHR SWAP1 POP PUSH1 0x2 SLOAD DUP2 PUSH2 0x467 SWAP2 SWAP1 PUSH2 0xAC1 JUMP JUMPDEST SWAP2 POP POP SWAP2 SWAP1 POP JUMP JUMPDEST PUSH1 0x4 PUSH1 0x40 MLOAD DUP1 PUSH1 0x80 ADD PUSH1 0x40 MSTORE DUP1 DUP5 DUP2 MSTORE PUSH1 0x20 ADD DUP4 DUP2 MSTORE PUSH1 0x20 ADD PUSH1 0x1 PUSH4 0xFFFFFFFF AND DUP2 MSTORE PUSH1 0x20 ADD PUSH1 0x3 SLOAD TIMESTAMP PUSH2 0x4A3 SWAP2 SWAP1 PUSH2 0xBA1 JUMP JUMPDEST PUSH4 0xFFFFFFFF AND DUP2 MSTORE POP SWAP1 DUP1 PUSH1 0x1 DUP2 SLOAD ADD DUP1 DUP3 SSTORE DUP1 SWAP2 POP POP PUSH1 0x1 SWAP1 SUB SWAP1 PUSH0 MSTORE PUSH1 0x20 PUSH0 KECCAK256 SWAP1 PUSH1 0x3 MUL ADD PUSH0 SWAP1 SWAP2 SWAP1 SWAP2 SWAP1 SWAP2 POP PUSH0 DUP3 ADD MLOAD DUP2 PUSH0 ADD SWAP1 DUP2 PUSH2 0x4E5 SWAP2 SWAP1 PUSH2 0xD71 JUMP JUMPDEST POP PUSH1 0x20 DUP3 ADD MLOAD DUP2 PUSH1 0x1 ADD SSTORE PUSH1 0x40 DUP3 ADD MLOAD DUP2 PUSH1 0x2 ADD PUSH0 PUSH2 0x100 EXP DUP2 SLOAD DUP2 PUSH4 0xFFFFFFFF MUL NOT AND SWAP1 DUP4 PUSH4 0xFFFFFFFF AND MUL OR SWAP1 SSTORE POP PUSH1 0x60 DUP3 ADD MLOAD DUP2 PUSH1 0x2 ADD PUSH1 0x4 PUSH2 0x100 EXP DUP2 SLOAD DUP2 PUSH4 0xFFFFFFFF MUL NOT AND SWAP1 DUP4 PUSH4 0xFFFFFFFF AND MUL OR SWAP1 SSTORE POP POP POP PUSH0 PUSH1 0x1 PUSH1 0x4 DUP1 SLOAD SWAP1 POP PUSH2 0x552 SWAP2 SWAP1 PUSH2 0xB1E JUMP JUMPDEST SWAP1 POP CALLER PUSH1 0x5 PUSH0 DUP4 DUP2 MSTORE PUSH1 0x20 ADD SWAP1 DUP2 MSTORE PUSH1 0x20 ADD PUSH0 KECCAK256 PUSH0 PUSH2 0x100 EXP DUP2 SLOAD DUP2 PUSH20 0xFFFFFFFFFFFFFFFFFFFFFFFFFFFFFFFFFFFFFFFF MUL NOT AND SWAP1 DUP4 PUSH20 0xFFFFFFFFFFFFFFFFFFFFFFFFFFFFFFFFFFFFFFFF AND MUL OR SWAP1 SSTORE POP PUSH1 0x6 PUSH0 CALLER PUSH20 0xFFFFFFFFFFFFFFFFFFFFFFFFFFFFFFFFFFFFFFFF AND PUSH20 0xFFFFFFFFFFFFFFFFFFFFFFFFFFFFFFFFFFFFFFFF AND DUP2 MSTORE PUSH1 0x20 ADD SWAP1 DUP2 MSTORE PUSH1 0x20 ADD PUSH0 KECCAK256 PUSH0 DUP2 SLOAD DUP1 SWAP3 SWAP2 SWAP1 PUSH2 0x5F0 SWAP1 PUSH2 0xE40 JUMP JUMPDEST SWAP2 SWAP1 POP SSTORE POP PUSH32 0x65F2DDD4E3569295C9524EE05F933E861D64D7D0A245CE2E4B55AEAB7011E2BD DUP2 DUP5 DUP5 PUSH1 0x40 MLOAD PUSH2 0x628 SWAP4 SWAP3 SWAP2 SWAP1 PUSH2 0xE87 JUMP JUMPDEST PUSH1 0x40 MLOAD DUP1 SWAP2 SUB SWAP1 LOG1 POP POP POP JUMP JUMPDEST PUSH2 0x63D PUSH2 0xEC3 JUMP JUMPDEST JUMP JUMPDEST PUSH0 PUSH1 0x40 MLOAD SWAP1 POP SWAP1 JUMP JUMPDEST PUSH0 DUP1 REVERT JUMPDEST PUSH0 DUP1 REVERT JUMPDEST PUSH0 DUP2 SWAP1 POP SWAP2 SWAP1 POP JUMP JUMPDEST PUSH2 0x662 DUP2 PUSH2 0x650 JUMP JUMPDEST DUP2 EQ PUSH2 0x66C JUMPI PUSH0 DUP1 REVERT JUMPDEST POP JUMP JUMPDEST PUSH0 DUP2 CALLDATALOAD SWAP1 POP PUSH2 0x67D DUP2 PUSH2 0x659 JUMP JUMPDEST SWAP3 SWAP2 POP POP JUMP JUMPDEST PUSH0 PUSH1 0x20 DUP3 DUP5 SUB SLT ISZERO PUSH2 0x698 JUMPI PUSH2 0x697 PUSH2 0x648 JUMP JUMPDEST JUMPDEST PUSH0 PUSH2 0x6A5 DUP5 DUP3 DUP6 ADD PUSH2 0x66F JUMP JUMPDEST SWAP2 POP POP SWAP3 SWAP2 POP POP JUMP JUMPDEST PUSH0 PUSH20 0xFFFFFFFFFFFFFFFFFFFFFFFFFFFFFFFFFFFFFFFF DUP3 AND SWAP1 POP SWAP2 SWAP1 POP JUMP JUMPDEST PUSH0 PUSH2 0x6D7 DUP3 PUSH2 0x6AE JUMP JUMPDEST SWAP1 POP SWAP2 SWAP1 POP JUMP JUMPDEST PUSH2 0x6E7 DUP2 PUSH2 0x6CD JUMP JUMPDEST DUP3 MSTORE POP POP JUMP JUMPDEST PUSH0 PUSH1 0x20 DUP3 ADD SWAP1 POP PUSH2 0x700 PUSH0 DUP4 ADD DUP5 PUSH2 0x6DE JUMP JUMPDEST SWAP3 SWAP2 POP POP JUMP JUMPDEST PUSH0 DUP2 MLOAD SWAP1 POP SWAP2 SWAP1 POP JUMP JUMPDEST PUSH0 DUP3 DUP3 MSTORE PUSH1 0x20 DUP3 ADD SWAP1 POP SWAP3 SWAP2 POP POP JUMP JUMPDEST PUSH0 JUMPDEST DUP4 DUP2 LT ISZERO PUSH2 0x73D JUMPI DUP1 DUP3 ADD MLOAD DUP2 DUP5 ADD MSTORE PUSH1 0x20 DUP2 ADD SWAP1 POP PUSH2 0x722 JUMP JUMPDEST PUSH0 DUP5 DUP5 ADD MSTORE POP POP POP POP JUMP JUMPDEST PUSH0 PUSH1 0x1F NOT PUSH1 0x1F DUP4 ADD AND SWAP1 POP SWAP2 SWAP1 POP JUMP JUMPDEST PUSH0 PUSH2 0x762 DUP3 PUSH2 0x706 JUMP JUMPDEST PUSH2 0x76C DUP2 DUP6 PUSH2 0x710 JUMP JUMPDEST SWAP4 POP PUSH2 0x77C DUP2 DUP6 PUSH1 0x20 DUP7 ADD PUSH2 0x720 JUMP JUMPDEST PUSH2 0x785 DUP2 PUSH2 0x748 JUMP JUMPDEST DUP5 ADD SWAP2 POP POP SWAP3 SWAP2 POP POP JUMP JUMPDEST PUSH2 0x799 DUP2 PUSH2 0x650 JUMP JUMPDEST DUP3 MSTORE POP POP JUMP JUMPDEST PUSH0 PUSH4 0xFFFFFFFF DUP3 AND SWAP1 POP SWAP2 SWAP1 POP JUMP JUMPDEST PUSH2 0x7B7 DUP2 PUSH2 0x79F JUMP JUMPDEST DUP3 MSTORE POP POP JUMP JUMPDEST PUSH0 PUSH1 0x80 DUP3 ADD SWAP1 POP DUP2 DUP2 SUB PUSH0 DUP4 ADD MSTORE PUSH2 0x7D5 DUP2 DUP8 PUSH2 0x758 JUMP JUMPDEST SWAP1 POP PUSH2 0x7E4 PUSH1 0x20 DUP4 ADD DUP7 PUSH2 0x790 JUMP JUMPDEST PUSH2 0x7F1 PUSH1 0x40 DUP4 ADD DUP6 PUSH2 0x7AE JUMP JUMPDEST PUSH2 0x7FE PUSH1 0x60 DUP4 ADD DUP5 PUSH2 0x7AE JUMP JUMPDEST SWAP6 SWAP5 POP POP POP POP POP JUMP JUMPDEST PUSH2 0x810 DUP2 PUSH2 0x6CD JUMP JUMPDEST DUP2 EQ PUSH2 0x81A JUMPI PUSH0 DUP1 REVERT JUMPDEST POP JUMP JUMPDEST PUSH0 DUP2 CALLDATALOAD SWAP1 POP PUSH2 0x82B DUP2 PUSH2 0x807 JUMP JUMPDEST SWAP3 SWAP2 POP POP JUMP JUMPDEST PUSH0 PUSH1 0x20 DUP3 DUP5 SUB SLT ISZERO PUSH2 0x846 JUMPI PUSH2 0x845 PUSH2 0x648 JUMP JUMPDEST JUMPDEST PUSH0 PUSH2 0x853 DUP5 DUP3 DUP6 ADD PUSH2 0x81D JUMP JUMPDEST SWAP2 POP POP SWAP3 SWAP2 POP POP JUMP JUMPDEST PUSH0 DUP1 REVERT JUMPDEST PUSH0 DUP1 REVERT JUMPDEST PUSH32 0x4E487B7100000000000000000000000000000000000000000000000000000000 PUSH0 MSTORE PUSH1 0x41 PUSH1 0x4 MSTORE PUSH1 0x24 PUSH0 REVERT JUMPDEST PUSH2 0x89A DUP3 PUSH2 0x748 JUMP JUMPDEST DUP2 ADD DUP2 DUP2 LT PUSH8 0xFFFFFFFFFFFFFFFF DUP3 GT OR ISZERO PUSH2 0x8B9 JUMPI PUSH2 0x8B8 PUSH2 0x864 JUMP JUMPDEST JUMPDEST DUP1 PUSH1 0x40 MSTORE POP POP POP JUMP JUMPDEST PUSH0 PUSH2 0x8CB PUSH2 0x63F JUMP JUMPDEST SWAP1 POP PUSH2 0x8D7 DUP3 DUP3 PUSH2 0x891 JUMP JUMPDEST SWAP2 SWAP1 POP JUMP JUMPDEST PUSH0 PUSH8 0xFFFFFFFFFFFFFFFF DUP3 GT ISZERO PUSH2 0x8F6 JUMPI PUSH2 0x8F5 PUSH2 0x864 JUMP JUMPDEST JUMPDEST PUSH2 0x8FF DUP3 PUSH2 0x748 JUMP JUMPDEST SWAP1 POP PUSH1 0x20 DUP2 ADD SWAP1 POP SWAP2 SWAP1 POP JUMP JUMPDEST DUP3 DUP2 DUP4 CALLDATACOPY PUSH0 DUP4 DUP4 ADD MSTORE POP POP POP JUMP JUMPDEST PUSH0 PUSH2 0x92C PUSH2 0x927 DUP5 PUSH2 0x8DC JUMP JUMPDEST PUSH2 0x8C2 JUMP JUMPDEST SWAP1 POP DUP3 DUP2 MSTORE PUSH1 0x20 DUP2 ADD DUP5 DUP5 DUP5 ADD GT ISZERO PUSH2 0x948 JUMPI PUSH2 0x947 PUSH2 0x860 JUMP JUMPDEST JUMPDEST PUSH2 0x953 DUP5 DUP3 DUP6 PUSH2 0x90C JUMP JUMPDEST POP SWAP4 SWAP3 POP POP POP JUMP JUMPDEST PUSH0 DUP3 PUSH1 0x1F DUP4 ADD SLT PUSH2 0x96F JUMPI PUSH2 0x96E PUSH2 0x85C JUMP JUMPDEST JUMPDEST DUP2 CALLDATALOAD PUSH2 0x97F DUP5 DUP3 PUSH1 0x20 DUP7 ADD PUSH2 0x91A JUMP JUMPDEST SWAP2 POP POP SWAP3 SWAP2 POP POP JUMP JUMPDEST PUSH0 PUSH1 0x20 DUP3 DUP5 SUB SLT ISZERO PUSH2 0x99D JUMPI PUSH2 0x99C PUSH2 0x648 JUMP JUMPDEST JUMPDEST PUSH0 DUP3 ADD CALLDATALOAD PUSH8 0xFFFFFFFFFFFFFFFF DUP2 GT ISZERO PUSH2 0x9BA JUMPI PUSH2 0x9B9 PUSH2 0x64C JUMP JUMPDEST JUMPDEST PUSH2 0x9C6 DUP5 DUP3 DUP6 ADD PUSH2 0x95B JUMP JUMPDEST SWAP2 POP POP SWAP3 SWAP2 POP POP JUMP JUMPDEST PUSH32 0x4E487B7100000000000000000000000000000000000000000000000000000000 PUSH0 MSTORE PUSH1 0x22 PUSH1 0x4 MSTORE PUSH1 0x24 PUSH0 REVERT JUMPDEST PUSH0 PUSH1 0x2 DUP3 DIV SWAP1 POP PUSH1 0x1 DUP3 AND DUP1 PUSH2 0xA13 JUMPI PUSH1 0x7F DUP3 AND SWAP2 POP JUMPDEST PUSH1 0x20 DUP3 LT DUP2 SUB PUSH2 0xA26 JUMPI PUSH2 0xA25 PUSH2 0x9CF JUMP JUMPDEST JUMPDEST POP SWAP2 SWAP1 POP JUMP JUMPDEST PUSH32 0x43616C6C6572206973206E6F74206F776E657200000000000000000000000000 PUSH0 DUP3 ADD MSTORE POP JUMP JUMPDEST PUSH0 PUSH2 0xA60 PUSH1 0x13 DUP4 PUSH2 0x710 JUMP JUMPDEST SWAP2 POP PUSH2 0xA6B DUP3 PUSH2 0xA2C JUMP JUMPDEST PUSH1 0x20 DUP3 ADD SWAP1 POP SWAP2 SWAP1 POP JUMP JUMPDEST PUSH0 PUSH1 0x20 DUP3 ADD SWAP1 POP DUP2 DUP2 SUB PUSH0 DUP4 ADD MSTORE PUSH2 0xA8D DUP2 PUSH2 0xA54 JUMP JUMPDEST SWAP1 POP SWAP2 SWAP1 POP JUMP JUMPDEST PUSH32 0x4E487B7100000000000000000000000000000000000000000000000000000000 PUSH0 MSTORE PUSH1 0x12 PUSH1 0x4 MSTORE PUSH1 0x24 PUSH0 REVERT JUMPDEST PUSH0 PUSH2 0xACB DUP3 PUSH2 0x650 JUMP JUMPDEST SWAP2 POP PUSH2 0xAD6 DUP4 PUSH2 0x650 JUMP JUMPDEST SWAP3 POP DUP3 PUSH2 0xAE6 JUMPI PUSH2 0xAE5 PUSH2 0xA94 JUMP JUMPDEST JUMPDEST DUP3 DUP3 MOD SWAP1 POP SWAP3 SWAP2 POP POP JUMP JUMPDEST PUSH32 0x4E487B7100000000000000000000000000000000000000000000000000000000 PUSH0 MSTORE PUSH1 0x11 PUSH1 0x4 MSTORE PUSH1 0x24 PUSH0 REVERT JUMPDEST PUSH0 PUSH2 0xB28 DUP3 PUSH2 0x650 JUMP JUMPDEST SWAP2 POP PUSH2 0xB33 DUP4 PUSH2 0x650 JUMP JUMPDEST SWAP3 POP DUP3 DUP3 SUB SWAP1 POP DUP2 DUP2 GT ISZERO PUSH2 0xB4B JUMPI PUSH2 0xB4A PUSH2 0xAF1 JUMP JUMPDEST JUMPDEST SWAP3 SWAP2 POP POP JUMP JUMPDEST PUSH0 DUP2 SWAP1 POP SWAP3 SWAP2 POP POP JUMP JUMPDEST PUSH0 PUSH2 0xB65 DUP3 PUSH2 0x706 JUMP JUMPDEST PUSH2 0xB6F DUP2 DUP6 PUSH2 0xB51 JUMP JUMPDEST SWAP4 POP PUSH2 0xB7F DUP2 DUP6 PUSH1 0x20 DUP7 ADD PUSH2 0x720 JUMP JUMPDEST DUP1 DUP5 ADD SWAP2 POP POP SWAP3 SWAP2 POP POP JUMP JUMPDEST PUSH0 PUSH2 0xB96 DUP3 DUP5 PUSH2 0xB5B JUMP JUMPDEST SWAP2 POP DUP2 SWAP1 POP SWAP3 SWAP2 POP POP JUMP JUMPDEST PUSH0 PUSH2 0xBAB DUP3 PUSH2 0x650 JUMP JUMPDEST SWAP2 POP PUSH2 0xBB6 DUP4 PUSH2 0x650 JUMP JUMPDEST SWAP3 POP DUP3 DUP3 ADD SWAP1 POP DUP1 DUP3 GT ISZERO PUSH2 0xBCE JUMPI PUSH2 0xBCD PUSH2 0xAF1 JUMP JUMPDEST JUMPDEST SWAP3 SWAP2 POP POP JUMP JUMPDEST PUSH0 DUP2 SWAP1 POP DUP2 PUSH0 MSTORE PUSH1 0x20 PUSH0 KECCAK256 SWAP1 POP SWAP2 SWAP1 POP JUMP JUMPDEST PUSH0 PUSH1 0x20 PUSH1 0x1F DUP4 ADD DIV SWAP1 POP SWAP2 SWAP1 POP JUMP JUMPDEST PUSH0 DUP3 DUP3 SHL SWAP1 POP SWAP3 SWAP2 POP POP JUMP JUMPDEST PUSH0 PUSH1 0x8 DUP4 MUL PUSH2 0xC30 PUSH32 0xFFFFFFFFFFFFFFFFFFFFFFFFFFFFFFFFFFFFFFFFFFFFFFFFFFFFFFFFFFFFFFFF DUP3 PUSH2 0xBF5 JUMP JUMPDEST PUSH2 0xC3A DUP7 DUP4 PUSH2 0xBF5 JUMP JUMPDEST SWAP6 POP DUP1 NOT DUP5 AND SWAP4 POP DUP1 DUP7 AND DUP5 OR SWAP3 POP POP POP SWAP4 SWAP3 POP POP POP JUMP JUMPDEST PUSH0 DUP2 SWAP1 POP SWAP2 SWAP1 POP JUMP JUMPDEST PUSH0 PUSH2 0xC75 PUSH2 0xC70 PUSH2 0xC6B DUP5 PUSH2 0x650 JUMP JUMPDEST PUSH2 0xC52 JUMP JUMPDEST PUSH2 0x650 JUMP JUMPDEST SWAP1 POP SWAP2 SWAP1 POP JUMP JUMPDEST PUSH0 DUP2 SWAP1 POP SWAP2 SWAP1 POP JUMP JUMPDEST PUSH2 0xC8E DUP4 PUSH2 0xC5B JUMP JUMPDEST PUSH2 0xCA2 PUSH2 0xC9A DUP3 PUSH2 0xC7C JUMP JUMPDEST DUP5 DUP5 SLOAD PUSH2 0xC01 JUMP JUMPDEST DUP3 SSTORE POP POP POP POP JUMP JUMPDEST PUSH0 SWAP1 JUMP JUMPDEST PUSH2 0xCB6 PUSH2 0xCAA JUMP JUMPDEST PUSH2 0xCC1 DUP2 DUP5 DUP5 PUSH2 0xC85 JUMP JUMPDEST POP POP POP JUMP JUMPDEST JUMPDEST DUP2 DUP2 LT ISZERO PUSH2 0xCE4 JUMPI PUSH2 0xCD9 PUSH0 DUP3 PUSH2 0xCAE JUMP JUMPDEST PUSH1 0x1 DUP2 ADD SWAP1 POP PUSH2 0xCC7 JUMP JUMPDEST POP POP JUMP JUMPDEST PUSH1 0x1F DUP3 GT ISZERO PUSH2 0xD29 JUMPI PUSH2 0xCFA DUP2 PUSH2 0xBD4 JUMP JUMPDEST PUSH2 0xD03 DUP5 PUSH2 0xBE6 JUMP JUMPDEST DUP2 ADD PUSH1 0x20 DUP6 LT ISZERO PUSH2 0xD12 JUMPI DUP2 SWAP1 POP JUMPDEST PUSH2 0xD26 PUSH2 0xD1E DUP6 PUSH2 0xBE6 JUMP JUMPDEST DUP4 ADD DUP3 PUSH2 0xCC6 JUMP JUMPDEST POP POP JUMPDEST POP POP POP JUMP JUMPDEST PUSH0 DUP3 DUP3 SHR SWAP1 POP SWAP3 SWAP2 POP POP JUMP JUMPDEST PUSH0 PUSH2 0xD49 PUSH0 NOT DUP5 PUSH1 0x8 MUL PUSH2 0xD2E JUMP JUMPDEST NOT DUP1 DUP4 AND SWAP2 POP POP SWAP3 SWAP2 POP POP JUMP JUMPDEST PUSH0 PUSH2 0xD61 DUP4 DUP4 PUSH2 0xD3A JUMP JUMPDEST SWAP2 POP DUP3 PUSH1 0x2 MUL DUP3 OR SWAP1 POP SWAP3 SWAP2 POP POP JUMP JUMPDEST PUSH2 0xD7A DUP3 PUSH2 0x706 JUMP JUMPDEST PUSH8 0xFFFFFFFFFFFFFFFF DUP2 GT ISZERO PUSH2 0xD93 JUMPI PUSH2 0xD92 PUSH2 0x864 JUMP JUMPDEST JUMPDEST PUSH2 0xD9D DUP3 SLOAD PUSH2 0x9FC JUMP JUMPDEST PUSH2 0xDA8 DUP3 DUP3 DUP6 PUSH2 0xCE8 JUMP JUMPDEST PUSH0 PUSH1 0x20 SWAP1 POP PUSH1 0x1F DUP4 GT PUSH1 0x1 DUP2 EQ PUSH2 0xDD9 JUMPI PUSH0 DUP5 ISZERO PUSH2 0xDC7 JUMPI DUP3 DUP8 ADD MLOAD SWAP1 POP JUMPDEST PUSH2 0xDD1 DUP6 DUP3 PUSH2 0xD56 JUMP JUMPDEST DUP7 SSTORE POP PUSH2 0xE38 JUMP JUMPDEST PUSH1 0x1F NOT DUP5 AND PUSH2 0xDE7 DUP7 PUSH2 0xBD4 JUMP JUMPDEST PUSH0 JUMPDEST DUP3 DUP2 LT ISZERO PUSH2 0xE0E JUMPI DUP5 DUP10 ADD MLOAD DUP3 SSTORE PUSH1 0x1 DUP3 ADD SWAP2 POP PUSH1 0x20 DUP6 ADD SWAP5 POP PUSH1 0x20 DUP2 ADD SWAP1 POP PUSH2 0xDE9 JUMP JUMPDEST DUP7 DUP4 LT ISZERO PUSH2 0xE2B JUMPI DUP5 DUP10 ADD MLOAD PUSH2 0xE27 PUSH1 0x1F DUP10 AND DUP3 PUSH2 0xD3A JUMP JUMPDEST DUP4 SSTORE POP JUMPDEST PUSH1 0x1 PUSH1 0x2 DUP9 MUL ADD DUP9 SSTORE POP POP POP JUMPDEST POP POP POP POP POP POP JUMP JUMPDEST PUSH0 PUSH2 0xE4A DUP3 PUSH2 0x650 JUMP JUMPDEST SWAP2 POP PUSH32 0xFFFFFFFFFFFFFFFFFFFFFFFFFFFFFFFFFFFFFFFFFFFFFFFFFFFFFFFFFFFFFFFF DUP3 SUB PUSH2 0xE7C JUMPI PUSH2 0xE7B PUSH2 0xAF1 JUMP JUMPDEST JUMPDEST PUSH1 0x1 DUP3 ADD SWAP1 POP SWAP2 SWAP1 POP JUMP JUMPDEST PUSH0 PUSH1 0x60 DUP3 ADD SWAP1 POP PUSH2 0xE9A PUSH0 DUP4 ADD DUP7 PUSH2 0x790 JUMP JUMPDEST DUP2 DUP2 SUB PUSH1 0x20 DUP4 ADD MSTORE PUSH2 0xEAC DUP2 DUP6 PUSH2 0x758 JUMP JUMPDEST SWAP1 POP PUSH2 0xEBB PUSH1 0x40 DUP4 ADD DUP5 PUSH2 0x790 JUMP JUMPDEST SWAP5 SWAP4 POP POP POP POP JUMP JUMPDEST PUSH32 0x4E487B7100000000000000000000000000000000000000000000000000000000 PUSH0 MSTORE PUSH1 0x51 PUSH1 0x4 MSTORE PUSH1 0x24 PUSH0 REVERT INVALID LOG2 PUSH5 0x6970667358 0x22 SLT KECCAK256 DIV XOR CODECOPY 0xF SWAP4 0xCC 0x2D 0xBF ADDRESS PUSH5 0xD4FC333232 0x49 SDIV 0x5C PUSH32 0x5469E42737D6550EE9223B4D7B64736F6C634300081600330000000000000000 "
		},
		"gasEstimates": {
			"creation": {
				"codeDepositCost": "775600",
				"executionCost": "infinite",
				"totalCost": "infinite"
			},
			"external": {
				"changeOwner(address)": "30602",
				"createRandomQuestion(string)": "infinite",
				"getOwner()": "2537",
				"questionToOwner(uint256)": "2805",
				"questions(uint256)": "infinite"
			},
			"internal": {
				"_createQuestion(string memory,uint256)": "infinite",
				"_generateRandomDna(string memory)": "infinite"
			}
		},
		"methodIdentifiers": {
			"changeOwner(address)": "a6f9dae1",
			"createRandomQuestion(string)": "c9e3203d",
			"getOwner()": "893d20e8",
			"questionToOwner(uint256)": "1ebe0a51",
			"questions(uint256)": "31b1b978"
		}
	},
	"abi": [
		{
			"anonymous": false,
			"inputs": [
				{
					"indexed": false,
					"internalType": "uint256",
					"name": "questionId",
					"type": "uint256"
				},
				{
					"indexed": false,
					"internalType": "string",
					"name": "name",
					"type": "string"
				},
				{
					"indexed": false,
					"internalType": "uint256",
					"name": "dna",
					"type": "uint256"
				}
			],
			"name": "NewQuestion",
			"type": "event"
		},
		{
			"anonymous": false,
			"inputs": [
				{
					"indexed": true,
					"internalType": "address",
					"name": "oldOwner",
					"type": "address"
				},
				{
					"indexed": true,
					"internalType": "address",
					"name": "newOwner",
					"type": "address"
				}
			],
			"name": "OwnerSet",
			"type": "event"
		},
		{
			"inputs": [
				{
					"internalType": "address",
					"name": "newOwner",
					"type": "address"
				}
			],
			"name": "changeOwner",
			"outputs": [],
			"stateMutability": "nonpayable",
			"type": "function"
		},
		{
			"inputs": [
				{
					"internalType": "string",
					"name": "_name",
					"type": "string"
				}
			],
			"name": "createRandomQuestion",
			"outputs": [],
			"stateMutability": "nonpayable",
			"type": "function"
		},
		{
			"inputs": [],
			"name": "getOwner",
			"outputs": [
				{
					"internalType": "address",
					"name": "",
					"type": "address"
				}
			],
			"stateMutability": "view",
			"type": "function"
		},
		{
			"inputs": [
				{
					"internalType": "uint256",
					"name": "",
					"type": "uint256"
				}
			],
			"name": "questionToOwner",
			"outputs": [
				{
					"internalType": "address",
					"name": "",
					"type": "address"
				}
			],
			"stateMutability": "view",
			"type": "function"
		},
		{
			"inputs": [
				{
					"internalType": "uint256",
					"name": "",
					"type": "uint256"
				}
			],
			"name": "questions",
			"outputs": [
				{
					"internalType": "string",
					"name": "name",
					"type": "string"
				},
				{
					"internalType": "uint256",
					"name": "dna",
					"type": "uint256"
				},
				{
					"internalType": "uint32",
					"name": "level",
					"type": "uint32"
				},
				{
					"internalType": "uint32",
					"name": "readyTime",
					"type": "uint32"
				}
			],
			"stateMutability": "view",
			"type": "function"
		}
	]
}