{
	"data": {
		"bytecode": {
			"linkReferences": {},
			"object": "608060405234801561000f575f80fd5b506100556040518060400160405280601b81526020017f4f776e657220636f6e7472616374206465706c6f7965642062793a0000000000815250336101b860201b60201c565b335f806101000a81548173ffffffffffffffffffffffffffffffffffffffff021916908373ffffffffffffffffffffffffffffffffffffffff1602179055505f8054906101000a900473ffffffffffffffffffffffffffffffffffffffff1673ffffffffffffffffffffffffffffffffffffffff165f73ffffffffffffffffffffffffffffffffffffffff167f342827c97908e5e2f71151c08502a66d44b6f758e3ac2f1de95f02eb95f0a73560405160405180910390a33360025f6101000a81548173ffffffffffffffffffffffffffffffffffffffff021916908373ffffffffffffffffffffffffffffffffffffffff160217905550600160035f60025f9054906101000a900473ffffffffffffffffffffffffffffffffffffffff1673ffffffffffffffffffffffffffffffffffffffff1673ffffffffffffffffffffffffffffffffffffffff1681526020019081526020015f205f01819055506103dd565b61025682826040516024016101ce929190610382565b6040516020818303038152906040527f319af333000000000000000000000000000000000000000000000000000000007bffffffffffffffffffffffffffffffffffffffffffffffffffffffff19166020820180517bffffffffffffffffffffffffffffffffffffffffffffffffffffffff838183161783525050505061025a60201b60201c565b5050565b61027b8161027661027e60201b6103b01761029d60201b60201c565b60201c565b50565b5f6a636f6e736f6c652e6c6f6790505f80835160208501845afa505050565b6102af60201b6103cf17819050919050565b6102b76103b0565b565b5f81519050919050565b5f82825260208201905092915050565b5f5b838110156102f05780820151818401526020810190506102d5565b5f8484015250505050565b5f601f19601f8301169050919050565b5f610315826102b9565b61031f81856102c3565b935061032f8185602086016102d3565b610338816102fb565b840191505092915050565b5f73ffffffffffffffffffffffffffffffffffffffff82169050919050565b5f61036c82610343565b9050919050565b61037c81610362565b82525050565b5f6040820190508181035f83015261039a818561030b565b90506103a96020830184610373565b9392505050565b7f4e487b71000000000000000000000000000000000000000000000000000000005f52605160045260245ffd5b61075080620003eb5f395ff3fe608060405234801561000f575f80fd5b5060043610610055575f3560e01c806331b1b978146100595780635af82abf1461008c578063893d20e8146100aa578063a3ec138d146100c8578063a6f9dae1146100fb575b5f80fd5b610073600480360381019061006e9190610410565b610117565b60405161008394939291906104ee565b60405180910390f35b6100946101e4565b6040516100a19190610577565b60405180910390f35b6100b2610209565b6040516100bf9190610577565b60405180910390f35b6100e260048036038101906100dd91906105ba565b610230565b6040516100f294939291906105e5565b60405180910390f35b610115600480360381019061011091906105ba565b610268565b005b60018181548110610126575f80fd5b905f5260205f2090600402015f91509050805f01805461014590610655565b80601f016020809104026020016040519081016040528092919081815260200182805461017190610655565b80156101bc5780601f10610193576101008083540402835291602001916101bc565b820191905f5260205f20905b81548152906001019060200180831161019f57829003601f168201915b505050505090806001015490806002015490806003015f9054906101000a900460ff16905084565b60025f9054906101000a900473ffffffffffffffffffffffffffffffffffffffff1681565b5f805f9054906101000a900473ffffffffffffffffffffffffffffffffffffffff16905090565b6003602052805f5260405f205f91509050805f015490806001015f9054906101000a900460ff16908060020154908060030154905084565b5f8054906101000a900473ffffffffffffffffffffffffffffffffffffffff1673ffffffffffffffffffffffffffffffffffffffff163373ffffffffffffffffffffffffffffffffffffffff16146102f5576040517f08c379a00000000000000000000000000000000000000000000000000000000081526004016102ec906106cf565b60405180910390fd5b8073ffffffffffffffffffffffffffffffffffffffff165f8054906101000a900473ffffffffffffffffffffffffffffffffffffffff1673ffffffffffffffffffffffffffffffffffffffff167f342827c97908e5e2f71151c08502a66d44b6f758e3ac2f1de95f02eb95f0a73560405160405180910390a3805f806101000a81548173ffffffffffffffffffffffffffffffffffffffff021916908373ffffffffffffffffffffffffffffffffffffffff16021790555050565b5f6a636f6e736f6c652e6c6f6790505f80835160208501845afa505050565b6103d76106ed565b565b5f80fd5b5f819050919050565b6103ef816103dd565b81146103f9575f80fd5b50565b5f8135905061040a816103e6565b92915050565b5f60208284031215610425576104246103d9565b5b5f610432848285016103fc565b91505092915050565b5f81519050919050565b5f82825260208201905092915050565b5f5b83811015610472578082015181840152602081019050610457565b5f8484015250505050565b5f601f19601f8301169050919050565b5f6104978261043b565b6104a18185610445565b93506104b1818560208601610455565b6104ba8161047d565b840191505092915050565b6104ce816103dd565b82525050565b5f8115159050919050565b6104e8816104d4565b82525050565b5f6080820190508181035f830152610506818761048d565b905061051560208301866104c5565b61052260408301856104c5565b61052f60608301846104df565b95945050505050565b5f73ffffffffffffffffffffffffffffffffffffffff82169050919050565b5f61056182610538565b9050919050565b61057181610557565b82525050565b5f60208201905061058a5f830184610568565b92915050565b61059981610557565b81146105a3575f80fd5b50565b5f813590506105b481610590565b92915050565b5f602082840312156105cf576105ce6103d9565b5b5f6105dc848285016105a6565b91505092915050565b5f6080820190506105f85f8301876104c5565b61060560208301866104df565b61061260408301856104c5565b61061f60608301846104c5565b95945050505050565b7f4e487b71000000000000000000000000000000000000000000000000000000005f52602260045260245ffd5b5f600282049050600182168061066c57607f821691505b60208210810361067f5761067e610628565b5b50919050565b7f43616c6c6572206973206e6f74206f776e6572000000000000000000000000005f82015250565b5f6106b9601383610445565b91506106c482610685565b602082019050919050565b5f6020820190508181035f8301526106e6816106ad565b9050919050565b7f4e487b71000000000000000000000000000000000000000000000000000000005f52605160045260245ffdfea2646970667358221220a1b2b3c5a6eec5aa107d9f1f603d3e8baabe5bae42e4cf8d27d9324a4122d6c764736f6c63430008160033",
			"opcodes": "PUSH1 0x80 PUSH1 0x40 MSTORE CALLVALUE DUP1 ISZERO PUSH2 0xF JUMPI PUSH0 DUP1 REVERT JUMPDEST POP PUSH2 0x55 PUSH1 0x40 MLOAD DUP1 PUSH1 0x40 ADD PUSH1 0x40 MSTORE DUP1 PUSH1 0x1B DUP2 MSTORE PUSH1 0x20 ADD PUSH32 0x4F776E657220636F6E7472616374206465706C6F7965642062793A0000000000 DUP2 MSTORE POP CALLER PUSH2 0x1B8 PUSH1 0x20 SHL PUSH1 0x20 SHR JUMP JUMPDEST CALLER PUSH0 DUP1 PUSH2 0x100 EXP DUP2 SLOAD DUP2 PUSH20 0xFFFFFFFFFFFFFFFFFFFFFFFFFFFFFFFFFFFFFFFF MUL NOT AND SWAP1 DUP4 PUSH20 0xFFFFFFFFFFFFFFFFFFFFFFFFFFFFFFFFFFFFFFFF AND MUL OR SWAP1 SSTORE POP PUSH0 DUP1 SLOAD SWAP1 PUSH2 0x100 EXP SWAP1 DIV PUSH20 0xFFFFFFFFFFFFFFFFFFFFFFFFFFFFFFFFFFFFFFFF AND PUSH20 0xFFFFFFFFFFFFFFFFFFFFFFFFFFFFFFFFFFFFFFFF AND PUSH0 PUSH20 0xFFFFFFFFFFFFFFFFFFFFFFFFFFFFFFFFFFFFFFFF AND PUSH32 0x342827C97908E5E2F71151C08502A66D44B6F758E3AC2F1DE95F02EB95F0A735 PUSH1 0x40 MLOAD PUSH1 0x40 MLOAD DUP1 SWAP2 SUB SWAP1 LOG3 CALLER PUSH1 0x2 PUSH0 PUSH2 0x100 EXP DUP2 SLOAD DUP2 PUSH20 0xFFFFFFFFFFFFFFFFFFFFFFFFFFFFFFFFFFFFFFFF MUL NOT AND SWAP1 DUP4 PUSH20 0xFFFFFFFFFFFFFFFFFFFFFFFFFFFFFFFFFFFFFFFF AND MUL OR SWAP1 SSTORE POP PUSH1 0x1 PUSH1 0x3 PUSH0 PUSH1 0x2 PUSH0 SWAP1 SLOAD SWAP1 PUSH2 0x100 EXP SWAP1 DIV PUSH20 0xFFFFFFFFFFFFFFFFFFFFFFFFFFFFFFFFFFFFFFFF AND PUSH20 0xFFFFFFFFFFFFFFFFFFFFFFFFFFFFFFFFFFFFFFFF AND PUSH20 0xFFFFFFFFFFFFFFFFFFFFFFFFFFFFFFFFFFFFFFFF AND DUP2 MSTORE PUSH1 0x20 ADD SWAP1 DUP2 MSTORE PUSH1 0x20 ADD PUSH0 KECCAK256 PUSH0 ADD DUP2 SWAP1 SSTORE POP PUSH2 0x3DD JUMP JUMPDEST PUSH2 0x256 DUP3 DUP3 PUSH1 0x40 MLOAD PUSH1 0x24 ADD PUSH2 0x1CE SWAP3 SWAP2 SWAP1 PUSH2 0x382 JUMP JUMPDEST PUSH1 0x40 MLOAD PUSH1 0x20 DUP2 DUP4 SUB SUB DUP2 MSTORE SWAP1 PUSH1 0x40 MSTORE PUSH32 0x319AF33300000000000000000000000000000000000000000000000000000000 PUSH28 0xFFFFFFFFFFFFFFFFFFFFFFFFFFFFFFFFFFFFFFFFFFFFFFFFFFFFFFFF NOT AND PUSH1 0x20 DUP3 ADD DUP1 MLOAD PUSH28 0xFFFFFFFFFFFFFFFFFFFFFFFFFFFFFFFFFFFFFFFFFFFFFFFFFFFFFFFF DUP4 DUP2 DUP4 AND OR DUP4 MSTORE POP POP POP POP PUSH2 0x25A PUSH1 0x20 SHL PUSH1 0x20 SHR JUMP JUMPDEST POP POP JUMP JUMPDEST PUSH2 0x27B DUP2 PUSH2 0x276 PUSH2 0x27E PUSH1 0x20 SHL PUSH2 0x3B0 OR PUSH2 0x29D PUSH1 0x20 SHL PUSH1 0x20 SHR JUMP JUMPDEST PUSH1 0x20 SHR JUMP JUMPDEST POP JUMP JUMPDEST PUSH0 PUSH11 0x636F6E736F6C652E6C6F67 SWAP1 POP PUSH0 DUP1 DUP4 MLOAD PUSH1 0x20 DUP6 ADD DUP5 GAS STATICCALL POP POP POP JUMP JUMPDEST PUSH2 0x2AF PUSH1 0x20 SHL PUSH2 0x3CF OR DUP2 SWAP1 POP SWAP2 SWAP1 POP JUMP JUMPDEST PUSH2 0x2B7 PUSH2 0x3B0 JUMP JUMPDEST JUMP JUMPDEST PUSH0 DUP2 MLOAD SWAP1 POP SWAP2 SWAP1 POP JUMP JUMPDEST PUSH0 DUP3 DUP3 MSTORE PUSH1 0x20 DUP3 ADD SWAP1 POP SWAP3 SWAP2 POP POP JUMP JUMPDEST PUSH0 JUMPDEST DUP4 DUP2 LT ISZERO PUSH2 0x2F0 JUMPI DUP1 DUP3 ADD MLOAD DUP2 DUP5 ADD MSTORE PUSH1 0x20 DUP2 ADD SWAP1 POP PUSH2 0x2D5 JUMP JUMPDEST PUSH0 DUP5 DUP5 ADD MSTORE POP POP POP POP JUMP JUMPDEST PUSH0 PUSH1 0x1F NOT PUSH1 0x1F DUP4 ADD AND SWAP1 POP SWAP2 SWAP1 POP JUMP JUMPDEST PUSH0 PUSH2 0x315 DUP3 PUSH2 0x2B9 JUMP JUMPDEST PUSH2 0x31F DUP2 DUP6 PUSH2 0x2C3 JUMP JUMPDEST SWAP4 POP PUSH2 0x32F DUP2 DUP6 PUSH1 0x20 DUP7 ADD PUSH2 0x2D3 JUMP JUMPDEST PUSH2 0x338 DUP2 PUSH2 0x2FB JUMP JUMPDEST DUP5 ADD SWAP2 POP POP SWAP3 SWAP2 POP POP JUMP JUMPDEST PUSH0 PUSH20 0xFFFFFFFFFFFFFFFFFFFFFFFFFFFFFFFFFFFFFFFF DUP3 AND SWAP1 POP SWAP2 SWAP1 POP JUMP JUMPDEST PUSH0 PUSH2 0x36C DUP3 PUSH2 0x343 JUMP JUMPDEST SWAP1 POP SWAP2 SWAP1 POP JUMP JUMPDEST PUSH2 0x37C DUP2 PUSH2 0x362 JUMP JUMPDEST DUP3 MSTORE POP POP JUMP JUMPDEST PUSH0 PUSH1 0x40 DUP3 ADD SWAP1 POP DUP2 DUP2 SUB PUSH0 DUP4 ADD MSTORE PUSH2 0x39A DUP2 DUP6 PUSH2 0x30B JUMP JUMPDEST SWAP1 POP PUSH2 0x3A9 PUSH1 0x20 DUP4 ADD DUP5 PUSH2 0x373 JUMP JUMPDEST SWAP4 SWAP3 POP POP POP JUMP JUMPDEST PUSH32 0x4E487B7100000000000000000000000000000000000000000000000000000000 PUSH0 MSTORE PUSH1 0x51 PUSH1 0x4 MSTORE PUSH1 0x24 PUSH0 REVERT JUMPDEST PUSH2 0x750 DUP1 PUSH3 0x3EB PUSH0 CODECOPY PUSH0 RETURN INVALID PUSH1 0x80 PUSH1 0x40 MSTORE CALLVALUE DUP1 ISZERO PUSH2 0xF JUMPI PUSH0 DUP1 REVERT JUMPDEST POP PUSH1 0x4 CALLDATASIZE LT PUSH2 0x55 JUMPI PUSH0 CALLDATALOAD PUSH1 0xE0 SHR DUP1 PUSH4 0x31B1B978 EQ PUSH2 0x59 JUMPI DUP1 PUSH4 0x5AF82ABF EQ PUSH2 0x8C JUMPI DUP1 PUSH4 0x893D20E8 EQ PUSH2 0xAA JUMPI DUP1 PUSH4 0xA3EC138D EQ PUSH2 0xC8 JUMPI DUP1 PUSH4 0xA6F9DAE1 EQ PUSH2 0xFB JUMPI JUMPDEST PUSH0 DUP1 REVERT JUMPDEST PUSH2 0x73 PUSH1 0x4 DUP1 CALLDATASIZE SUB DUP2 ADD SWAP1 PUSH2 0x6E SWAP2 SWAP1 PUSH2 0x410 JUMP JUMPDEST PUSH2 0x117 JUMP JUMPDEST PUSH1 0x40 MLOAD PUSH2 0x83 SWAP5 SWAP4 SWAP3 SWAP2 SWAP1 PUSH2 0x4EE JUMP JUMPDEST PUSH1 0x40 MLOAD DUP1 SWAP2 SUB SWAP1 RETURN JUMPDEST PUSH2 0x94 PUSH2 0x1E4 JUMP JUMPDEST PUSH1 0x40 MLOAD PUSH2 0xA1 SWAP2 SWAP1 PUSH2 0x577 JUMP JUMPDEST PUSH1 0x40 MLOAD DUP1 SWAP2 SUB SWAP1 RETURN JUMPDEST PUSH2 0xB2 PUSH2 0x209 JUMP JUMPDEST PUSH1 0x40 MLOAD PUSH2 0xBF SWAP2 SWAP1 PUSH2 0x577 JUMP JUMPDEST PUSH1 0x40 MLOAD DUP1 SWAP2 SUB SWAP1 RETURN JUMPDEST PUSH2 0xE2 PUSH1 0x4 DUP1 CALLDATASIZE SUB DUP2 ADD SWAP1 PUSH2 0xDD SWAP2 SWAP1 PUSH2 0x5BA JUMP JUMPDEST PUSH2 0x230 JUMP JUMPDEST PUSH1 0x40 MLOAD PUSH2 0xF2 SWAP5 SWAP4 SWAP3 SWAP2 SWAP1 PUSH2 0x5E5 JUMP JUMPDEST PUSH1 0x40 MLOAD DUP1 SWAP2 SUB SWAP1 RETURN JUMPDEST PUSH2 0x115 PUSH1 0x4 DUP1 CALLDATASIZE SUB DUP2 ADD SWAP1 PUSH2 0x110 SWAP2 SWAP1 PUSH2 0x5BA JUMP JUMPDEST PUSH2 0x268 JUMP JUMPDEST STOP JUMPDEST PUSH1 0x1 DUP2 DUP2 SLOAD DUP2 LT PUSH2 0x126 JUMPI PUSH0 DUP1 REVERT JUMPDEST SWAP1 PUSH0 MSTORE PUSH1 0x20 PUSH0 KECCAK256 SWAP1 PUSH1 0x4 MUL ADD PUSH0 SWAP2 POP SWAP1 POP DUP1 PUSH0 ADD DUP1 SLOAD PUSH2 0x145 SWAP1 PUSH2 0x655 JUMP JUMPDEST DUP1 PUSH1 0x1F ADD PUSH1 0x20 DUP1 SWAP2 DIV MUL PUSH1 0x20 ADD PUSH1 0x40 MLOAD SWAP1 DUP2 ADD PUSH1 0x40 MSTORE DUP1 SWAP3 SWAP2 SWAP1 DUP2 DUP2 MSTORE PUSH1 0x20 ADD DUP3 DUP1 SLOAD PUSH2 0x171 SWAP1 PUSH2 0x655 JUMP JUMPDEST DUP1 ISZERO PUSH2 0x1BC JUMPI DUP1 PUSH1 0x1F LT PUSH2 0x193 JUMPI PUSH2 0x100 DUP1 DUP4 SLOAD DIV MUL DUP4 MSTORE SWAP2 PUSH1 0x20 ADD SWAP2 PUSH2 0x1BC JUMP JUMPDEST DUP3 ADD SWAP2 SWAP1 PUSH0 MSTORE PUSH1 0x20 PUSH0 KECCAK256 SWAP1 JUMPDEST DUP2 SLOAD DUP2 MSTORE SWAP1 PUSH1 0x1 ADD SWAP1 PUSH1 0x20 ADD DUP1 DUP4 GT PUSH2 0x19F JUMPI DUP3 SWAP1 SUB PUSH1 0x1F AND DUP3 ADD SWAP2 JUMPDEST POP POP POP POP POP SWAP1 DUP1 PUSH1 0x1 ADD SLOAD SWAP1 DUP1 PUSH1 0x2 ADD SLOAD SWAP1 DUP1 PUSH1 0x3 ADD PUSH0 SWAP1 SLOAD SWAP1 PUSH2 0x100 EXP SWAP1 DIV PUSH1 0xFF AND SWAP1 POP DUP5 JUMP JUMPDEST PUSH1 0x2 PUSH0 SWAP1 SLOAD SWAP1 PUSH2 0x100 EXP SWAP1 DIV PUSH20 0xFFFFFFFFFFFFFFFFFFFFFFFFFFFFFFFFFFFFFFFF AND DUP2 JUMP JUMPDEST PUSH0 DUP1 PUSH0 SWAP1 SLOAD SWAP1 PUSH2 0x100 EXP SWAP1 DIV PUSH20 0xFFFFFFFFFFFFFFFFFFFFFFFFFFFFFFFFFFFFFFFF AND SWAP1 POP SWAP1 JUMP JUMPDEST PUSH1 0x3 PUSH1 0x20 MSTORE DUP1 PUSH0 MSTORE PUSH1 0x40 PUSH0 KECCAK256 PUSH0 SWAP2 POP SWAP1 POP DUP1 PUSH0 ADD SLOAD SWAP1 DUP1 PUSH1 0x1 ADD PUSH0 SWAP1 SLOAD SWAP1 PUSH2 0x100 EXP SWAP1 DIV PUSH1 0xFF AND SWAP1 DUP1 PUSH1 0x2 ADD SLOAD SWAP1 DUP1 PUSH1 0x3 ADD SLOAD SWAP1 POP DUP5 JUMP JUMPDEST PUSH0 DUP1 SLOAD SWAP1 PUSH2 0x100 EXP SWAP1 DIV PUSH20 0xFFFFFFFFFFFFFFFFFFFFFFFFFFFFFFFFFFFFFFFF AND PUSH20 0xFFFFFFFFFFFFFFFFFFFFFFFFFFFFFFFFFFFFFFFF AND CALLER PUSH20 0xFFFFFFFFFFFFFFFFFFFFFFFFFFFFFFFFFFFFFFFF AND EQ PUSH2 0x2F5 JUMPI PUSH1 0x40 MLOAD PUSH32 0x8C379A000000000000000000000000000000000000000000000000000000000 DUP2 MSTORE PUSH1 0x4 ADD PUSH2 0x2EC SWAP1 PUSH2 0x6CF JUMP JUMPDEST PUSH1 0x40 MLOAD DUP1 SWAP2 SUB SWAP1 REVERT JUMPDEST DUP1 PUSH20 0xFFFFFFFFFFFFFFFFFFFFFFFFFFFFFFFFFFFFFFFF AND PUSH0 DUP1 SLOAD SWAP1 PUSH2 0x100 EXP SWAP1 DIV PUSH20 0xFFFFFFFFFFFFFFFFFFFFFFFFFFFFFFFFFFFFFFFF AND PUSH20 0xFFFFFFFFFFFFFFFFFFFFFFFFFFFFFFFFFFFFFFFF AND PUSH32 0x342827C97908E5E2F71151C08502A66D44B6F758E3AC2F1DE95F02EB95F0A735 PUSH1 0x40 MLOAD PUSH1 0x40 MLOAD DUP1 SWAP2 SUB SWAP1 LOG3 DUP1 PUSH0 DUP1 PUSH2 0x100 EXP DUP2 SLOAD DUP2 PUSH20 0xFFFFFFFFFFFFFFFFFFFFFFFFFFFFFFFFFFFFFFFF MUL NOT AND SWAP1 DUP4 PUSH20 0xFFFFFFFFFFFFFFFFFFFFFFFFFFFFFFFFFFFFFFFF AND MUL OR SWAP1 SSTORE POP POP JUMP JUMPDEST PUSH0 PUSH11 0x636F6E736F6C652E6C6F67 SWAP1 POP PUSH0 DUP1 DUP4 MLOAD PUSH1 0x20 DUP6 ADD DUP5 GAS STATICCALL POP POP POP JUMP JUMPDEST PUSH2 0x3D7 PUSH2 0x6ED JUMP JUMPDEST JUMP JUMPDEST PUSH0 DUP1 REVERT JUMPDEST PUSH0 DUP2 SWAP1 POP SWAP2 SWAP1 POP JUMP JUMPDEST PUSH2 0x3EF DUP2 PUSH2 0x3DD JUMP JUMPDEST DUP2 EQ PUSH2 0x3F9 JUMPI PUSH0 DUP1 REVERT JUMPDEST POP JUMP JUMPDEST PUSH0 DUP2 CALLDATALOAD SWAP1 POP PUSH2 0x40A DUP2 PUSH2 0x3E6 JUMP JUMPDEST SWAP3 SWAP2 POP POP JUMP JUMPDEST PUSH0 PUSH1 0x20 DUP3 DUP5 SUB SLT ISZERO PUSH2 0x425 JUMPI PUSH2 0x424 PUSH2 0x3D9 JUMP JUMPDEST JUMPDEST PUSH0 PUSH2 0x432 DUP5 DUP3 DUP6 ADD PUSH2 0x3FC JUMP JUMPDEST SWAP2 POP POP SWAP3 SWAP2 POP POP JUMP JUMPDEST PUSH0 DUP2 MLOAD SWAP1 POP SWAP2 SWAP1 POP JUMP JUMPDEST PUSH0 DUP3 DUP3 MSTORE PUSH1 0x20 DUP3 ADD SWAP1 POP SWAP3 SWAP2 POP POP JUMP JUMPDEST PUSH0 JUMPDEST DUP4 DUP2 LT ISZERO PUSH2 0x472 JUMPI DUP1 DUP3 ADD MLOAD DUP2 DUP5 ADD MSTORE PUSH1 0x20 DUP2 ADD SWAP1 POP PUSH2 0x457 JUMP JUMPDEST PUSH0 DUP5 DUP5 ADD MSTORE POP POP POP POP JUMP JUMPDEST PUSH0 PUSH1 0x1F NOT PUSH1 0x1F DUP4 ADD AND SWAP1 POP SWAP2 SWAP1 POP JUMP JUMPDEST PUSH0 PUSH2 0x497 DUP3 PUSH2 0x43B JUMP JUMPDEST PUSH2 0x4A1 DUP2 DUP6 PUSH2 0x445 JUMP JUMPDEST SWAP4 POP PUSH2 0x4B1 DUP2 DUP6 PUSH1 0x20 DUP7 ADD PUSH2 0x455 JUMP JUMPDEST PUSH2 0x4BA DUP2 PUSH2 0x47D JUMP JUMPDEST DUP5 ADD SWAP2 POP POP SWAP3 SWAP2 POP POP JUMP JUMPDEST PUSH2 0x4CE DUP2 PUSH2 0x3DD JUMP JUMPDEST DUP3 MSTORE POP POP JUMP JUMPDEST PUSH0 DUP2 ISZERO ISZERO SWAP1 POP SWAP2 SWAP1 POP JUMP JUMPDEST PUSH2 0x4E8 DUP2 PUSH2 0x4D4 JUMP JUMPDEST DUP3 MSTORE POP POP JUMP JUMPDEST PUSH0 PUSH1 0x80 DUP3 ADD SWAP1 POP DUP2 DUP2 SUB PUSH0 DUP4 ADD MSTORE PUSH2 0x506 DUP2 DUP8 PUSH2 0x48D JUMP JUMPDEST SWAP1 POP PUSH2 0x515 PUSH1 0x20 DUP4 ADD DUP7 PUSH2 0x4C5 JUMP JUMPDEST PUSH2 0x522 PUSH1 0x40 DUP4 ADD DUP6 PUSH2 0x4C5 JUMP JUMPDEST PUSH2 0x52F PUSH1 0x60 DUP4 ADD DUP5 PUSH2 0x4DF JUMP JUMPDEST SWAP6 SWAP5 POP POP POP POP POP JUMP JUMPDEST PUSH0 PUSH20 0xFFFFFFFFFFFFFFFFFFFFFFFFFFFFFFFFFFFFFFFF DUP3 AND SWAP1 POP SWAP2 SWAP1 POP JUMP JUMPDEST PUSH0 PUSH2 0x561 DUP3 PUSH2 0x538 JUMP JUMPDEST SWAP1 POP SWAP2 SWAP1 POP JUMP JUMPDEST PUSH2 0x571 DUP2 PUSH2 0x557 JUMP JUMPDEST DUP3 MSTORE POP POP JUMP JUMPDEST PUSH0 PUSH1 0x20 DUP3 ADD SWAP1 POP PUSH2 0x58A PUSH0 DUP4 ADD DUP5 PUSH2 0x568 JUMP JUMPDEST SWAP3 SWAP2 POP POP JUMP JUMPDEST PUSH2 0x599 DUP2 PUSH2 0x557 JUMP JUMPDEST DUP2 EQ PUSH2 0x5A3 JUMPI PUSH0 DUP1 REVERT JUMPDEST POP JUMP JUMPDEST PUSH0 DUP2 CALLDATALOAD SWAP1 POP PUSH2 0x5B4 DUP2 PUSH2 0x590 JUMP JUMPDEST SWAP3 SWAP2 POP POP JUMP JUMPDEST PUSH0 PUSH1 0x20 DUP3 DUP5 SUB SLT ISZERO PUSH2 0x5CF JUMPI PUSH2 0x5CE PUSH2 0x3D9 JUMP JUMPDEST JUMPDEST PUSH0 PUSH2 0x5DC DUP5 DUP3 DUP6 ADD PUSH2 0x5A6 JUMP JUMPDEST SWAP2 POP POP SWAP3 SWAP2 POP POP JUMP JUMPDEST PUSH0 PUSH1 0x80 DUP3 ADD SWAP1 POP PUSH2 0x5F8 PUSH0 DUP4 ADD DUP8 PUSH2 0x4C5 JUMP JUMPDEST PUSH2 0x605 PUSH1 0x20 DUP4 ADD DUP7 PUSH2 0x4DF JUMP JUMPDEST PUSH2 0x612 PUSH1 0x40 DUP4 ADD DUP6 PUSH2 0x4C5 JUMP JUMPDEST PUSH2 0x61F PUSH1 0x60 DUP4 ADD DUP5 PUSH2 0x4C5 JUMP JUMPDEST SWAP6 SWAP5 POP POP POP POP POP JUMP JUMPDEST PUSH32 0x4E487B7100000000000000000000000000000000000000000000000000000000 PUSH0 MSTORE PUSH1 0x22 PUSH1 0x4 MSTORE PUSH1 0x24 PUSH0 REVERT JUMPDEST PUSH0 PUSH1 0x2 DUP3 DIV SWAP1 POP PUSH1 0x1 DUP3 AND DUP1 PUSH2 0x66C JUMPI PUSH1 0x7F DUP3 AND SWAP2 POP JUMPDEST PUSH1 0x20 DUP3 LT DUP2 SUB PUSH2 0x67F JUMPI PUSH2 0x67E PUSH2 0x628 JUMP JUMPDEST JUMPDEST POP SWAP2 SWAP1 POP JUMP JUMPDEST PUSH32 0x43616C6C6572206973206E6F74206F776E657200000000000000000000000000 PUSH0 DUP3 ADD MSTORE POP JUMP JUMPDEST PUSH0 PUSH2 0x6B9 PUSH1 0x13 DUP4 PUSH2 0x445 JUMP JUMPDEST SWAP2 POP PUSH2 0x6C4 DUP3 PUSH2 0x685 JUMP JUMPDEST PUSH1 0x20 DUP3 ADD SWAP1 POP SWAP2 SWAP1 POP JUMP JUMPDEST PUSH0 PUSH1 0x20 DUP3 ADD SWAP1 POP DUP2 DUP2 SUB PUSH0 DUP4 ADD MSTORE PUSH2 0x6E6 DUP2 PUSH2 0x6AD JUMP JUMPDEST SWAP1 POP SWAP2 SWAP1 POP JUMP JUMPDEST PUSH32 0x4E487B7100000000000000000000000000000000000000000000000000000000 PUSH0 MSTORE PUSH1 0x51 PUSH1 0x4 MSTORE PUSH1 0x24 PUSH0 REVERT INVALID LOG2 PUSH5 0x6970667358 0x22 SLT KECCAK256 LOG1 0xB2 0xB3 0xC5 0xA6 0xEE 0xC5 0xAA LT PUSH30 0x9F1F603D3E8BAABE5BAE42E4CF8D27D9324A4122D6C764736F6C63430008 AND STOP CALLER "
		},
		"gasEstimates": {
			"creation": {
				"codeDepositCost": "374400",
				"executionCost": "infinite",
				"totalCost": "infinite"
			},
			"external": {
				"changeOwner(address)": "30624",
				"director()": "2508",
				"getOwner()": "2537",
				"questions(uint256)": "infinite",
				"voters(address)": "infinite"
			},
			"internal": {
				"_createQuestion(string memory)": "infinite"
			}
		},
		"methodIdentifiers": {
			"changeOwner(address)": "a6f9dae1",
			"director()": "5af82abf",
			"getOwner()": "893d20e8",
			"questions(uint256)": "31b1b978",
			"voters(address)": "a3ec138d"
		}
	},
	"abi": [
		{
			"inputs": [],
			"stateMutability": "nonpayable",
			"type": "constructor"
		},
		{
			"anonymous": false,
			"inputs": [
				{
					"indexed": false,
					"internalType": "string",
					"name": "body",
					"type": "string"
				}
			],
			"name": "NewQuestion",
			"type": "event"
		},
		{
			"anonymous": false,
			"inputs": [
				{
					"indexed": true,
					"internalType": "address",
					"name": "oldOwner",
					"type": "address"
				},
				{
					"indexed": true,
					"internalType": "address",
					"name": "newOwner",
					"type": "address"
				}
			],
			"name": "OwnerSet",
			"type": "event"
		},
		{
			"anonymous": false,
			"inputs": [
				{
					"indexed": false,
					"internalType": "string",
					"name": "body",
					"type": "string"
				},
				{
					"indexed": false,
					"internalType": "uint256",
					"name": "positiveResults",
					"type": "uint256"
				},
				{
					"indexed": false,
					"internalType": "uint256",
					"name": "negativeResults",
					"type": "uint256"
				}
			],
			"name": "QuestionResults",
			"type": "event"
		},
		{
			"inputs": [
				{
					"internalType": "address",
					"name": "newOwner",
					"type": "address"
				}
			],
			"name": "changeOwner",
			"outputs": [],
			"stateMutability": "nonpayable",
			"type": "function"
		},
		{
			"inputs": [],
			"name": "director",
			"outputs": [
				{
					"internalType": "address",
					"name": "",
					"type": "address"
				}
			],
			"stateMutability": "view",
			"type": "function"
		},
		{
			"inputs": [],
			"name": "getOwner",
			"outputs": [
				{
					"internalType": "address",
					"name": "",
					"type": "address"
				}
			],
			"stateMutability": "view",
			"type": "function"
		},
		{
			"inputs": [
				{
					"internalType": "uint256",
					"name": "",
					"type": "uint256"
				}
			],
			"name": "questions",
			"outputs": [
				{
					"internalType": "string",
					"name": "body",
					"type": "string"
				},
				{
					"internalType": "uint256",
					"name": "positiveVoteCount",
					"type": "uint256"
				},
				{
					"internalType": "uint256",
					"name": "negativeVoteCount",
					"type": "uint256"
				},
				{
					"internalType": "bool",
					"name": "active",
					"type": "bool"
				}
			],
			"stateMutability": "view",
			"type": "function"
		},
		{
			"inputs": [
				{
					"internalType": "address",
					"name": "",
					"type": "address"
				}
			],
			"name": "voters",
			"outputs": [
				{
					"internalType": "uint256",
					"name": "weight",
					"type": "uint256"
				},
				{
					"internalType": "bool",
					"name": "voted",
					"type": "bool"
				},
				{
					"internalType": "uint256",
					"name": "vote",
					"type": "uint256"
				},
				{
					"internalType": "uint256",
					"name": "viewResults",
					"type": "uint256"
				}
			],
			"stateMutability": "view",
			"type": "function"
		}
	]
}