{
	"data": {
		"bytecode": {
			"linkReferences": {},
			"object": "608060405234801562000010575f80fd5b50620000586040518060400160405280601e81526020017f4469726563746f7220636f6e7472616374206465706c6f7965642062793a0000815250336200025560201b60201c565b335f806101000a81548173ffffffffffffffffffffffffffffffffffffffff021916908373ffffffffffffffffffffffffffffffffffffffff1602179055505f8054906101000a900473ffffffffffffffffffffffffffffffffffffffff1673ffffffffffffffffffffffffffffffffffffffff165f73ffffffffffffffffffffffffffffffffffffffff167f2793ad8c6ada2f2246fbc9e01fc2ba0f800d9fc8a85e07322987488c35f9562160405160405180910390a33360025f6101000a81548173ffffffffffffffffffffffffffffffffffffffff021916908373ffffffffffffffffffffffffffffffffffffffff160217905550600160035f60025f9054906101000a900473ffffffffffffffffffffffffffffffffffffffff1673ffffffffffffffffffffffffffffffffffffffff1673ffffffffffffffffffffffffffffffffffffffff1681526020019081526020015f205f015f6101000a81548163ffffffff021916908363ffffffff160217905550600160035f60025f9054906101000a900473ffffffffffffffffffffffffffffffffffffffff1673ffffffffffffffffffffffffffffffffffffffff1673ffffffffffffffffffffffffffffffffffffffff1681526020019081526020015f205f0160096101000a81548163ffffffff021916908363ffffffff16021790555062000499565b620002f782826040516024016200026e9291906200043a565b6040516020818303038152906040527f319af333000000000000000000000000000000000000000000000000000000007bffffffffffffffffffffffffffffffffffffffffffffffffffffffff19166020820180517bffffffffffffffffffffffffffffffffffffffffffffffffffffffff8381831617835250505050620002fb60201b60201c565b5050565b62000321816200031c6200032460201b620012e5176200034360201b60201c565b60201c565b50565b5f6a636f6e736f6c652e6c6f6790505f80835160208501845afa505050565b6200035760201b6200130417819050919050565b620003616200046c565b565b5f81519050919050565b5f82825260208201905092915050565b5f5b838110156200039c5780820151818401526020810190506200037f565b5f8484015250505050565b5f601f19601f8301169050919050565b5f620003c38262000363565b620003cf81856200036d565b9350620003e18185602086016200037d565b620003ec81620003a7565b840191505092915050565b5f73ffffffffffffffffffffffffffffffffffffffff82169050919050565b5f6200042282620003f7565b9050919050565b620004348162000416565b82525050565b5f6040820190508181035f830152620004548185620003b7565b905062000465602083018462000429565b9392505050565b7f4e487b71000000000000000000000000000000000000000000000000000000005f52605160045260245ffd5b611f6280620004a75f395ff3fe608060405234801561000f575f80fd5b50600436106100cd575f3560e01c80635c2930ad1161008a578063a0568c8211610064578063a0568c821461022b578063b3580c1e14610247578063b384abef14610263578063d3d161dd1461027f576100cd565b80635c2930ad146101bd5780638c217337146101f157806397588e261461020d576100cd565b8063230e0660146100d15780632898f105146101045780632bd87d491461012057806331b1b9781461015057806333c9e51d146101835780635af82abf1461019f575b5f80fd5b6100eb60048036038101906100e69190611379565b61029b565b6040516100fb9493929190611466565b60405180910390f35b61011e60048036038101906101199190611379565b610379565b005b61013a600480360381019061013591906114e3565b6104c1565b604051610147919061150e565b60405180910390f35b61016a600480360381019061016591906114e3565b61065a565b60405161017a9493929190611466565b60405180910390f35b61019d600480360381019061019891906114e3565b610747565b005b6101a76108d3565b6040516101b4919061153d565b60405180910390f35b6101d760048036038101906101d29190611379565b6108f8565b6040516101e8959493929190611556565b60405180910390f35b61020b600480360381019061020691906115a7565b610982565b005b610215610a70565b604051610222919061153d565b60405180910390f35b61024560048036038101906102409190611379565b610a97565b005b610261600480360381019061025c9190611711565b610c62565b005b61027d60048036038101906102789190611758565b610e04565b005b610299600480360381019061029491906115a7565b6111f6565b005b6004602052805f5260405f205f91509050805f0180546102ba906117c3565b80601f01602080910402602001604051908101604052809291908181526020018280546102e6906117c3565b80156103315780601f1061030857610100808354040283529160200191610331565b820191905f5260205f20905b81548152906001019060200180831161031457829003601f168201915b505050505090806001015f9054906101000a900463ffffffff16908060010160049054906101000a900463ffffffff16908060010160089054906101000a900460ff16905084565b5f8054906101000a900473ffffffffffffffffffffffffffffffffffffffff1673ffffffffffffffffffffffffffffffffffffffff163373ffffffffffffffffffffffffffffffffffffffff1614610406576040517f08c379a00000000000000000000000000000000000000000000000000000000081526004016103fd9061183d565b60405180910390fd5b8073ffffffffffffffffffffffffffffffffffffffff165f8054906101000a900473ffffffffffffffffffffffffffffffffffffffff1673ffffffffffffffffffffffffffffffffffffffff167f2793ad8c6ada2f2246fbc9e01fc2ba0f800d9fc8a85e07322987488c35f9562160405160405180910390a3805f806101000a81548173ffffffffffffffffffffffffffffffffffffffff021916908373ffffffffffffffffffffffffffffffffffffffff16021790555050565b6060335f8060035f8473ffffffffffffffffffffffffffffffffffffffff1673ffffffffffffffffffffffffffffffffffffffff1681526020019081526020015f205f0160099054906101000a900463ffffffff1663ffffffff1611610525575f80fd5b5f15156001858154811061053c5761053b61185b565b5b905f5260205f20906002020160010160089054906101000a900460ff16151514610564575f80fd5b600184815481106105785761057761185b565b5b905f5260205f20906002020160010160049054906101000a900463ffffffff1663ffffffff16600185815481106105b2576105b161185b565b5b905f5260205f2090600202016001015f9054906101000a900463ffffffff1663ffffffff16111561061a576040518060400160405280601381526020017f5175657374696f6e2068617320706173736564000000000000000000000000008152509250610653565b6040518060400160405280601781526020017f5175657374696f6e20686173206e6f742070617373656400000000000000000081525092505b5050919050565b60018181548110610669575f80fd5b905f5260205f2090600202015f91509050805f018054610688906117c3565b80601f01602080910402602001604051908101604052809291908181526020018280546106b4906117c3565b80156106ff5780601f106106d6576101008083540402835291602001916106ff565b820191905f5260205f20905b8154815290600101906020018083116106e257829003601f168201915b505050505090806001015f9054906101000a900463ffffffff16908060010160049054906101000a900463ffffffff16908060010160089054906101000a900460ff16905084565b5f8054906101000a900473ffffffffffffffffffffffffffffffffffffffff1673ffffffffffffffffffffffffffffffffffffffff163373ffffffffffffffffffffffffffffffffffffffff16146107d4576040517f08c379a00000000000000000000000000000000000000000000000000000000081526004016107cb9061183d565b60405180910390fd5b5f600182815481106107e9576107e861185b565b5b905f5260205f20906002020160010160086101000a81548160ff0219169083151502179055507f0c4a72bfcbe149948d17ebd116a5b0ca0cbb653f51d74a688cc9b5fae1fbacdb600182815481106108445761084361185b565b5b905f5260205f2090600202015f01600183815481106108665761086561185b565b5b905f5260205f2090600202016001015f9054906101000a900463ffffffff16600184815481106108995761089861185b565b5b905f5260205f20906002020160010160049054906101000a900463ffffffff166040516108c893929190611954565b60405180910390a150565b60025f9054906101000a900473ffffffffffffffffffffffffffffffffffffffff1681565b6003602052805f5260405f205f91509050805f015f9054906101000a900463ffffffff1690805f0160049054906101000a900460ff1690805f0160059054906101000a900463ffffffff1690805f0160099054906101000a900463ffffffff1690806001015f9054906101000a900473ffffffffffffffffffffffffffffffffffffffff16905085565b5f8054906101000a900473ffffffffffffffffffffffffffffffffffffffff1673ffffffffffffffffffffffffffffffffffffffff163373ffffffffffffffffffffffffffffffffffffffff1614610a0f576040517f08c379a0000000000000000000000000000000000000000000000000000000008152600401610a069061183d565b60405180910390fd5b8060035f8473ffffffffffffffffffffffffffffffffffffffff1673ffffffffffffffffffffffffffffffffffffffff1681526020019081526020015f205f015f6101000a81548163ffffffff021916908363ffffffff1602179055505050565b5f805f9054906101000a900473ffffffffffffffffffffffffffffffffffffffff16905090565b5f8054906101000a900473ffffffffffffffffffffffffffffffffffffffff1673ffffffffffffffffffffffffffffffffffffffff163373ffffffffffffffffffffffffffffffffffffffff1614610b24576040517f08c379a0000000000000000000000000000000000000000000000000000000008152600401610b1b9061183d565b60405180910390fd5b600160035f8373ffffffffffffffffffffffffffffffffffffffff1673ffffffffffffffffffffffffffffffffffffffff1681526020019081526020015f205f015f6101000a81548163ffffffff021916908363ffffffff160217905550600160035f8373ffffffffffffffffffffffffffffffffffffffff1673ffffffffffffffffffffffffffffffffffffffff1681526020019081526020015f205f0160096101000a81548163ffffffff021916908363ffffffff1602179055508060035f8373ffffffffffffffffffffffffffffffffffffffff1673ffffffffffffffffffffffffffffffffffffffff1681526020019081526020015f206001015f6101000a81548173ffffffffffffffffffffffffffffffffffffffff021916908373ffffffffffffffffffffffffffffffffffffffff16021790555050565b5f8054906101000a900473ffffffffffffffffffffffffffffffffffffffff1673ffffffffffffffffffffffffffffffffffffffff163373ffffffffffffffffffffffffffffffffffffffff1614610cef576040517f08c379a0000000000000000000000000000000000000000000000000000000008152600401610ce69061183d565b60405180910390fd5b600160405180608001604052808381526020015f63ffffffff1681526020015f63ffffffff16815260200160011515815250908060018154018082558091505060019003905f5260205f2090600202015f909190919091505f820151815f019081610d5a9190611b12565b506020820151816001015f6101000a81548163ffffffff021916908363ffffffff16021790555060408201518160010160046101000a81548163ffffffff021916908363ffffffff16021790555060608201518160010160086101000a81548160ff02191690831515021790555050507f0230497b4479b19065f0fe9c0bdee0259402f893cfa9e9b6a44fbf6ecca6299c81604051610df9919061150e565b60405180910390a150565b6001151560018381548110610e1c57610e1b61185b565b5b905f5260205f20906002020160010160089054906101000a900460ff16151514610e44575f80fd5b5f60035f3373ffffffffffffffffffffffffffffffffffffffff1673ffffffffffffffffffffffffffffffffffffffff1681526020019081526020015f205f015f9054906101000a900463ffffffff1663ffffffff1611610ea3575f80fd5b5f60045f3373ffffffffffffffffffffffffffffffffffffffff1673ffffffffffffffffffffffffffffffffffffffff1681526020019081526020015f2090505f60018481548110610ef857610ef761185b565b5b905f5260205f209060020201905080604051602001610f179190611d8d565b6040516020818303038152906040528051906020012082604051602001610f3e9190611d8d565b6040516020818303038152906040528051906020012003610f5d575f80fd5b8260035f3373ffffffffffffffffffffffffffffffffffffffff1673ffffffffffffffffffffffffffffffffffffffff1681526020019081526020015f205f0160056101000a81548163ffffffff021916908363ffffffff160217905550600160035f3373ffffffffffffffffffffffffffffffffffffffff1673ffffffffffffffffffffffffffffffffffffffff1681526020019081526020015f205f0160046101000a81548160ff0219169083151502179055505f831115611081576001848154811061102f5761102e61185b565b5b905f5260205f2090600202016001015f81819054906101000a900463ffffffff168092919061105d90611dda565b91906101000a81548163ffffffff021916908363ffffffff160217905550506110e4565b600184815481106110955761109461185b565b5b905f5260205f209060020201600101600481819054906101000a900463ffffffff16809291906110c490611dda565b91906101000a81548163ffffffff021916908363ffffffff160217905550505b600184815481106110f8576110f761185b565b5b905f5260205f20906002020160045f3373ffffffffffffffffffffffffffffffffffffffff1673ffffffffffffffffffffffffffffffffffffffff1681526020019081526020015f205f8201815f0190816111539190611e1a565b50600182015f9054906101000a900463ffffffff16816001015f6101000a81548163ffffffff021916908363ffffffff1602179055506001820160049054906101000a900463ffffffff168160010160046101000a81548163ffffffff021916908363ffffffff1602179055506001820160089054906101000a900460ff168160010160086101000a81548160ff02191690831515021790555090505050505050565b5f8054906101000a900473ffffffffffffffffffffffffffffffffffffffff1673ffffffffffffffffffffffffffffffffffffffff163373ffffffffffffffffffffffffffffffffffffffff1614611283576040517f08c379a000000000000000000000000000000000000000000000000000000000815260040161127a9061183d565b60405180910390fd5b8060035f8473ffffffffffffffffffffffffffffffffffffffff1673ffffffffffffffffffffffffffffffffffffffff1681526020019081526020015f205f0160096101000a81548163ffffffff021916908363ffffffff1602179055505050565b5f6a636f6e736f6c652e6c6f6790505f80835160208501845afa505050565b61130c611eff565b565b5f604051905090565b5f80fd5b5f80fd5b5f73ffffffffffffffffffffffffffffffffffffffff82169050919050565b5f6113488261131f565b9050919050565b6113588161133e565b8114611362575f80fd5b50565b5f813590506113738161134f565b92915050565b5f6020828403121561138e5761138d611317565b5b5f61139b84828501611365565b91505092915050565b5f81519050919050565b5f82825260208201905092915050565b5f5b838110156113db5780820151818401526020810190506113c0565b5f8484015250505050565b5f601f19601f8301169050919050565b5f611400826113a4565b61140a81856113ae565b935061141a8185602086016113be565b611423816113e6565b840191505092915050565b5f63ffffffff82169050919050565b6114468161142e565b82525050565b5f8115159050919050565b6114608161144c565b82525050565b5f6080820190508181035f83015261147e81876113f6565b905061148d602083018661143d565b61149a604083018561143d565b6114a76060830184611457565b95945050505050565b5f819050919050565b6114c2816114b0565b81146114cc575f80fd5b50565b5f813590506114dd816114b9565b92915050565b5f602082840312156114f8576114f7611317565b5b5f611505848285016114cf565b91505092915050565b5f6020820190508181035f83015261152681846113f6565b905092915050565b6115378161133e565b82525050565b5f6020820190506115505f83018461152e565b92915050565b5f60a0820190506115695f83018861143d565b6115766020830187611457565b611583604083018661143d565b611590606083018561143d565b61159d608083018461152e565b9695505050505050565b5f80604083850312156115bd576115bc611317565b5b5f6115ca85828601611365565b92505060206115db858286016114cf565b9150509250929050565b5f80fd5b5f80fd5b7f4e487b71000000000000000000000000000000000000000000000000000000005f52604160045260245ffd5b611623826113e6565b810181811067ffffffffffffffff82111715611642576116416115ed565b5b80604052505050565b5f61165461130e565b9050611660828261161a565b919050565b5f67ffffffffffffffff82111561167f5761167e6115ed565b5b611688826113e6565b9050602081019050919050565b828183375f83830152505050565b5f6116b56116b084611665565b61164b565b9050828152602081018484840111156116d1576116d06115e9565b5b6116dc848285611695565b509392505050565b5f82601f8301126116f8576116f76115e5565b5b81356117088482602086016116a3565b91505092915050565b5f6020828403121561172657611725611317565b5b5f82013567ffffffffffffffff8111156117435761174261131b565b5b61174f848285016116e4565b91505092915050565b5f806040838503121561176e5761176d611317565b5b5f61177b858286016114cf565b925050602061178c858286016114cf565b9150509250929050565b7f4e487b71000000000000000000000000000000000000000000000000000000005f52602260045260245ffd5b5f60028204905060018216806117da57607f821691505b6020821081036117ed576117ec611796565b5b50919050565b7f43616c6c6572206973206e6f74206469726563746f72000000000000000000005f82015250565b5f6118276016836113ae565b9150611832826117f3565b602082019050919050565b5f6020820190508181035f8301526118548161181b565b9050919050565b7f4e487b71000000000000000000000000000000000000000000000000000000005f52603260045260245ffd5b5f819050815f5260205f209050919050565b5f81546118a6816117c3565b6118b081866113ae565b9450600182165f81146118ca57600181146118e057611912565b60ff198316865281151560200286019350611912565b6118e985611888565b5f5b8381101561190a578154818901526001820191506020810190506118eb565b808801955050505b50505092915050565b5f819050919050565b5f61193e6119396119348461142e565b61191b565b6114b0565b9050919050565b61194e81611924565b82525050565b5f6060820190508181035f83015261196c818661189a565b905061197b6020830185611945565b6119886040830184611945565b949350505050565b5f6020601f8301049050919050565b5f82821b905092915050565b5f600883026119da7fffffffffffffffffffffffffffffffffffffffffffffffffffffffffffffffff8261199f565b6119e4868361199f565b95508019841693508086168417925050509392505050565b5f611a16611a11611a0c846114b0565b61191b565b6114b0565b9050919050565b5f819050919050565b611a2f836119fc565b611a43611a3b82611a1d565b8484546119ab565b825550505050565b5f90565b611a57611a4b565b611a62818484611a26565b505050565b5b81811015611a8557611a7a5f82611a4f565b600181019050611a68565b5050565b601f821115611aca57611a9b81611888565b611aa484611990565b81016020851015611ab3578190505b611ac7611abf85611990565b830182611a67565b50505b505050565b5f82821c905092915050565b5f611aea5f1984600802611acf565b1980831691505092915050565b5f611b028383611adb565b9150826002028217905092915050565b611b1b826113a4565b67ffffffffffffffff811115611b3457611b336115ed565b5b611b3e82546117c3565b611b49828285611a89565b5f60209050601f831160018114611b7a575f8415611b68578287015190505b611b728582611af7565b865550611bd9565b601f198416611b8886611888565b5f5b82811015611baf57848901518255600182019150602085019450602081019050611b8a565b86831015611bcc5784890151611bc8601f891682611adb565b8355505b6001600288020188555050505b505050505050565b5f82825260208201905092915050565b5f8154611bfd816117c3565b611c078186611be1565b9450600182165f8114611c215760018114611c3757611c69565b60ff198316865281151560200286019350611c69565b611c4085611888565b5f5b83811015611c6157815481890152600182019150602081019050611c42565b808801955050505b50505092915050565b5f815f1c9050919050565b5f63ffffffff82169050919050565b5f611c9e611c9983611c72565b611c7d565b9050919050565b611cae8161142e565b82525050565b5f8160201c9050919050565b5f611cd2611ccd83611cb4565b611c7d565b9050919050565b5f8160401c9050919050565b5f60ff82169050919050565b5f611d03611cfe83611cd9565b611ce5565b9050919050565b611d138161144c565b82525050565b5f608083015f8084018583035f870152611d338382611bf1565b92505060018401549050611d4681611c8c565b611d536020870182611ca5565b50611d5d81611cc0565b611d6a6040870182611ca5565b50611d7481611cf1565b611d816060870182611d0a565b50819250505092915050565b5f6020820190508181035f830152611da58184611d19565b905092915050565b7f4e487b71000000000000000000000000000000000000000000000000000000005f52601160045260245ffd5b5f611de48261142e565b915063ffffffff8203611dfa57611df9611dad565b5b600182019050919050565b5f81549050611e13816117c3565b9050919050565b818103611e28575050611efd565b611e3182611e05565b67ffffffffffffffff811115611e4a57611e496115ed565b5b611e5482546117c3565b611e5f828285611a89565b5f601f831160018114611e8c575f8415611e7a578287015490505b611e848582611af7565b865550611ef6565b601f198416611e9a87611888565b9650611ea586611888565b5f5b82811015611ecc57848901548255600182019150600185019450602081019050611ea7565b86831015611ee95784890154611ee5601f891682611adb565b8355505b6001600288020188555050505b5050505050505b565b7f4e487b71000000000000000000000000000000000000000000000000000000005f52605160045260245ffdfea2646970667358221220d501dee85cf3aaeca3dc8c27649b302c092c10c8a4650873b8dc8fd3479ab84264736f6c63430008160033",
			"opcodes": "PUSH1 0x80 PUSH1 0x40 MSTORE CALLVALUE DUP1 ISZERO PUSH3 0x10 JUMPI PUSH0 DUP1 REVERT JUMPDEST POP PUSH3 0x58 PUSH1 0x40 MLOAD DUP1 PUSH1 0x40 ADD PUSH1 0x40 MSTORE DUP1 PUSH1 0x1E DUP2 MSTORE PUSH1 0x20 ADD PUSH32 0x4469726563746F7220636F6E7472616374206465706C6F7965642062793A0000 DUP2 MSTORE POP CALLER PUSH3 0x255 PUSH1 0x20 SHL PUSH1 0x20 SHR JUMP JUMPDEST CALLER PUSH0 DUP1 PUSH2 0x100 EXP DUP2 SLOAD DUP2 PUSH20 0xFFFFFFFFFFFFFFFFFFFFFFFFFFFFFFFFFFFFFFFF MUL NOT AND SWAP1 DUP4 PUSH20 0xFFFFFFFFFFFFFFFFFFFFFFFFFFFFFFFFFFFFFFFF AND MUL OR SWAP1 SSTORE POP PUSH0 DUP1 SLOAD SWAP1 PUSH2 0x100 EXP SWAP1 DIV PUSH20 0xFFFFFFFFFFFFFFFFFFFFFFFFFFFFFFFFFFFFFFFF AND PUSH20 0xFFFFFFFFFFFFFFFFFFFFFFFFFFFFFFFFFFFFFFFF AND PUSH0 PUSH20 0xFFFFFFFFFFFFFFFFFFFFFFFFFFFFFFFFFFFFFFFF AND PUSH32 0x2793AD8C6ADA2F2246FBC9E01FC2BA0F800D9FC8A85E07322987488C35F95621 PUSH1 0x40 MLOAD PUSH1 0x40 MLOAD DUP1 SWAP2 SUB SWAP1 LOG3 CALLER PUSH1 0x2 PUSH0 PUSH2 0x100 EXP DUP2 SLOAD DUP2 PUSH20 0xFFFFFFFFFFFFFFFFFFFFFFFFFFFFFFFFFFFFFFFF MUL NOT AND SWAP1 DUP4 PUSH20 0xFFFFFFFFFFFFFFFFFFFFFFFFFFFFFFFFFFFFFFFF AND MUL OR SWAP1 SSTORE POP PUSH1 0x1 PUSH1 0x3 PUSH0 PUSH1 0x2 PUSH0 SWAP1 SLOAD SWAP1 PUSH2 0x100 EXP SWAP1 DIV PUSH20 0xFFFFFFFFFFFFFFFFFFFFFFFFFFFFFFFFFFFFFFFF AND PUSH20 0xFFFFFFFFFFFFFFFFFFFFFFFFFFFFFFFFFFFFFFFF AND PUSH20 0xFFFFFFFFFFFFFFFFFFFFFFFFFFFFFFFFFFFFFFFF AND DUP2 MSTORE PUSH1 0x20 ADD SWAP1 DUP2 MSTORE PUSH1 0x20 ADD PUSH0 KECCAK256 PUSH0 ADD PUSH0 PUSH2 0x100 EXP DUP2 SLOAD DUP2 PUSH4 0xFFFFFFFF MUL NOT AND SWAP1 DUP4 PUSH4 0xFFFFFFFF AND MUL OR SWAP1 SSTORE POP PUSH1 0x1 PUSH1 0x3 PUSH0 PUSH1 0x2 PUSH0 SWAP1 SLOAD SWAP1 PUSH2 0x100 EXP SWAP1 DIV PUSH20 0xFFFFFFFFFFFFFFFFFFFFFFFFFFFFFFFFFFFFFFFF AND PUSH20 0xFFFFFFFFFFFFFFFFFFFFFFFFFFFFFFFFFFFFFFFF AND PUSH20 0xFFFFFFFFFFFFFFFFFFFFFFFFFFFFFFFFFFFFFFFF AND DUP2 MSTORE PUSH1 0x20 ADD SWAP1 DUP2 MSTORE PUSH1 0x20 ADD PUSH0 KECCAK256 PUSH0 ADD PUSH1 0x9 PUSH2 0x100 EXP DUP2 SLOAD DUP2 PUSH4 0xFFFFFFFF MUL NOT AND SWAP1 DUP4 PUSH4 0xFFFFFFFF AND MUL OR SWAP1 SSTORE POP PUSH3 0x499 JUMP JUMPDEST PUSH3 0x2F7 DUP3 DUP3 PUSH1 0x40 MLOAD PUSH1 0x24 ADD PUSH3 0x26E SWAP3 SWAP2 SWAP1 PUSH3 0x43A JUMP JUMPDEST PUSH1 0x40 MLOAD PUSH1 0x20 DUP2 DUP4 SUB SUB DUP2 MSTORE SWAP1 PUSH1 0x40 MSTORE PUSH32 0x319AF33300000000000000000000000000000000000000000000000000000000 PUSH28 0xFFFFFFFFFFFFFFFFFFFFFFFFFFFFFFFFFFFFFFFFFFFFFFFFFFFFFFFF NOT AND PUSH1 0x20 DUP3 ADD DUP1 MLOAD PUSH28 0xFFFFFFFFFFFFFFFFFFFFFFFFFFFFFFFFFFFFFFFFFFFFFFFFFFFFFFFF DUP4 DUP2 DUP4 AND OR DUP4 MSTORE POP POP POP POP PUSH3 0x2FB PUSH1 0x20 SHL PUSH1 0x20 SHR JUMP JUMPDEST POP POP JUMP JUMPDEST PUSH3 0x321 DUP2 PUSH3 0x31C PUSH3 0x324 PUSH1 0x20 SHL PUSH3 0x12E5 OR PUSH3 0x343 PUSH1 0x20 SHL PUSH1 0x20 SHR JUMP JUMPDEST PUSH1 0x20 SHR JUMP JUMPDEST POP JUMP JUMPDEST PUSH0 PUSH11 0x636F6E736F6C652E6C6F67 SWAP1 POP PUSH0 DUP1 DUP4 MLOAD PUSH1 0x20 DUP6 ADD DUP5 GAS STATICCALL POP POP POP JUMP JUMPDEST PUSH3 0x357 PUSH1 0x20 SHL PUSH3 0x1304 OR DUP2 SWAP1 POP SWAP2 SWAP1 POP JUMP JUMPDEST PUSH3 0x361 PUSH3 0x46C JUMP JUMPDEST JUMP JUMPDEST PUSH0 DUP2 MLOAD SWAP1 POP SWAP2 SWAP1 POP JUMP JUMPDEST PUSH0 DUP3 DUP3 MSTORE PUSH1 0x20 DUP3 ADD SWAP1 POP SWAP3 SWAP2 POP POP JUMP JUMPDEST PUSH0 JUMPDEST DUP4 DUP2 LT ISZERO PUSH3 0x39C JUMPI DUP1 DUP3 ADD MLOAD DUP2 DUP5 ADD MSTORE PUSH1 0x20 DUP2 ADD SWAP1 POP PUSH3 0x37F JUMP JUMPDEST PUSH0 DUP5 DUP5 ADD MSTORE POP POP POP POP JUMP JUMPDEST PUSH0 PUSH1 0x1F NOT PUSH1 0x1F DUP4 ADD AND SWAP1 POP SWAP2 SWAP1 POP JUMP JUMPDEST PUSH0 PUSH3 0x3C3 DUP3 PUSH3 0x363 JUMP JUMPDEST PUSH3 0x3CF DUP2 DUP6 PUSH3 0x36D JUMP JUMPDEST SWAP4 POP PUSH3 0x3E1 DUP2 DUP6 PUSH1 0x20 DUP7 ADD PUSH3 0x37D JUMP JUMPDEST PUSH3 0x3EC DUP2 PUSH3 0x3A7 JUMP JUMPDEST DUP5 ADD SWAP2 POP POP SWAP3 SWAP2 POP POP JUMP JUMPDEST PUSH0 PUSH20 0xFFFFFFFFFFFFFFFFFFFFFFFFFFFFFFFFFFFFFFFF DUP3 AND SWAP1 POP SWAP2 SWAP1 POP JUMP JUMPDEST PUSH0 PUSH3 0x422 DUP3 PUSH3 0x3F7 JUMP JUMPDEST SWAP1 POP SWAP2 SWAP1 POP JUMP JUMPDEST PUSH3 0x434 DUP2 PUSH3 0x416 JUMP JUMPDEST DUP3 MSTORE POP POP JUMP JUMPDEST PUSH0 PUSH1 0x40 DUP3 ADD SWAP1 POP DUP2 DUP2 SUB PUSH0 DUP4 ADD MSTORE PUSH3 0x454 DUP2 DUP6 PUSH3 0x3B7 JUMP JUMPDEST SWAP1 POP PUSH3 0x465 PUSH1 0x20 DUP4 ADD DUP5 PUSH3 0x429 JUMP JUMPDEST SWAP4 SWAP3 POP POP POP JUMP JUMPDEST PUSH32 0x4E487B7100000000000000000000000000000000000000000000000000000000 PUSH0 MSTORE PUSH1 0x51 PUSH1 0x4 MSTORE PUSH1 0x24 PUSH0 REVERT JUMPDEST PUSH2 0x1F62 DUP1 PUSH3 0x4A7 PUSH0 CODECOPY PUSH0 RETURN INVALID PUSH1 0x80 PUSH1 0x40 MSTORE CALLVALUE DUP1 ISZERO PUSH2 0xF JUMPI PUSH0 DUP1 REVERT JUMPDEST POP PUSH1 0x4 CALLDATASIZE LT PUSH2 0xCD JUMPI PUSH0 CALLDATALOAD PUSH1 0xE0 SHR DUP1 PUSH4 0x5C2930AD GT PUSH2 0x8A JUMPI DUP1 PUSH4 0xA0568C82 GT PUSH2 0x64 JUMPI DUP1 PUSH4 0xA0568C82 EQ PUSH2 0x22B JUMPI DUP1 PUSH4 0xB3580C1E EQ PUSH2 0x247 JUMPI DUP1 PUSH4 0xB384ABEF EQ PUSH2 0x263 JUMPI DUP1 PUSH4 0xD3D161DD EQ PUSH2 0x27F JUMPI PUSH2 0xCD JUMP JUMPDEST DUP1 PUSH4 0x5C2930AD EQ PUSH2 0x1BD JUMPI DUP1 PUSH4 0x8C217337 EQ PUSH2 0x1F1 JUMPI DUP1 PUSH4 0x97588E26 EQ PUSH2 0x20D JUMPI PUSH2 0xCD JUMP JUMPDEST DUP1 PUSH4 0x230E0660 EQ PUSH2 0xD1 JUMPI DUP1 PUSH4 0x2898F105 EQ PUSH2 0x104 JUMPI DUP1 PUSH4 0x2BD87D49 EQ PUSH2 0x120 JUMPI DUP1 PUSH4 0x31B1B978 EQ PUSH2 0x150 JUMPI DUP1 PUSH4 0x33C9E51D EQ PUSH2 0x183 JUMPI DUP1 PUSH4 0x5AF82ABF EQ PUSH2 0x19F JUMPI JUMPDEST PUSH0 DUP1 REVERT JUMPDEST PUSH2 0xEB PUSH1 0x4 DUP1 CALLDATASIZE SUB DUP2 ADD SWAP1 PUSH2 0xE6 SWAP2 SWAP1 PUSH2 0x1379 JUMP JUMPDEST PUSH2 0x29B JUMP JUMPDEST PUSH1 0x40 MLOAD PUSH2 0xFB SWAP5 SWAP4 SWAP3 SWAP2 SWAP1 PUSH2 0x1466 JUMP JUMPDEST PUSH1 0x40 MLOAD DUP1 SWAP2 SUB SWAP1 RETURN JUMPDEST PUSH2 0x11E PUSH1 0x4 DUP1 CALLDATASIZE SUB DUP2 ADD SWAP1 PUSH2 0x119 SWAP2 SWAP1 PUSH2 0x1379 JUMP JUMPDEST PUSH2 0x379 JUMP JUMPDEST STOP JUMPDEST PUSH2 0x13A PUSH1 0x4 DUP1 CALLDATASIZE SUB DUP2 ADD SWAP1 PUSH2 0x135 SWAP2 SWAP1 PUSH2 0x14E3 JUMP JUMPDEST PUSH2 0x4C1 JUMP JUMPDEST PUSH1 0x40 MLOAD PUSH2 0x147 SWAP2 SWAP1 PUSH2 0x150E JUMP JUMPDEST PUSH1 0x40 MLOAD DUP1 SWAP2 SUB SWAP1 RETURN JUMPDEST PUSH2 0x16A PUSH1 0x4 DUP1 CALLDATASIZE SUB DUP2 ADD SWAP1 PUSH2 0x165 SWAP2 SWAP1 PUSH2 0x14E3 JUMP JUMPDEST PUSH2 0x65A JUMP JUMPDEST PUSH1 0x40 MLOAD PUSH2 0x17A SWAP5 SWAP4 SWAP3 SWAP2 SWAP1 PUSH2 0x1466 JUMP JUMPDEST PUSH1 0x40 MLOAD DUP1 SWAP2 SUB SWAP1 RETURN JUMPDEST PUSH2 0x19D PUSH1 0x4 DUP1 CALLDATASIZE SUB DUP2 ADD SWAP1 PUSH2 0x198 SWAP2 SWAP1 PUSH2 0x14E3 JUMP JUMPDEST PUSH2 0x747 JUMP JUMPDEST STOP JUMPDEST PUSH2 0x1A7 PUSH2 0x8D3 JUMP JUMPDEST PUSH1 0x40 MLOAD PUSH2 0x1B4 SWAP2 SWAP1 PUSH2 0x153D JUMP JUMPDEST PUSH1 0x40 MLOAD DUP1 SWAP2 SUB SWAP1 RETURN JUMPDEST PUSH2 0x1D7 PUSH1 0x4 DUP1 CALLDATASIZE SUB DUP2 ADD SWAP1 PUSH2 0x1D2 SWAP2 SWAP1 PUSH2 0x1379 JUMP JUMPDEST PUSH2 0x8F8 JUMP JUMPDEST PUSH1 0x40 MLOAD PUSH2 0x1E8 SWAP6 SWAP5 SWAP4 SWAP3 SWAP2 SWAP1 PUSH2 0x1556 JUMP JUMPDEST PUSH1 0x40 MLOAD DUP1 SWAP2 SUB SWAP1 RETURN JUMPDEST PUSH2 0x20B PUSH1 0x4 DUP1 CALLDATASIZE SUB DUP2 ADD SWAP1 PUSH2 0x206 SWAP2 SWAP1 PUSH2 0x15A7 JUMP JUMPDEST PUSH2 0x982 JUMP JUMPDEST STOP JUMPDEST PUSH2 0x215 PUSH2 0xA70 JUMP JUMPDEST PUSH1 0x40 MLOAD PUSH2 0x222 SWAP2 SWAP1 PUSH2 0x153D JUMP JUMPDEST PUSH1 0x40 MLOAD DUP1 SWAP2 SUB SWAP1 RETURN JUMPDEST PUSH2 0x245 PUSH1 0x4 DUP1 CALLDATASIZE SUB DUP2 ADD SWAP1 PUSH2 0x240 SWAP2 SWAP1 PUSH2 0x1379 JUMP JUMPDEST PUSH2 0xA97 JUMP JUMPDEST STOP JUMPDEST PUSH2 0x261 PUSH1 0x4 DUP1 CALLDATASIZE SUB DUP2 ADD SWAP1 PUSH2 0x25C SWAP2 SWAP1 PUSH2 0x1711 JUMP JUMPDEST PUSH2 0xC62 JUMP JUMPDEST STOP JUMPDEST PUSH2 0x27D PUSH1 0x4 DUP1 CALLDATASIZE SUB DUP2 ADD SWAP1 PUSH2 0x278 SWAP2 SWAP1 PUSH2 0x1758 JUMP JUMPDEST PUSH2 0xE04 JUMP JUMPDEST STOP JUMPDEST PUSH2 0x299 PUSH1 0x4 DUP1 CALLDATASIZE SUB DUP2 ADD SWAP1 PUSH2 0x294 SWAP2 SWAP1 PUSH2 0x15A7 JUMP JUMPDEST PUSH2 0x11F6 JUMP JUMPDEST STOP JUMPDEST PUSH1 0x4 PUSH1 0x20 MSTORE DUP1 PUSH0 MSTORE PUSH1 0x40 PUSH0 KECCAK256 PUSH0 SWAP2 POP SWAP1 POP DUP1 PUSH0 ADD DUP1 SLOAD PUSH2 0x2BA SWAP1 PUSH2 0x17C3 JUMP JUMPDEST DUP1 PUSH1 0x1F ADD PUSH1 0x20 DUP1 SWAP2 DIV MUL PUSH1 0x20 ADD PUSH1 0x40 MLOAD SWAP1 DUP2 ADD PUSH1 0x40 MSTORE DUP1 SWAP3 SWAP2 SWAP1 DUP2 DUP2 MSTORE PUSH1 0x20 ADD DUP3 DUP1 SLOAD PUSH2 0x2E6 SWAP1 PUSH2 0x17C3 JUMP JUMPDEST DUP1 ISZERO PUSH2 0x331 JUMPI DUP1 PUSH1 0x1F LT PUSH2 0x308 JUMPI PUSH2 0x100 DUP1 DUP4 SLOAD DIV MUL DUP4 MSTORE SWAP2 PUSH1 0x20 ADD SWAP2 PUSH2 0x331 JUMP JUMPDEST DUP3 ADD SWAP2 SWAP1 PUSH0 MSTORE PUSH1 0x20 PUSH0 KECCAK256 SWAP1 JUMPDEST DUP2 SLOAD DUP2 MSTORE SWAP1 PUSH1 0x1 ADD SWAP1 PUSH1 0x20 ADD DUP1 DUP4 GT PUSH2 0x314 JUMPI DUP3 SWAP1 SUB PUSH1 0x1F AND DUP3 ADD SWAP2 JUMPDEST POP POP POP POP POP SWAP1 DUP1 PUSH1 0x1 ADD PUSH0 SWAP1 SLOAD SWAP1 PUSH2 0x100 EXP SWAP1 DIV PUSH4 0xFFFFFFFF AND SWAP1 DUP1 PUSH1 0x1 ADD PUSH1 0x4 SWAP1 SLOAD SWAP1 PUSH2 0x100 EXP SWAP1 DIV PUSH4 0xFFFFFFFF AND SWAP1 DUP1 PUSH1 0x1 ADD PUSH1 0x8 SWAP1 SLOAD SWAP1 PUSH2 0x100 EXP SWAP1 DIV PUSH1 0xFF AND SWAP1 POP DUP5 JUMP JUMPDEST PUSH0 DUP1 SLOAD SWAP1 PUSH2 0x100 EXP SWAP1 DIV PUSH20 0xFFFFFFFFFFFFFFFFFFFFFFFFFFFFFFFFFFFFFFFF AND PUSH20 0xFFFFFFFFFFFFFFFFFFFFFFFFFFFFFFFFFFFFFFFF AND CALLER PUSH20 0xFFFFFFFFFFFFFFFFFFFFFFFFFFFFFFFFFFFFFFFF AND EQ PUSH2 0x406 JUMPI PUSH1 0x40 MLOAD PUSH32 0x8C379A000000000000000000000000000000000000000000000000000000000 DUP2 MSTORE PUSH1 0x4 ADD PUSH2 0x3FD SWAP1 PUSH2 0x183D JUMP JUMPDEST PUSH1 0x40 MLOAD DUP1 SWAP2 SUB SWAP1 REVERT JUMPDEST DUP1 PUSH20 0xFFFFFFFFFFFFFFFFFFFFFFFFFFFFFFFFFFFFFFFF AND PUSH0 DUP1 SLOAD SWAP1 PUSH2 0x100 EXP SWAP1 DIV PUSH20 0xFFFFFFFFFFFFFFFFFFFFFFFFFFFFFFFFFFFFFFFF AND PUSH20 0xFFFFFFFFFFFFFFFFFFFFFFFFFFFFFFFFFFFFFFFF AND PUSH32 0x2793AD8C6ADA2F2246FBC9E01FC2BA0F800D9FC8A85E07322987488C35F95621 PUSH1 0x40 MLOAD PUSH1 0x40 MLOAD DUP1 SWAP2 SUB SWAP1 LOG3 DUP1 PUSH0 DUP1 PUSH2 0x100 EXP DUP2 SLOAD DUP2 PUSH20 0xFFFFFFFFFFFFFFFFFFFFFFFFFFFFFFFFFFFFFFFF MUL NOT AND SWAP1 DUP4 PUSH20 0xFFFFFFFFFFFFFFFFFFFFFFFFFFFFFFFFFFFFFFFF AND MUL OR SWAP1 SSTORE POP POP JUMP JUMPDEST PUSH1 0x60 CALLER PUSH0 DUP1 PUSH1 0x3 PUSH0 DUP5 PUSH20 0xFFFFFFFFFFFFFFFFFFFFFFFFFFFFFFFFFFFFFFFF AND PUSH20 0xFFFFFFFFFFFFFFFFFFFFFFFFFFFFFFFFFFFFFFFF AND DUP2 MSTORE PUSH1 0x20 ADD SWAP1 DUP2 MSTORE PUSH1 0x20 ADD PUSH0 KECCAK256 PUSH0 ADD PUSH1 0x9 SWAP1 SLOAD SWAP1 PUSH2 0x100 EXP SWAP1 DIV PUSH4 0xFFFFFFFF AND PUSH4 0xFFFFFFFF AND GT PUSH2 0x525 JUMPI PUSH0 DUP1 REVERT JUMPDEST PUSH0 ISZERO ISZERO PUSH1 0x1 DUP6 DUP2 SLOAD DUP2 LT PUSH2 0x53C JUMPI PUSH2 0x53B PUSH2 0x185B JUMP JUMPDEST JUMPDEST SWAP1 PUSH0 MSTORE PUSH1 0x20 PUSH0 KECCAK256 SWAP1 PUSH1 0x2 MUL ADD PUSH1 0x1 ADD PUSH1 0x8 SWAP1 SLOAD SWAP1 PUSH2 0x100 EXP SWAP1 DIV PUSH1 0xFF AND ISZERO ISZERO EQ PUSH2 0x564 JUMPI PUSH0 DUP1 REVERT JUMPDEST PUSH1 0x1 DUP5 DUP2 SLOAD DUP2 LT PUSH2 0x578 JUMPI PUSH2 0x577 PUSH2 0x185B JUMP JUMPDEST JUMPDEST SWAP1 PUSH0 MSTORE PUSH1 0x20 PUSH0 KECCAK256 SWAP1 PUSH1 0x2 MUL ADD PUSH1 0x1 ADD PUSH1 0x4 SWAP1 SLOAD SWAP1 PUSH2 0x100 EXP SWAP1 DIV PUSH4 0xFFFFFFFF AND PUSH4 0xFFFFFFFF AND PUSH1 0x1 DUP6 DUP2 SLOAD DUP2 LT PUSH2 0x5B2 JUMPI PUSH2 0x5B1 PUSH2 0x185B JUMP JUMPDEST JUMPDEST SWAP1 PUSH0 MSTORE PUSH1 0x20 PUSH0 KECCAK256 SWAP1 PUSH1 0x2 MUL ADD PUSH1 0x1 ADD PUSH0 SWAP1 SLOAD SWAP1 PUSH2 0x100 EXP SWAP1 DIV PUSH4 0xFFFFFFFF AND PUSH4 0xFFFFFFFF AND GT ISZERO PUSH2 0x61A JUMPI PUSH1 0x40 MLOAD DUP1 PUSH1 0x40 ADD PUSH1 0x40 MSTORE DUP1 PUSH1 0x13 DUP2 MSTORE PUSH1 0x20 ADD PUSH32 0x5175657374696F6E206861732070617373656400000000000000000000000000 DUP2 MSTORE POP SWAP3 POP PUSH2 0x653 JUMP JUMPDEST PUSH1 0x40 MLOAD DUP1 PUSH1 0x40 ADD PUSH1 0x40 MSTORE DUP1 PUSH1 0x17 DUP2 MSTORE PUSH1 0x20 ADD PUSH32 0x5175657374696F6E20686173206E6F7420706173736564000000000000000000 DUP2 MSTORE POP SWAP3 POP JUMPDEST POP POP SWAP2 SWAP1 POP JUMP JUMPDEST PUSH1 0x1 DUP2 DUP2 SLOAD DUP2 LT PUSH2 0x669 JUMPI PUSH0 DUP1 REVERT JUMPDEST SWAP1 PUSH0 MSTORE PUSH1 0x20 PUSH0 KECCAK256 SWAP1 PUSH1 0x2 MUL ADD PUSH0 SWAP2 POP SWAP1 POP DUP1 PUSH0 ADD DUP1 SLOAD PUSH2 0x688 SWAP1 PUSH2 0x17C3 JUMP JUMPDEST DUP1 PUSH1 0x1F ADD PUSH1 0x20 DUP1 SWAP2 DIV MUL PUSH1 0x20 ADD PUSH1 0x40 MLOAD SWAP1 DUP2 ADD PUSH1 0x40 MSTORE DUP1 SWAP3 SWAP2 SWAP1 DUP2 DUP2 MSTORE PUSH1 0x20 ADD DUP3 DUP1 SLOAD PUSH2 0x6B4 SWAP1 PUSH2 0x17C3 JUMP JUMPDEST DUP1 ISZERO PUSH2 0x6FF JUMPI DUP1 PUSH1 0x1F LT PUSH2 0x6D6 JUMPI PUSH2 0x100 DUP1 DUP4 SLOAD DIV MUL DUP4 MSTORE SWAP2 PUSH1 0x20 ADD SWAP2 PUSH2 0x6FF JUMP JUMPDEST DUP3 ADD SWAP2 SWAP1 PUSH0 MSTORE PUSH1 0x20 PUSH0 KECCAK256 SWAP1 JUMPDEST DUP2 SLOAD DUP2 MSTORE SWAP1 PUSH1 0x1 ADD SWAP1 PUSH1 0x20 ADD DUP1 DUP4 GT PUSH2 0x6E2 JUMPI DUP3 SWAP1 SUB PUSH1 0x1F AND DUP3 ADD SWAP2 JUMPDEST POP POP POP POP POP SWAP1 DUP1 PUSH1 0x1 ADD PUSH0 SWAP1 SLOAD SWAP1 PUSH2 0x100 EXP SWAP1 DIV PUSH4 0xFFFFFFFF AND SWAP1 DUP1 PUSH1 0x1 ADD PUSH1 0x4 SWAP1 SLOAD SWAP1 PUSH2 0x100 EXP SWAP1 DIV PUSH4 0xFFFFFFFF AND SWAP1 DUP1 PUSH1 0x1 ADD PUSH1 0x8 SWAP1 SLOAD SWAP1 PUSH2 0x100 EXP SWAP1 DIV PUSH1 0xFF AND SWAP1 POP DUP5 JUMP JUMPDEST PUSH0 DUP1 SLOAD SWAP1 PUSH2 0x100 EXP SWAP1 DIV PUSH20 0xFFFFFFFFFFFFFFFFFFFFFFFFFFFFFFFFFFFFFFFF AND PUSH20 0xFFFFFFFFFFFFFFFFFFFFFFFFFFFFFFFFFFFFFFFF AND CALLER PUSH20 0xFFFFFFFFFFFFFFFFFFFFFFFFFFFFFFFFFFFFFFFF AND EQ PUSH2 0x7D4 JUMPI PUSH1 0x40 MLOAD PUSH32 0x8C379A000000000000000000000000000000000000000000000000000000000 DUP2 MSTORE PUSH1 0x4 ADD PUSH2 0x7CB SWAP1 PUSH2 0x183D JUMP JUMPDEST PUSH1 0x40 MLOAD DUP1 SWAP2 SUB SWAP1 REVERT JUMPDEST PUSH0 PUSH1 0x1 DUP3 DUP2 SLOAD DUP2 LT PUSH2 0x7E9 JUMPI PUSH2 0x7E8 PUSH2 0x185B JUMP JUMPDEST JUMPDEST SWAP1 PUSH0 MSTORE PUSH1 0x20 PUSH0 KECCAK256 SWAP1 PUSH1 0x2 MUL ADD PUSH1 0x1 ADD PUSH1 0x8 PUSH2 0x100 EXP DUP2 SLOAD DUP2 PUSH1 0xFF MUL NOT AND SWAP1 DUP4 ISZERO ISZERO MUL OR SWAP1 SSTORE POP PUSH32 0xC4A72BFCBE149948D17EBD116A5B0CA0CBB653F51D74A688CC9B5FAE1FBACDB PUSH1 0x1 DUP3 DUP2 SLOAD DUP2 LT PUSH2 0x844 JUMPI PUSH2 0x843 PUSH2 0x185B JUMP JUMPDEST JUMPDEST SWAP1 PUSH0 MSTORE PUSH1 0x20 PUSH0 KECCAK256 SWAP1 PUSH1 0x2 MUL ADD PUSH0 ADD PUSH1 0x1 DUP4 DUP2 SLOAD DUP2 LT PUSH2 0x866 JUMPI PUSH2 0x865 PUSH2 0x185B JUMP JUMPDEST JUMPDEST SWAP1 PUSH0 MSTORE PUSH1 0x20 PUSH0 KECCAK256 SWAP1 PUSH1 0x2 MUL ADD PUSH1 0x1 ADD PUSH0 SWAP1 SLOAD SWAP1 PUSH2 0x100 EXP SWAP1 DIV PUSH4 0xFFFFFFFF AND PUSH1 0x1 DUP5 DUP2 SLOAD DUP2 LT PUSH2 0x899 JUMPI PUSH2 0x898 PUSH2 0x185B JUMP JUMPDEST JUMPDEST SWAP1 PUSH0 MSTORE PUSH1 0x20 PUSH0 KECCAK256 SWAP1 PUSH1 0x2 MUL ADD PUSH1 0x1 ADD PUSH1 0x4 SWAP1 SLOAD SWAP1 PUSH2 0x100 EXP SWAP1 DIV PUSH4 0xFFFFFFFF AND PUSH1 0x40 MLOAD PUSH2 0x8C8 SWAP4 SWAP3 SWAP2 SWAP1 PUSH2 0x1954 JUMP JUMPDEST PUSH1 0x40 MLOAD DUP1 SWAP2 SUB SWAP1 LOG1 POP JUMP JUMPDEST PUSH1 0x2 PUSH0 SWAP1 SLOAD SWAP1 PUSH2 0x100 EXP SWAP1 DIV PUSH20 0xFFFFFFFFFFFFFFFFFFFFFFFFFFFFFFFFFFFFFFFF AND DUP2 JUMP JUMPDEST PUSH1 0x3 PUSH1 0x20 MSTORE DUP1 PUSH0 MSTORE PUSH1 0x40 PUSH0 KECCAK256 PUSH0 SWAP2 POP SWAP1 POP DUP1 PUSH0 ADD PUSH0 SWAP1 SLOAD SWAP1 PUSH2 0x100 EXP SWAP1 DIV PUSH4 0xFFFFFFFF AND SWAP1 DUP1 PUSH0 ADD PUSH1 0x4 SWAP1 SLOAD SWAP1 PUSH2 0x100 EXP SWAP1 DIV PUSH1 0xFF AND SWAP1 DUP1 PUSH0 ADD PUSH1 0x5 SWAP1 SLOAD SWAP1 PUSH2 0x100 EXP SWAP1 DIV PUSH4 0xFFFFFFFF AND SWAP1 DUP1 PUSH0 ADD PUSH1 0x9 SWAP1 SLOAD SWAP1 PUSH2 0x100 EXP SWAP1 DIV PUSH4 0xFFFFFFFF AND SWAP1 DUP1 PUSH1 0x1 ADD PUSH0 SWAP1 SLOAD SWAP1 PUSH2 0x100 EXP SWAP1 DIV PUSH20 0xFFFFFFFFFFFFFFFFFFFFFFFFFFFFFFFFFFFFFFFF AND SWAP1 POP DUP6 JUMP JUMPDEST PUSH0 DUP1 SLOAD SWAP1 PUSH2 0x100 EXP SWAP1 DIV PUSH20 0xFFFFFFFFFFFFFFFFFFFFFFFFFFFFFFFFFFFFFFFF AND PUSH20 0xFFFFFFFFFFFFFFFFFFFFFFFFFFFFFFFFFFFFFFFF AND CALLER PUSH20 0xFFFFFFFFFFFFFFFFFFFFFFFFFFFFFFFFFFFFFFFF AND EQ PUSH2 0xA0F JUMPI PUSH1 0x40 MLOAD PUSH32 0x8C379A000000000000000000000000000000000000000000000000000000000 DUP2 MSTORE PUSH1 0x4 ADD PUSH2 0xA06 SWAP1 PUSH2 0x183D JUMP JUMPDEST PUSH1 0x40 MLOAD DUP1 SWAP2 SUB SWAP1 REVERT JUMPDEST DUP1 PUSH1 0x3 PUSH0 DUP5 PUSH20 0xFFFFFFFFFFFFFFFFFFFFFFFFFFFFFFFFFFFFFFFF AND PUSH20 0xFFFFFFFFFFFFFFFFFFFFFFFFFFFFFFFFFFFFFFFF AND DUP2 MSTORE PUSH1 0x20 ADD SWAP1 DUP2 MSTORE PUSH1 0x20 ADD PUSH0 KECCAK256 PUSH0 ADD PUSH0 PUSH2 0x100 EXP DUP2 SLOAD DUP2 PUSH4 0xFFFFFFFF MUL NOT AND SWAP1 DUP4 PUSH4 0xFFFFFFFF AND MUL OR SWAP1 SSTORE POP POP POP JUMP JUMPDEST PUSH0 DUP1 PUSH0 SWAP1 SLOAD SWAP1 PUSH2 0x100 EXP SWAP1 DIV PUSH20 0xFFFFFFFFFFFFFFFFFFFFFFFFFFFFFFFFFFFFFFFF AND SWAP1 POP SWAP1 JUMP JUMPDEST PUSH0 DUP1 SLOAD SWAP1 PUSH2 0x100 EXP SWAP1 DIV PUSH20 0xFFFFFFFFFFFFFFFFFFFFFFFFFFFFFFFFFFFFFFFF AND PUSH20 0xFFFFFFFFFFFFFFFFFFFFFFFFFFFFFFFFFFFFFFFF AND CALLER PUSH20 0xFFFFFFFFFFFFFFFFFFFFFFFFFFFFFFFFFFFFFFFF AND EQ PUSH2 0xB24 JUMPI PUSH1 0x40 MLOAD PUSH32 0x8C379A000000000000000000000000000000000000000000000000000000000 DUP2 MSTORE PUSH1 0x4 ADD PUSH2 0xB1B SWAP1 PUSH2 0x183D JUMP JUMPDEST PUSH1 0x40 MLOAD DUP1 SWAP2 SUB SWAP1 REVERT JUMPDEST PUSH1 0x1 PUSH1 0x3 PUSH0 DUP4 PUSH20 0xFFFFFFFFFFFFFFFFFFFFFFFFFFFFFFFFFFFFFFFF AND PUSH20 0xFFFFFFFFFFFFFFFFFFFFFFFFFFFFFFFFFFFFFFFF AND DUP2 MSTORE PUSH1 0x20 ADD SWAP1 DUP2 MSTORE PUSH1 0x20 ADD PUSH0 KECCAK256 PUSH0 ADD PUSH0 PUSH2 0x100 EXP DUP2 SLOAD DUP2 PUSH4 0xFFFFFFFF MUL NOT AND SWAP1 DUP4 PUSH4 0xFFFFFFFF AND MUL OR SWAP1 SSTORE POP PUSH1 0x1 PUSH1 0x3 PUSH0 DUP4 PUSH20 0xFFFFFFFFFFFFFFFFFFFFFFFFFFFFFFFFFFFFFFFF AND PUSH20 0xFFFFFFFFFFFFFFFFFFFFFFFFFFFFFFFFFFFFFFFF AND DUP2 MSTORE PUSH1 0x20 ADD SWAP1 DUP2 MSTORE PUSH1 0x20 ADD PUSH0 KECCAK256 PUSH0 ADD PUSH1 0x9 PUSH2 0x100 EXP DUP2 SLOAD DUP2 PUSH4 0xFFFFFFFF MUL NOT AND SWAP1 DUP4 PUSH4 0xFFFFFFFF AND MUL OR SWAP1 SSTORE POP DUP1 PUSH1 0x3 PUSH0 DUP4 PUSH20 0xFFFFFFFFFFFFFFFFFFFFFFFFFFFFFFFFFFFFFFFF AND PUSH20 0xFFFFFFFFFFFFFFFFFFFFFFFFFFFFFFFFFFFFFFFF AND DUP2 MSTORE PUSH1 0x20 ADD SWAP1 DUP2 MSTORE PUSH1 0x20 ADD PUSH0 KECCAK256 PUSH1 0x1 ADD PUSH0 PUSH2 0x100 EXP DUP2 SLOAD DUP2 PUSH20 0xFFFFFFFFFFFFFFFFFFFFFFFFFFFFFFFFFFFFFFFF MUL NOT AND SWAP1 DUP4 PUSH20 0xFFFFFFFFFFFFFFFFFFFFFFFFFFFFFFFFFFFFFFFF AND MUL OR SWAP1 SSTORE POP POP JUMP JUMPDEST PUSH0 DUP1 SLOAD SWAP1 PUSH2 0x100 EXP SWAP1 DIV PUSH20 0xFFFFFFFFFFFFFFFFFFFFFFFFFFFFFFFFFFFFFFFF AND PUSH20 0xFFFFFFFFFFFFFFFFFFFFFFFFFFFFFFFFFFFFFFFF AND CALLER PUSH20 0xFFFFFFFFFFFFFFFFFFFFFFFFFFFFFFFFFFFFFFFF AND EQ PUSH2 0xCEF JUMPI PUSH1 0x40 MLOAD PUSH32 0x8C379A000000000000000000000000000000000000000000000000000000000 DUP2 MSTORE PUSH1 0x4 ADD PUSH2 0xCE6 SWAP1 PUSH2 0x183D JUMP JUMPDEST PUSH1 0x40 MLOAD DUP1 SWAP2 SUB SWAP1 REVERT JUMPDEST PUSH1 0x1 PUSH1 0x40 MLOAD DUP1 PUSH1 0x80 ADD PUSH1 0x40 MSTORE DUP1 DUP4 DUP2 MSTORE PUSH1 0x20 ADD PUSH0 PUSH4 0xFFFFFFFF AND DUP2 MSTORE PUSH1 0x20 ADD PUSH0 PUSH4 0xFFFFFFFF AND DUP2 MSTORE PUSH1 0x20 ADD PUSH1 0x1 ISZERO ISZERO DUP2 MSTORE POP SWAP1 DUP1 PUSH1 0x1 DUP2 SLOAD ADD DUP1 DUP3 SSTORE DUP1 SWAP2 POP POP PUSH1 0x1 SWAP1 SUB SWAP1 PUSH0 MSTORE PUSH1 0x20 PUSH0 KECCAK256 SWAP1 PUSH1 0x2 MUL ADD PUSH0 SWAP1 SWAP2 SWAP1 SWAP2 SWAP1 SWAP2 POP PUSH0 DUP3 ADD MLOAD DUP2 PUSH0 ADD SWAP1 DUP2 PUSH2 0xD5A SWAP2 SWAP1 PUSH2 0x1B12 JUMP JUMPDEST POP PUSH1 0x20 DUP3 ADD MLOAD DUP2 PUSH1 0x1 ADD PUSH0 PUSH2 0x100 EXP DUP2 SLOAD DUP2 PUSH4 0xFFFFFFFF MUL NOT AND SWAP1 DUP4 PUSH4 0xFFFFFFFF AND MUL OR SWAP1 SSTORE POP PUSH1 0x40 DUP3 ADD MLOAD DUP2 PUSH1 0x1 ADD PUSH1 0x4 PUSH2 0x100 EXP DUP2 SLOAD DUP2 PUSH4 0xFFFFFFFF MUL NOT AND SWAP1 DUP4 PUSH4 0xFFFFFFFF AND MUL OR SWAP1 SSTORE POP PUSH1 0x60 DUP3 ADD MLOAD DUP2 PUSH1 0x1 ADD PUSH1 0x8 PUSH2 0x100 EXP DUP2 SLOAD DUP2 PUSH1 0xFF MUL NOT AND SWAP1 DUP4 ISZERO ISZERO MUL OR SWAP1 SSTORE POP POP POP PUSH32 0x230497B4479B19065F0FE9C0BDEE0259402F893CFA9E9B6A44FBF6ECCA6299C DUP2 PUSH1 0x40 MLOAD PUSH2 0xDF9 SWAP2 SWAP1 PUSH2 0x150E JUMP JUMPDEST PUSH1 0x40 MLOAD DUP1 SWAP2 SUB SWAP1 LOG1 POP JUMP JUMPDEST PUSH1 0x1 ISZERO ISZERO PUSH1 0x1 DUP4 DUP2 SLOAD DUP2 LT PUSH2 0xE1C JUMPI PUSH2 0xE1B PUSH2 0x185B JUMP JUMPDEST JUMPDEST SWAP1 PUSH0 MSTORE PUSH1 0x20 PUSH0 KECCAK256 SWAP1 PUSH1 0x2 MUL ADD PUSH1 0x1 ADD PUSH1 0x8 SWAP1 SLOAD SWAP1 PUSH2 0x100 EXP SWAP1 DIV PUSH1 0xFF AND ISZERO ISZERO EQ PUSH2 0xE44 JUMPI PUSH0 DUP1 REVERT JUMPDEST PUSH0 PUSH1 0x3 PUSH0 CALLER PUSH20 0xFFFFFFFFFFFFFFFFFFFFFFFFFFFFFFFFFFFFFFFF AND PUSH20 0xFFFFFFFFFFFFFFFFFFFFFFFFFFFFFFFFFFFFFFFF AND DUP2 MSTORE PUSH1 0x20 ADD SWAP1 DUP2 MSTORE PUSH1 0x20 ADD PUSH0 KECCAK256 PUSH0 ADD PUSH0 SWAP1 SLOAD SWAP1 PUSH2 0x100 EXP SWAP1 DIV PUSH4 0xFFFFFFFF AND PUSH4 0xFFFFFFFF AND GT PUSH2 0xEA3 JUMPI PUSH0 DUP1 REVERT JUMPDEST PUSH0 PUSH1 0x4 PUSH0 CALLER PUSH20 0xFFFFFFFFFFFFFFFFFFFFFFFFFFFFFFFFFFFFFFFF AND PUSH20 0xFFFFFFFFFFFFFFFFFFFFFFFFFFFFFFFFFFFFFFFF AND DUP2 MSTORE PUSH1 0x20 ADD SWAP1 DUP2 MSTORE PUSH1 0x20 ADD PUSH0 KECCAK256 SWAP1 POP PUSH0 PUSH1 0x1 DUP5 DUP2 SLOAD DUP2 LT PUSH2 0xEF8 JUMPI PUSH2 0xEF7 PUSH2 0x185B JUMP JUMPDEST JUMPDEST SWAP1 PUSH0 MSTORE PUSH1 0x20 PUSH0 KECCAK256 SWAP1 PUSH1 0x2 MUL ADD SWAP1 POP DUP1 PUSH1 0x40 MLOAD PUSH1 0x20 ADD PUSH2 0xF17 SWAP2 SWAP1 PUSH2 0x1D8D JUMP JUMPDEST PUSH1 0x40 MLOAD PUSH1 0x20 DUP2 DUP4 SUB SUB DUP2 MSTORE SWAP1 PUSH1 0x40 MSTORE DUP1 MLOAD SWAP1 PUSH1 0x20 ADD KECCAK256 DUP3 PUSH1 0x40 MLOAD PUSH1 0x20 ADD PUSH2 0xF3E SWAP2 SWAP1 PUSH2 0x1D8D JUMP JUMPDEST PUSH1 0x40 MLOAD PUSH1 0x20 DUP2 DUP4 SUB SUB DUP2 MSTORE SWAP1 PUSH1 0x40 MSTORE DUP1 MLOAD SWAP1 PUSH1 0x20 ADD KECCAK256 SUB PUSH2 0xF5D JUMPI PUSH0 DUP1 REVERT JUMPDEST DUP3 PUSH1 0x3 PUSH0 CALLER PUSH20 0xFFFFFFFFFFFFFFFFFFFFFFFFFFFFFFFFFFFFFFFF AND PUSH20 0xFFFFFFFFFFFFFFFFFFFFFFFFFFFFFFFFFFFFFFFF AND DUP2 MSTORE PUSH1 0x20 ADD SWAP1 DUP2 MSTORE PUSH1 0x20 ADD PUSH0 KECCAK256 PUSH0 ADD PUSH1 0x5 PUSH2 0x100 EXP DUP2 SLOAD DUP2 PUSH4 0xFFFFFFFF MUL NOT AND SWAP1 DUP4 PUSH4 0xFFFFFFFF AND MUL OR SWAP1 SSTORE POP PUSH1 0x1 PUSH1 0x3 PUSH0 CALLER PUSH20 0xFFFFFFFFFFFFFFFFFFFFFFFFFFFFFFFFFFFFFFFF AND PUSH20 0xFFFFFFFFFFFFFFFFFFFFFFFFFFFFFFFFFFFFFFFF AND DUP2 MSTORE PUSH1 0x20 ADD SWAP1 DUP2 MSTORE PUSH1 0x20 ADD PUSH0 KECCAK256 PUSH0 ADD PUSH1 0x4 PUSH2 0x100 EXP DUP2 SLOAD DUP2 PUSH1 0xFF MUL NOT AND SWAP1 DUP4 ISZERO ISZERO MUL OR SWAP1 SSTORE POP PUSH0 DUP4 GT ISZERO PUSH2 0x1081 JUMPI PUSH1 0x1 DUP5 DUP2 SLOAD DUP2 LT PUSH2 0x102F JUMPI PUSH2 0x102E PUSH2 0x185B JUMP JUMPDEST JUMPDEST SWAP1 PUSH0 MSTORE PUSH1 0x20 PUSH0 KECCAK256 SWAP1 PUSH1 0x2 MUL ADD PUSH1 0x1 ADD PUSH0 DUP2 DUP2 SWAP1 SLOAD SWAP1 PUSH2 0x100 EXP SWAP1 DIV PUSH4 0xFFFFFFFF AND DUP1 SWAP3 SWAP2 SWAP1 PUSH2 0x105D SWAP1 PUSH2 0x1DDA JUMP JUMPDEST SWAP2 SWAP1 PUSH2 0x100 EXP DUP2 SLOAD DUP2 PUSH4 0xFFFFFFFF MUL NOT AND SWAP1 DUP4 PUSH4 0xFFFFFFFF AND MUL OR SWAP1 SSTORE POP POP PUSH2 0x10E4 JUMP JUMPDEST PUSH1 0x1 DUP5 DUP2 SLOAD DUP2 LT PUSH2 0x1095 JUMPI PUSH2 0x1094 PUSH2 0x185B JUMP JUMPDEST JUMPDEST SWAP1 PUSH0 MSTORE PUSH1 0x20 PUSH0 KECCAK256 SWAP1 PUSH1 0x2 MUL ADD PUSH1 0x1 ADD PUSH1 0x4 DUP2 DUP2 SWAP1 SLOAD SWAP1 PUSH2 0x100 EXP SWAP1 DIV PUSH4 0xFFFFFFFF AND DUP1 SWAP3 SWAP2 SWAP1 PUSH2 0x10C4 SWAP1 PUSH2 0x1DDA JUMP JUMPDEST SWAP2 SWAP1 PUSH2 0x100 EXP DUP2 SLOAD DUP2 PUSH4 0xFFFFFFFF MUL NOT AND SWAP1 DUP4 PUSH4 0xFFFFFFFF AND MUL OR SWAP1 SSTORE POP POP JUMPDEST PUSH1 0x1 DUP5 DUP2 SLOAD DUP2 LT PUSH2 0x10F8 JUMPI PUSH2 0x10F7 PUSH2 0x185B JUMP JUMPDEST JUMPDEST SWAP1 PUSH0 MSTORE PUSH1 0x20 PUSH0 KECCAK256 SWAP1 PUSH1 0x2 MUL ADD PUSH1 0x4 PUSH0 CALLER PUSH20 0xFFFFFFFFFFFFFFFFFFFFFFFFFFFFFFFFFFFFFFFF AND PUSH20 0xFFFFFFFFFFFFFFFFFFFFFFFFFFFFFFFFFFFFFFFF AND DUP2 MSTORE PUSH1 0x20 ADD SWAP1 DUP2 MSTORE PUSH1 0x20 ADD PUSH0 KECCAK256 PUSH0 DUP3 ADD DUP2 PUSH0 ADD SWAP1 DUP2 PUSH2 0x1153 SWAP2 SWAP1 PUSH2 0x1E1A JUMP JUMPDEST POP PUSH1 0x1 DUP3 ADD PUSH0 SWAP1 SLOAD SWAP1 PUSH2 0x100 EXP SWAP1 DIV PUSH4 0xFFFFFFFF AND DUP2 PUSH1 0x1 ADD PUSH0 PUSH2 0x100 EXP DUP2 SLOAD DUP2 PUSH4 0xFFFFFFFF MUL NOT AND SWAP1 DUP4 PUSH4 0xFFFFFFFF AND MUL OR SWAP1 SSTORE POP PUSH1 0x1 DUP3 ADD PUSH1 0x4 SWAP1 SLOAD SWAP1 PUSH2 0x100 EXP SWAP1 DIV PUSH4 0xFFFFFFFF AND DUP2 PUSH1 0x1 ADD PUSH1 0x4 PUSH2 0x100 EXP DUP2 SLOAD DUP2 PUSH4 0xFFFFFFFF MUL NOT AND SWAP1 DUP4 PUSH4 0xFFFFFFFF AND MUL OR SWAP1 SSTORE POP PUSH1 0x1 DUP3 ADD PUSH1 0x8 SWAP1 SLOAD SWAP1 PUSH2 0x100 EXP SWAP1 DIV PUSH1 0xFF AND DUP2 PUSH1 0x1 ADD PUSH1 0x8 PUSH2 0x100 EXP DUP2 SLOAD DUP2 PUSH1 0xFF MUL NOT AND SWAP1 DUP4 ISZERO ISZERO MUL OR SWAP1 SSTORE POP SWAP1 POP POP POP POP POP POP JUMP JUMPDEST PUSH0 DUP1 SLOAD SWAP1 PUSH2 0x100 EXP SWAP1 DIV PUSH20 0xFFFFFFFFFFFFFFFFFFFFFFFFFFFFFFFFFFFFFFFF AND PUSH20 0xFFFFFFFFFFFFFFFFFFFFFFFFFFFFFFFFFFFFFFFF AND CALLER PUSH20 0xFFFFFFFFFFFFFFFFFFFFFFFFFFFFFFFFFFFFFFFF AND EQ PUSH2 0x1283 JUMPI PUSH1 0x40 MLOAD PUSH32 0x8C379A000000000000000000000000000000000000000000000000000000000 DUP2 MSTORE PUSH1 0x4 ADD PUSH2 0x127A SWAP1 PUSH2 0x183D JUMP JUMPDEST PUSH1 0x40 MLOAD DUP1 SWAP2 SUB SWAP1 REVERT JUMPDEST DUP1 PUSH1 0x3 PUSH0 DUP5 PUSH20 0xFFFFFFFFFFFFFFFFFFFFFFFFFFFFFFFFFFFFFFFF AND PUSH20 0xFFFFFFFFFFFFFFFFFFFFFFFFFFFFFFFFFFFFFFFF AND DUP2 MSTORE PUSH1 0x20 ADD SWAP1 DUP2 MSTORE PUSH1 0x20 ADD PUSH0 KECCAK256 PUSH0 ADD PUSH1 0x9 PUSH2 0x100 EXP DUP2 SLOAD DUP2 PUSH4 0xFFFFFFFF MUL NOT AND SWAP1 DUP4 PUSH4 0xFFFFFFFF AND MUL OR SWAP1 SSTORE POP POP POP JUMP JUMPDEST PUSH0 PUSH11 0x636F6E736F6C652E6C6F67 SWAP1 POP PUSH0 DUP1 DUP4 MLOAD PUSH1 0x20 DUP6 ADD DUP5 GAS STATICCALL POP POP POP JUMP JUMPDEST PUSH2 0x130C PUSH2 0x1EFF JUMP JUMPDEST JUMP JUMPDEST PUSH0 PUSH1 0x40 MLOAD SWAP1 POP SWAP1 JUMP JUMPDEST PUSH0 DUP1 REVERT JUMPDEST PUSH0 DUP1 REVERT JUMPDEST PUSH0 PUSH20 0xFFFFFFFFFFFFFFFFFFFFFFFFFFFFFFFFFFFFFFFF DUP3 AND SWAP1 POP SWAP2 SWAP1 POP JUMP JUMPDEST PUSH0 PUSH2 0x1348 DUP3 PUSH2 0x131F JUMP JUMPDEST SWAP1 POP SWAP2 SWAP1 POP JUMP JUMPDEST PUSH2 0x1358 DUP2 PUSH2 0x133E JUMP JUMPDEST DUP2 EQ PUSH2 0x1362 JUMPI PUSH0 DUP1 REVERT JUMPDEST POP JUMP JUMPDEST PUSH0 DUP2 CALLDATALOAD SWAP1 POP PUSH2 0x1373 DUP2 PUSH2 0x134F JUMP JUMPDEST SWAP3 SWAP2 POP POP JUMP JUMPDEST PUSH0 PUSH1 0x20 DUP3 DUP5 SUB SLT ISZERO PUSH2 0x138E JUMPI PUSH2 0x138D PUSH2 0x1317 JUMP JUMPDEST JUMPDEST PUSH0 PUSH2 0x139B DUP5 DUP3 DUP6 ADD PUSH2 0x1365 JUMP JUMPDEST SWAP2 POP POP SWAP3 SWAP2 POP POP JUMP JUMPDEST PUSH0 DUP2 MLOAD SWAP1 POP SWAP2 SWAP1 POP JUMP JUMPDEST PUSH0 DUP3 DUP3 MSTORE PUSH1 0x20 DUP3 ADD SWAP1 POP SWAP3 SWAP2 POP POP JUMP JUMPDEST PUSH0 JUMPDEST DUP4 DUP2 LT ISZERO PUSH2 0x13DB JUMPI DUP1 DUP3 ADD MLOAD DUP2 DUP5 ADD MSTORE PUSH1 0x20 DUP2 ADD SWAP1 POP PUSH2 0x13C0 JUMP JUMPDEST PUSH0 DUP5 DUP5 ADD MSTORE POP POP POP POP JUMP JUMPDEST PUSH0 PUSH1 0x1F NOT PUSH1 0x1F DUP4 ADD AND SWAP1 POP SWAP2 SWAP1 POP JUMP JUMPDEST PUSH0 PUSH2 0x1400 DUP3 PUSH2 0x13A4 JUMP JUMPDEST PUSH2 0x140A DUP2 DUP6 PUSH2 0x13AE JUMP JUMPDEST SWAP4 POP PUSH2 0x141A DUP2 DUP6 PUSH1 0x20 DUP7 ADD PUSH2 0x13BE JUMP JUMPDEST PUSH2 0x1423 DUP2 PUSH2 0x13E6 JUMP JUMPDEST DUP5 ADD SWAP2 POP POP SWAP3 SWAP2 POP POP JUMP JUMPDEST PUSH0 PUSH4 0xFFFFFFFF DUP3 AND SWAP1 POP SWAP2 SWAP1 POP JUMP JUMPDEST PUSH2 0x1446 DUP2 PUSH2 0x142E JUMP JUMPDEST DUP3 MSTORE POP POP JUMP JUMPDEST PUSH0 DUP2 ISZERO ISZERO SWAP1 POP SWAP2 SWAP1 POP JUMP JUMPDEST PUSH2 0x1460 DUP2 PUSH2 0x144C JUMP JUMPDEST DUP3 MSTORE POP POP JUMP JUMPDEST PUSH0 PUSH1 0x80 DUP3 ADD SWAP1 POP DUP2 DUP2 SUB PUSH0 DUP4 ADD MSTORE PUSH2 0x147E DUP2 DUP8 PUSH2 0x13F6 JUMP JUMPDEST SWAP1 POP PUSH2 0x148D PUSH1 0x20 DUP4 ADD DUP7 PUSH2 0x143D JUMP JUMPDEST PUSH2 0x149A PUSH1 0x40 DUP4 ADD DUP6 PUSH2 0x143D JUMP JUMPDEST PUSH2 0x14A7 PUSH1 0x60 DUP4 ADD DUP5 PUSH2 0x1457 JUMP JUMPDEST SWAP6 SWAP5 POP POP POP POP POP JUMP JUMPDEST PUSH0 DUP2 SWAP1 POP SWAP2 SWAP1 POP JUMP JUMPDEST PUSH2 0x14C2 DUP2 PUSH2 0x14B0 JUMP JUMPDEST DUP2 EQ PUSH2 0x14CC JUMPI PUSH0 DUP1 REVERT JUMPDEST POP JUMP JUMPDEST PUSH0 DUP2 CALLDATALOAD SWAP1 POP PUSH2 0x14DD DUP2 PUSH2 0x14B9 JUMP JUMPDEST SWAP3 SWAP2 POP POP JUMP JUMPDEST PUSH0 PUSH1 0x20 DUP3 DUP5 SUB SLT ISZERO PUSH2 0x14F8 JUMPI PUSH2 0x14F7 PUSH2 0x1317 JUMP JUMPDEST JUMPDEST PUSH0 PUSH2 0x1505 DUP5 DUP3 DUP6 ADD PUSH2 0x14CF JUMP JUMPDEST SWAP2 POP POP SWAP3 SWAP2 POP POP JUMP JUMPDEST PUSH0 PUSH1 0x20 DUP3 ADD SWAP1 POP DUP2 DUP2 SUB PUSH0 DUP4 ADD MSTORE PUSH2 0x1526 DUP2 DUP5 PUSH2 0x13F6 JUMP JUMPDEST SWAP1 POP SWAP3 SWAP2 POP POP JUMP JUMPDEST PUSH2 0x1537 DUP2 PUSH2 0x133E JUMP JUMPDEST DUP3 MSTORE POP POP JUMP JUMPDEST PUSH0 PUSH1 0x20 DUP3 ADD SWAP1 POP PUSH2 0x1550 PUSH0 DUP4 ADD DUP5 PUSH2 0x152E JUMP JUMPDEST SWAP3 SWAP2 POP POP JUMP JUMPDEST PUSH0 PUSH1 0xA0 DUP3 ADD SWAP1 POP PUSH2 0x1569 PUSH0 DUP4 ADD DUP9 PUSH2 0x143D JUMP JUMPDEST PUSH2 0x1576 PUSH1 0x20 DUP4 ADD DUP8 PUSH2 0x1457 JUMP JUMPDEST PUSH2 0x1583 PUSH1 0x40 DUP4 ADD DUP7 PUSH2 0x143D JUMP JUMPDEST PUSH2 0x1590 PUSH1 0x60 DUP4 ADD DUP6 PUSH2 0x143D JUMP JUMPDEST PUSH2 0x159D PUSH1 0x80 DUP4 ADD DUP5 PUSH2 0x152E JUMP JUMPDEST SWAP7 SWAP6 POP POP POP POP POP POP JUMP JUMPDEST PUSH0 DUP1 PUSH1 0x40 DUP4 DUP6 SUB SLT ISZERO PUSH2 0x15BD JUMPI PUSH2 0x15BC PUSH2 0x1317 JUMP JUMPDEST JUMPDEST PUSH0 PUSH2 0x15CA DUP6 DUP3 DUP7 ADD PUSH2 0x1365 JUMP JUMPDEST SWAP3 POP POP PUSH1 0x20 PUSH2 0x15DB DUP6 DUP3 DUP7 ADD PUSH2 0x14CF JUMP JUMPDEST SWAP2 POP POP SWAP3 POP SWAP3 SWAP1 POP JUMP JUMPDEST PUSH0 DUP1 REVERT JUMPDEST PUSH0 DUP1 REVERT JUMPDEST PUSH32 0x4E487B7100000000000000000000000000000000000000000000000000000000 PUSH0 MSTORE PUSH1 0x41 PUSH1 0x4 MSTORE PUSH1 0x24 PUSH0 REVERT JUMPDEST PUSH2 0x1623 DUP3 PUSH2 0x13E6 JUMP JUMPDEST DUP2 ADD DUP2 DUP2 LT PUSH8 0xFFFFFFFFFFFFFFFF DUP3 GT OR ISZERO PUSH2 0x1642 JUMPI PUSH2 0x1641 PUSH2 0x15ED JUMP JUMPDEST JUMPDEST DUP1 PUSH1 0x40 MSTORE POP POP POP JUMP JUMPDEST PUSH0 PUSH2 0x1654 PUSH2 0x130E JUMP JUMPDEST SWAP1 POP PUSH2 0x1660 DUP3 DUP3 PUSH2 0x161A JUMP JUMPDEST SWAP2 SWAP1 POP JUMP JUMPDEST PUSH0 PUSH8 0xFFFFFFFFFFFFFFFF DUP3 GT ISZERO PUSH2 0x167F JUMPI PUSH2 0x167E PUSH2 0x15ED JUMP JUMPDEST JUMPDEST PUSH2 0x1688 DUP3 PUSH2 0x13E6 JUMP JUMPDEST SWAP1 POP PUSH1 0x20 DUP2 ADD SWAP1 POP SWAP2 SWAP1 POP JUMP JUMPDEST DUP3 DUP2 DUP4 CALLDATACOPY PUSH0 DUP4 DUP4 ADD MSTORE POP POP POP JUMP JUMPDEST PUSH0 PUSH2 0x16B5 PUSH2 0x16B0 DUP5 PUSH2 0x1665 JUMP JUMPDEST PUSH2 0x164B JUMP JUMPDEST SWAP1 POP DUP3 DUP2 MSTORE PUSH1 0x20 DUP2 ADD DUP5 DUP5 DUP5 ADD GT ISZERO PUSH2 0x16D1 JUMPI PUSH2 0x16D0 PUSH2 0x15E9 JUMP JUMPDEST JUMPDEST PUSH2 0x16DC DUP5 DUP3 DUP6 PUSH2 0x1695 JUMP JUMPDEST POP SWAP4 SWAP3 POP POP POP JUMP JUMPDEST PUSH0 DUP3 PUSH1 0x1F DUP4 ADD SLT PUSH2 0x16F8 JUMPI PUSH2 0x16F7 PUSH2 0x15E5 JUMP JUMPDEST JUMPDEST DUP2 CALLDATALOAD PUSH2 0x1708 DUP5 DUP3 PUSH1 0x20 DUP7 ADD PUSH2 0x16A3 JUMP JUMPDEST SWAP2 POP POP SWAP3 SWAP2 POP POP JUMP JUMPDEST PUSH0 PUSH1 0x20 DUP3 DUP5 SUB SLT ISZERO PUSH2 0x1726 JUMPI PUSH2 0x1725 PUSH2 0x1317 JUMP JUMPDEST JUMPDEST PUSH0 DUP3 ADD CALLDATALOAD PUSH8 0xFFFFFFFFFFFFFFFF DUP2 GT ISZERO PUSH2 0x1743 JUMPI PUSH2 0x1742 PUSH2 0x131B JUMP JUMPDEST JUMPDEST PUSH2 0x174F DUP5 DUP3 DUP6 ADD PUSH2 0x16E4 JUMP JUMPDEST SWAP2 POP POP SWAP3 SWAP2 POP POP JUMP JUMPDEST PUSH0 DUP1 PUSH1 0x40 DUP4 DUP6 SUB SLT ISZERO PUSH2 0x176E JUMPI PUSH2 0x176D PUSH2 0x1317 JUMP JUMPDEST JUMPDEST PUSH0 PUSH2 0x177B DUP6 DUP3 DUP7 ADD PUSH2 0x14CF JUMP JUMPDEST SWAP3 POP POP PUSH1 0x20 PUSH2 0x178C DUP6 DUP3 DUP7 ADD PUSH2 0x14CF JUMP JUMPDEST SWAP2 POP POP SWAP3 POP SWAP3 SWAP1 POP JUMP JUMPDEST PUSH32 0x4E487B7100000000000000000000000000000000000000000000000000000000 PUSH0 MSTORE PUSH1 0x22 PUSH1 0x4 MSTORE PUSH1 0x24 PUSH0 REVERT JUMPDEST PUSH0 PUSH1 0x2 DUP3 DIV SWAP1 POP PUSH1 0x1 DUP3 AND DUP1 PUSH2 0x17DA JUMPI PUSH1 0x7F DUP3 AND SWAP2 POP JUMPDEST PUSH1 0x20 DUP3 LT DUP2 SUB PUSH2 0x17ED JUMPI PUSH2 0x17EC PUSH2 0x1796 JUMP JUMPDEST JUMPDEST POP SWAP2 SWAP1 POP JUMP JUMPDEST PUSH32 0x43616C6C6572206973206E6F74206469726563746F7200000000000000000000 PUSH0 DUP3 ADD MSTORE POP JUMP JUMPDEST PUSH0 PUSH2 0x1827 PUSH1 0x16 DUP4 PUSH2 0x13AE JUMP JUMPDEST SWAP2 POP PUSH2 0x1832 DUP3 PUSH2 0x17F3 JUMP JUMPDEST PUSH1 0x20 DUP3 ADD SWAP1 POP SWAP2 SWAP1 POP JUMP JUMPDEST PUSH0 PUSH1 0x20 DUP3 ADD SWAP1 POP DUP2 DUP2 SUB PUSH0 DUP4 ADD MSTORE PUSH2 0x1854 DUP2 PUSH2 0x181B JUMP JUMPDEST SWAP1 POP SWAP2 SWAP1 POP JUMP JUMPDEST PUSH32 0x4E487B7100000000000000000000000000000000000000000000000000000000 PUSH0 MSTORE PUSH1 0x32 PUSH1 0x4 MSTORE PUSH1 0x24 PUSH0 REVERT JUMPDEST PUSH0 DUP2 SWAP1 POP DUP2 PUSH0 MSTORE PUSH1 0x20 PUSH0 KECCAK256 SWAP1 POP SWAP2 SWAP1 POP JUMP JUMPDEST PUSH0 DUP2 SLOAD PUSH2 0x18A6 DUP2 PUSH2 0x17C3 JUMP JUMPDEST PUSH2 0x18B0 DUP2 DUP7 PUSH2 0x13AE JUMP JUMPDEST SWAP5 POP PUSH1 0x1 DUP3 AND PUSH0 DUP2 EQ PUSH2 0x18CA JUMPI PUSH1 0x1 DUP2 EQ PUSH2 0x18E0 JUMPI PUSH2 0x1912 JUMP JUMPDEST PUSH1 0xFF NOT DUP4 AND DUP7 MSTORE DUP2 ISZERO ISZERO PUSH1 0x20 MUL DUP7 ADD SWAP4 POP PUSH2 0x1912 JUMP JUMPDEST PUSH2 0x18E9 DUP6 PUSH2 0x1888 JUMP JUMPDEST PUSH0 JUMPDEST DUP4 DUP2 LT ISZERO PUSH2 0x190A JUMPI DUP2 SLOAD DUP2 DUP10 ADD MSTORE PUSH1 0x1 DUP3 ADD SWAP2 POP PUSH1 0x20 DUP2 ADD SWAP1 POP PUSH2 0x18EB JUMP JUMPDEST DUP1 DUP9 ADD SWAP6 POP POP POP JUMPDEST POP POP POP SWAP3 SWAP2 POP POP JUMP JUMPDEST PUSH0 DUP2 SWAP1 POP SWAP2 SWAP1 POP JUMP JUMPDEST PUSH0 PUSH2 0x193E PUSH2 0x1939 PUSH2 0x1934 DUP5 PUSH2 0x142E JUMP JUMPDEST PUSH2 0x191B JUMP JUMPDEST PUSH2 0x14B0 JUMP JUMPDEST SWAP1 POP SWAP2 SWAP1 POP JUMP JUMPDEST PUSH2 0x194E DUP2 PUSH2 0x1924 JUMP JUMPDEST DUP3 MSTORE POP POP JUMP JUMPDEST PUSH0 PUSH1 0x60 DUP3 ADD SWAP1 POP DUP2 DUP2 SUB PUSH0 DUP4 ADD MSTORE PUSH2 0x196C DUP2 DUP7 PUSH2 0x189A JUMP JUMPDEST SWAP1 POP PUSH2 0x197B PUSH1 0x20 DUP4 ADD DUP6 PUSH2 0x1945 JUMP JUMPDEST PUSH2 0x1988 PUSH1 0x40 DUP4 ADD DUP5 PUSH2 0x1945 JUMP JUMPDEST SWAP5 SWAP4 POP POP POP POP JUMP JUMPDEST PUSH0 PUSH1 0x20 PUSH1 0x1F DUP4 ADD DIV SWAP1 POP SWAP2 SWAP1 POP JUMP JUMPDEST PUSH0 DUP3 DUP3 SHL SWAP1 POP SWAP3 SWAP2 POP POP JUMP JUMPDEST PUSH0 PUSH1 0x8 DUP4 MUL PUSH2 0x19DA PUSH32 0xFFFFFFFFFFFFFFFFFFFFFFFFFFFFFFFFFFFFFFFFFFFFFFFFFFFFFFFFFFFFFFFF DUP3 PUSH2 0x199F JUMP JUMPDEST PUSH2 0x19E4 DUP7 DUP4 PUSH2 0x199F JUMP JUMPDEST SWAP6 POP DUP1 NOT DUP5 AND SWAP4 POP DUP1 DUP7 AND DUP5 OR SWAP3 POP POP POP SWAP4 SWAP3 POP POP POP JUMP JUMPDEST PUSH0 PUSH2 0x1A16 PUSH2 0x1A11 PUSH2 0x1A0C DUP5 PUSH2 0x14B0 JUMP JUMPDEST PUSH2 0x191B JUMP JUMPDEST PUSH2 0x14B0 JUMP JUMPDEST SWAP1 POP SWAP2 SWAP1 POP JUMP JUMPDEST PUSH0 DUP2 SWAP1 POP SWAP2 SWAP1 POP JUMP JUMPDEST PUSH2 0x1A2F DUP4 PUSH2 0x19FC JUMP JUMPDEST PUSH2 0x1A43 PUSH2 0x1A3B DUP3 PUSH2 0x1A1D JUMP JUMPDEST DUP5 DUP5 SLOAD PUSH2 0x19AB JUMP JUMPDEST DUP3 SSTORE POP POP POP POP JUMP JUMPDEST PUSH0 SWAP1 JUMP JUMPDEST PUSH2 0x1A57 PUSH2 0x1A4B JUMP JUMPDEST PUSH2 0x1A62 DUP2 DUP5 DUP5 PUSH2 0x1A26 JUMP JUMPDEST POP POP POP JUMP JUMPDEST JUMPDEST DUP2 DUP2 LT ISZERO PUSH2 0x1A85 JUMPI PUSH2 0x1A7A PUSH0 DUP3 PUSH2 0x1A4F JUMP JUMPDEST PUSH1 0x1 DUP2 ADD SWAP1 POP PUSH2 0x1A68 JUMP JUMPDEST POP POP JUMP JUMPDEST PUSH1 0x1F DUP3 GT ISZERO PUSH2 0x1ACA JUMPI PUSH2 0x1A9B DUP2 PUSH2 0x1888 JUMP JUMPDEST PUSH2 0x1AA4 DUP5 PUSH2 0x1990 JUMP JUMPDEST DUP2 ADD PUSH1 0x20 DUP6 LT ISZERO PUSH2 0x1AB3 JUMPI DUP2 SWAP1 POP JUMPDEST PUSH2 0x1AC7 PUSH2 0x1ABF DUP6 PUSH2 0x1990 JUMP JUMPDEST DUP4 ADD DUP3 PUSH2 0x1A67 JUMP JUMPDEST POP POP JUMPDEST POP POP POP JUMP JUMPDEST PUSH0 DUP3 DUP3 SHR SWAP1 POP SWAP3 SWAP2 POP POP JUMP JUMPDEST PUSH0 PUSH2 0x1AEA PUSH0 NOT DUP5 PUSH1 0x8 MUL PUSH2 0x1ACF JUMP JUMPDEST NOT DUP1 DUP4 AND SWAP2 POP POP SWAP3 SWAP2 POP POP JUMP JUMPDEST PUSH0 PUSH2 0x1B02 DUP4 DUP4 PUSH2 0x1ADB JUMP JUMPDEST SWAP2 POP DUP3 PUSH1 0x2 MUL DUP3 OR SWAP1 POP SWAP3 SWAP2 POP POP JUMP JUMPDEST PUSH2 0x1B1B DUP3 PUSH2 0x13A4 JUMP JUMPDEST PUSH8 0xFFFFFFFFFFFFFFFF DUP2 GT ISZERO PUSH2 0x1B34 JUMPI PUSH2 0x1B33 PUSH2 0x15ED JUMP JUMPDEST JUMPDEST PUSH2 0x1B3E DUP3 SLOAD PUSH2 0x17C3 JUMP JUMPDEST PUSH2 0x1B49 DUP3 DUP3 DUP6 PUSH2 0x1A89 JUMP JUMPDEST PUSH0 PUSH1 0x20 SWAP1 POP PUSH1 0x1F DUP4 GT PUSH1 0x1 DUP2 EQ PUSH2 0x1B7A JUMPI PUSH0 DUP5 ISZERO PUSH2 0x1B68 JUMPI DUP3 DUP8 ADD MLOAD SWAP1 POP JUMPDEST PUSH2 0x1B72 DUP6 DUP3 PUSH2 0x1AF7 JUMP JUMPDEST DUP7 SSTORE POP PUSH2 0x1BD9 JUMP JUMPDEST PUSH1 0x1F NOT DUP5 AND PUSH2 0x1B88 DUP7 PUSH2 0x1888 JUMP JUMPDEST PUSH0 JUMPDEST DUP3 DUP2 LT ISZERO PUSH2 0x1BAF JUMPI DUP5 DUP10 ADD MLOAD DUP3 SSTORE PUSH1 0x1 DUP3 ADD SWAP2 POP PUSH1 0x20 DUP6 ADD SWAP5 POP PUSH1 0x20 DUP2 ADD SWAP1 POP PUSH2 0x1B8A JUMP JUMPDEST DUP7 DUP4 LT ISZERO PUSH2 0x1BCC JUMPI DUP5 DUP10 ADD MLOAD PUSH2 0x1BC8 PUSH1 0x1F DUP10 AND DUP3 PUSH2 0x1ADB JUMP JUMPDEST DUP4 SSTORE POP JUMPDEST PUSH1 0x1 PUSH1 0x2 DUP9 MUL ADD DUP9 SSTORE POP POP POP JUMPDEST POP POP POP POP POP POP JUMP JUMPDEST PUSH0 DUP3 DUP3 MSTORE PUSH1 0x20 DUP3 ADD SWAP1 POP SWAP3 SWAP2 POP POP JUMP JUMPDEST PUSH0 DUP2 SLOAD PUSH2 0x1BFD DUP2 PUSH2 0x17C3 JUMP JUMPDEST PUSH2 0x1C07 DUP2 DUP7 PUSH2 0x1BE1 JUMP JUMPDEST SWAP5 POP PUSH1 0x1 DUP3 AND PUSH0 DUP2 EQ PUSH2 0x1C21 JUMPI PUSH1 0x1 DUP2 EQ PUSH2 0x1C37 JUMPI PUSH2 0x1C69 JUMP JUMPDEST PUSH1 0xFF NOT DUP4 AND DUP7 MSTORE DUP2 ISZERO ISZERO PUSH1 0x20 MUL DUP7 ADD SWAP4 POP PUSH2 0x1C69 JUMP JUMPDEST PUSH2 0x1C40 DUP6 PUSH2 0x1888 JUMP JUMPDEST PUSH0 JUMPDEST DUP4 DUP2 LT ISZERO PUSH2 0x1C61 JUMPI DUP2 SLOAD DUP2 DUP10 ADD MSTORE PUSH1 0x1 DUP3 ADD SWAP2 POP PUSH1 0x20 DUP2 ADD SWAP1 POP PUSH2 0x1C42 JUMP JUMPDEST DUP1 DUP9 ADD SWAP6 POP POP POP JUMPDEST POP POP POP SWAP3 SWAP2 POP POP JUMP JUMPDEST PUSH0 DUP2 PUSH0 SHR SWAP1 POP SWAP2 SWAP1 POP JUMP JUMPDEST PUSH0 PUSH4 0xFFFFFFFF DUP3 AND SWAP1 POP SWAP2 SWAP1 POP JUMP JUMPDEST PUSH0 PUSH2 0x1C9E PUSH2 0x1C99 DUP4 PUSH2 0x1C72 JUMP JUMPDEST PUSH2 0x1C7D JUMP JUMPDEST SWAP1 POP SWAP2 SWAP1 POP JUMP JUMPDEST PUSH2 0x1CAE DUP2 PUSH2 0x142E JUMP JUMPDEST DUP3 MSTORE POP POP JUMP JUMPDEST PUSH0 DUP2 PUSH1 0x20 SHR SWAP1 POP SWAP2 SWAP1 POP JUMP JUMPDEST PUSH0 PUSH2 0x1CD2 PUSH2 0x1CCD DUP4 PUSH2 0x1CB4 JUMP JUMPDEST PUSH2 0x1C7D JUMP JUMPDEST SWAP1 POP SWAP2 SWAP1 POP JUMP JUMPDEST PUSH0 DUP2 PUSH1 0x40 SHR SWAP1 POP SWAP2 SWAP1 POP JUMP JUMPDEST PUSH0 PUSH1 0xFF DUP3 AND SWAP1 POP SWAP2 SWAP1 POP JUMP JUMPDEST PUSH0 PUSH2 0x1D03 PUSH2 0x1CFE DUP4 PUSH2 0x1CD9 JUMP JUMPDEST PUSH2 0x1CE5 JUMP JUMPDEST SWAP1 POP SWAP2 SWAP1 POP JUMP JUMPDEST PUSH2 0x1D13 DUP2 PUSH2 0x144C JUMP JUMPDEST DUP3 MSTORE POP POP JUMP JUMPDEST PUSH0 PUSH1 0x80 DUP4 ADD PUSH0 DUP1 DUP5 ADD DUP6 DUP4 SUB PUSH0 DUP8 ADD MSTORE PUSH2 0x1D33 DUP4 DUP3 PUSH2 0x1BF1 JUMP JUMPDEST SWAP3 POP POP PUSH1 0x1 DUP5 ADD SLOAD SWAP1 POP PUSH2 0x1D46 DUP2 PUSH2 0x1C8C JUMP JUMPDEST PUSH2 0x1D53 PUSH1 0x20 DUP8 ADD DUP3 PUSH2 0x1CA5 JUMP JUMPDEST POP PUSH2 0x1D5D DUP2 PUSH2 0x1CC0 JUMP JUMPDEST PUSH2 0x1D6A PUSH1 0x40 DUP8 ADD DUP3 PUSH2 0x1CA5 JUMP JUMPDEST POP PUSH2 0x1D74 DUP2 PUSH2 0x1CF1 JUMP JUMPDEST PUSH2 0x1D81 PUSH1 0x60 DUP8 ADD DUP3 PUSH2 0x1D0A JUMP JUMPDEST POP DUP2 SWAP3 POP POP POP SWAP3 SWAP2 POP POP JUMP JUMPDEST PUSH0 PUSH1 0x20 DUP3 ADD SWAP1 POP DUP2 DUP2 SUB PUSH0 DUP4 ADD MSTORE PUSH2 0x1DA5 DUP2 DUP5 PUSH2 0x1D19 JUMP JUMPDEST SWAP1 POP SWAP3 SWAP2 POP POP JUMP JUMPDEST PUSH32 0x4E487B7100000000000000000000000000000000000000000000000000000000 PUSH0 MSTORE PUSH1 0x11 PUSH1 0x4 MSTORE PUSH1 0x24 PUSH0 REVERT JUMPDEST PUSH0 PUSH2 0x1DE4 DUP3 PUSH2 0x142E JUMP JUMPDEST SWAP2 POP PUSH4 0xFFFFFFFF DUP3 SUB PUSH2 0x1DFA JUMPI PUSH2 0x1DF9 PUSH2 0x1DAD JUMP JUMPDEST JUMPDEST PUSH1 0x1 DUP3 ADD SWAP1 POP SWAP2 SWAP1 POP JUMP JUMPDEST PUSH0 DUP2 SLOAD SWAP1 POP PUSH2 0x1E13 DUP2 PUSH2 0x17C3 JUMP JUMPDEST SWAP1 POP SWAP2 SWAP1 POP JUMP JUMPDEST DUP2 DUP2 SUB PUSH2 0x1E28 JUMPI POP POP PUSH2 0x1EFD JUMP JUMPDEST PUSH2 0x1E31 DUP3 PUSH2 0x1E05 JUMP JUMPDEST PUSH8 0xFFFFFFFFFFFFFFFF DUP2 GT ISZERO PUSH2 0x1E4A JUMPI PUSH2 0x1E49 PUSH2 0x15ED JUMP JUMPDEST JUMPDEST PUSH2 0x1E54 DUP3 SLOAD PUSH2 0x17C3 JUMP JUMPDEST PUSH2 0x1E5F DUP3 DUP3 DUP6 PUSH2 0x1A89 JUMP JUMPDEST PUSH0 PUSH1 0x1F DUP4 GT PUSH1 0x1 DUP2 EQ PUSH2 0x1E8C JUMPI PUSH0 DUP5 ISZERO PUSH2 0x1E7A JUMPI DUP3 DUP8 ADD SLOAD SWAP1 POP JUMPDEST PUSH2 0x1E84 DUP6 DUP3 PUSH2 0x1AF7 JUMP JUMPDEST DUP7 SSTORE POP PUSH2 0x1EF6 JUMP JUMPDEST PUSH1 0x1F NOT DUP5 AND PUSH2 0x1E9A DUP8 PUSH2 0x1888 JUMP JUMPDEST SWAP7 POP PUSH2 0x1EA5 DUP7 PUSH2 0x1888 JUMP JUMPDEST PUSH0 JUMPDEST DUP3 DUP2 LT ISZERO PUSH2 0x1ECC JUMPI DUP5 DUP10 ADD SLOAD DUP3 SSTORE PUSH1 0x1 DUP3 ADD SWAP2 POP PUSH1 0x1 DUP6 ADD SWAP5 POP PUSH1 0x20 DUP2 ADD SWAP1 POP PUSH2 0x1EA7 JUMP JUMPDEST DUP7 DUP4 LT ISZERO PUSH2 0x1EE9 JUMPI DUP5 DUP10 ADD SLOAD PUSH2 0x1EE5 PUSH1 0x1F DUP10 AND DUP3 PUSH2 0x1ADB JUMP JUMPDEST DUP4 SSTORE POP JUMPDEST PUSH1 0x1 PUSH1 0x2 DUP9 MUL ADD DUP9 SSTORE POP POP POP JUMPDEST POP POP POP POP POP POP JUMPDEST JUMP JUMPDEST PUSH32 0x4E487B7100000000000000000000000000000000000000000000000000000000 PUSH0 MSTORE PUSH1 0x51 PUSH1 0x4 MSTORE PUSH1 0x24 PUSH0 REVERT INVALID LOG2 PUSH5 0x6970667358 0x22 SLT KECCAK256 0xD5 ADD 0xDE 0xE8 0x5C RETURN 0xAA 0xEC LOG3 0xDC DUP13 0x27 PUSH5 0x9B302C092C LT 0xC8 LOG4 PUSH6 0x873B8DC8FD3 SELFBALANCE SWAP11 0xB8 TIMESTAMP PUSH5 0x736F6C6343 STOP ADDMOD AND STOP CALLER "
		},
		"gasEstimates": {
			"creation": {
				"codeDepositCost": "1606800",
				"executionCost": "infinite",
				"totalCost": "infinite"
			},
			"external": {
				"changeDirector(address)": "30581",
				"changeRightToView(address,uint256)": "27284",
				"changeRightToVote(address,uint256)": "27190",
				"closeQuestionVoting(uint256)": "infinite",
				"createQuestion(string)": "infinite",
				"createShareholder(address)": "75766",
				"director()": "2619",
				"getDirector()": "2582",
				"questions(uint256)": "infinite",
				"shareholders(address)": "infinite",
				"viewResults(uint256)": "infinite",
				"vote(uint256,uint256)": "infinite",
				"voterToQuestion(address)": "infinite"
			}
		},
		"methodIdentifiers": {
			"changeDirector(address)": "2898f105",
			"changeRightToView(address,uint256)": "d3d161dd",
			"changeRightToVote(address,uint256)": "8c217337",
			"closeQuestionVoting(uint256)": "33c9e51d",
			"createQuestion(string)": "b3580c1e",
			"createShareholder(address)": "a0568c82",
			"director()": "5af82abf",
			"getDirector()": "97588e26",
			"questions(uint256)": "31b1b978",
			"shareholders(address)": "5c2930ad",
			"viewResults(uint256)": "2bd87d49",
			"vote(uint256,uint256)": "b384abef",
			"voterToQuestion(address)": "230e0660"
		}
	},
	"abi": [
		{
			"anonymous": false,
			"inputs": [
				{
					"indexed": true,
					"internalType": "address",
					"name": "oldDirector",
					"type": "address"
				},
				{
					"indexed": true,
					"internalType": "address",
					"name": "newDirector",
					"type": "address"
				}
			],
			"name": "DirectorSet",
			"type": "event"
		},
		{
			"anonymous": false,
			"inputs": [
				{
					"indexed": false,
					"internalType": "string",
					"name": "body",
					"type": "string"
				}
			],
			"name": "NewQuestion",
			"type": "event"
		},
		{
			"anonymous": false,
			"inputs": [
				{
					"indexed": false,
					"internalType": "string",
					"name": "body",
					"type": "string"
				},
				{
					"indexed": false,
					"internalType": "uint256",
					"name": "positiveResults",
					"type": "uint256"
				},
				{
					"indexed": false,
					"internalType": "uint256",
					"name": "negativeResults",
					"type": "uint256"
				}
			],
			"name": "QuestionResults",
			"type": "event"
		},
		{
			"inputs": [
				{
					"internalType": "address",
					"name": "newDirector",
					"type": "address"
				}
			],
			"name": "changeDirector",
			"outputs": [],
			"stateMutability": "nonpayable",
			"type": "function"
		},
		{
			"inputs": [
				{
					"internalType": "address",
					"name": "_voterId",
					"type": "address"
				},
				{
					"internalType": "uint256",
					"name": "_rightValue",
					"type": "uint256"
				}
			],
			"name": "changeRightToView",
			"outputs": [],
			"stateMutability": "nonpayable",
			"type": "function"
		},
		{
			"inputs": [
				{
					"internalType": "address",
					"name": "_voterId",
					"type": "address"
				},
				{
					"internalType": "uint256",
					"name": "_rightValue",
					"type": "uint256"
				}
			],
			"name": "changeRightToVote",
			"outputs": [],
			"stateMutability": "nonpayable",
			"type": "function"
		},
		{
			"inputs": [
				{
					"internalType": "uint256",
					"name": "_questionId",
					"type": "uint256"
				}
			],
			"name": "closeQuestionVoting",
			"outputs": [],
			"stateMutability": "nonpayable",
			"type": "function"
		},
		{
			"inputs": [
				{
					"internalType": "string",
					"name": "_body",
					"type": "string"
				}
			],
			"name": "createQuestion",
			"outputs": [],
			"stateMutability": "nonpayable",
			"type": "function"
		},
		{
			"inputs": [
				{
					"internalType": "address",
					"name": "_address",
					"type": "address"
				}
			],
			"name": "createShareholder",
			"outputs": [],
			"stateMutability": "nonpayable",
			"type": "function"
		},
		{
			"inputs": [],
			"name": "director",
			"outputs": [
				{
					"internalType": "address",
					"name": "",
					"type": "address"
				}
			],
			"stateMutability": "view",
			"type": "function"
		},
		{
			"inputs": [],
			"name": "getDirector",
			"outputs": [
				{
					"internalType": "address",
					"name": "",
					"type": "address"
				}
			],
			"stateMutability": "view",
			"type": "function"
		},
		{
			"inputs": [
				{
					"internalType": "uint256",
					"name": "",
					"type": "uint256"
				}
			],
			"name": "questions",
			"outputs": [
				{
					"internalType": "string",
					"name": "body",
					"type": "string"
				},
				{
					"internalType": "uint32",
					"name": "positiveVoteCount",
					"type": "uint32"
				},
				{
					"internalType": "uint32",
					"name": "negativeVoteCount",
					"type": "uint32"
				},
				{
					"internalType": "bool",
					"name": "active",
					"type": "bool"
				}
			],
			"stateMutability": "view",
			"type": "function"
		},
		{
			"inputs": [
				{
					"internalType": "address",
					"name": "",
					"type": "address"
				}
			],
			"name": "shareholders",
			"outputs": [
				{
					"internalType": "uint32",
					"name": "weight",
					"type": "uint32"
				},
				{
					"internalType": "bool",
					"name": "voted",
					"type": "bool"
				},
				{
					"internalType": "uint32",
					"name": "vote",
					"type": "uint32"
				},
				{
					"internalType": "uint32",
					"name": "viewResults",
					"type": "uint32"
				},
				{
					"internalType": "address",
					"name": "shareholderAddress",
					"type": "address"
				}
			],
			"stateMutability": "view",
			"type": "function"
		},
		{
			"inputs": [
				{
					"internalType": "uint256",
					"name": "_questionId",
					"type": "uint256"
				}
			],
			"name": "viewResults",
			"outputs": [
				{
					"internalType": "string",
					"name": "",
					"type": "string"
				}
			],
			"stateMutability": "view",
			"type": "function"
		},
		{
			"inputs": [
				{
					"internalType": "uint256",
					"name": "_questionId",
					"type": "uint256"
				},
				{
					"internalType": "uint256",
					"name": "_vote",
					"type": "uint256"
				}
			],
			"name": "vote",
			"outputs": [],
			"stateMutability": "nonpayable",
			"type": "function"
		},
		{
			"inputs": [
				{
					"internalType": "address",
					"name": "",
					"type": "address"
				}
			],
			"name": "voterToQuestion",
			"outputs": [
				{
					"internalType": "string",
					"name": "body",
					"type": "string"
				},
				{
					"internalType": "uint32",
					"name": "positiveVoteCount",
					"type": "uint32"
				},
				{
					"internalType": "uint32",
					"name": "negativeVoteCount",
					"type": "uint32"
				},
				{
					"internalType": "bool",
					"name": "active",
					"type": "bool"
				}
			],
			"stateMutability": "view",
			"type": "function"
		}
	]
}